{
  "_format": "hh-sol-artifact-1",
  "contractName": "FlipSkiBaseVRF",
  "sourceName": "contracts/FlipSkiBaseVRF.sol",
  "abi": [
    {
      "inputs": [
        {
          "internalType": "address payable",
          "name": "_initialFeeWallet",
          "type": "address"
        },
        {
          "internalType": "uint256",
          "name": "_initialFeePercentage",
          "type": "uint256"
        },
        {
          "internalType": "uint256",
          "name": "_initialMaxWager",
          "type": "uint256"
        },
        {
          "internalType": "uint256",
          "name": "_initialMinWager",
          "type": "uint256"
        },
        {
          "internalType": "address",
          "name": "_vrfCoordinator",
          "type": "address"
        },
        {
          "internalType": "uint256",
          "name": "_subscriptionId",
          "type": "uint256"
        },
        {
          "internalType": "bytes32",
          "name": "_keyHash",
          "type": "bytes32"
        }
      ],
      "stateMutability": "nonpayable",
      "type": "constructor"
    },
    {
      "inputs": [],
      "name": "EnforcedPause",
      "type": "error"
    },
    {
      "inputs": [],
      "name": "ExpectedPause",
      "type": "error"
    },
    {
      "inputs": [
        {
          "internalType": "address",
          "name": "have",
          "type": "address"
        },
        {
          "internalType": "address",
          "name": "want",
          "type": "address"
        }
      ],
      "name": "OnlyCoordinatorCanFulfill",
      "type": "error"
    },
    {
      "inputs": [
        {
          "internalType": "address",
          "name": "have",
          "type": "address"
        },
        {
          "internalType": "address",
          "name": "owner",
          "type": "address"
        },
        {
          "internalType": "address",
          "name": "coordinator",
          "type": "address"
        }
      ],
      "name": "OnlyOwnerOrCoordinator",
      "type": "error"
    },
    {
      "inputs": [],
      "name": "ReentrancyGuardReentrantCall",
      "type": "error"
    },
    {
      "inputs": [],
      "name": "ZeroAddress",
      "type": "error"
    },
    {
      "anonymous": false,
      "inputs": [
        {
          "indexed": false,
          "internalType": "address",
          "name": "vrfCoordinator",
          "type": "address"
        }
      ],
      "name": "CoordinatorSet",
      "type": "event"
    },
    {
      "anonymous": false,
      "inputs": [
        {
          "indexed": true,
          "internalType": "uint256",
          "name": "gameId",
          "type": "uint256"
        },
        {
          "indexed": true,
          "internalType": "address",
          "name": "player",
          "type": "address"
        },
        {
          "indexed": false,
          "internalType": "uint256",
          "name": "amount",
          "type": "uint256"
        }
      ],
      "name": "EmergencyRefund",
      "type": "event"
    },
    {
      "anonymous": false,
      "inputs": [
        {
          "indexed": false,
          "internalType": "uint256",
          "name": "newFeePercentage",
          "type": "uint256"
        }
      ],
      "name": "FeePercentageUpdated",
      "type": "event"
    },
    {
      "anonymous": false,
      "inputs": [
        {
          "indexed": true,
          "internalType": "address",
          "name": "newFeeWallet",
          "type": "address"
        }
      ],
      "name": "FeeWalletUpdated",
      "type": "event"
    },
    {
      "anonymous": false,
      "inputs": [
        {
          "indexed": true,
          "internalType": "uint256",
          "name": "gameId",
          "type": "uint256"
        },
        {
          "indexed": true,
          "internalType": "address",
          "name": "player",
          "type": "address"
        },
        {
          "indexed": false,
          "internalType": "enum FlipSkiBaseVRF.CoinSide",
          "name": "choice",
          "type": "uint8"
        },
        {
          "indexed": false,
          "internalType": "uint256",
          "name": "wagerAmount",
          "type": "uint256"
        },
        {
          "indexed": true,
          "internalType": "uint256",
          "name": "vrfRequestId",
          "type": "uint256"
        }
      ],
      "name": "GameRequested",
      "type": "event"
    },
    {
      "anonymous": false,
      "inputs": [
        {
          "indexed": true,
          "internalType": "uint256",
          "name": "gameId",
          "type": "uint256"
        },
        {
          "indexed": true,
          "internalType": "address",
          "name": "player",
          "type": "address"
        },
        {
          "indexed": false,
          "internalType": "enum FlipSkiBaseVRF.CoinSide",
          "name": "result",
          "type": "uint8"
        },
        {
          "indexed": false,
          "internalType": "uint256",
          "name": "payoutAmount",
          "type": "uint256"
        },
        {
          "indexed": false,
          "internalType": "uint256",
          "name": "feeAmount",
          "type": "uint256"
        },
        {
          "indexed": true,
          "internalType": "uint256",
          "name": "vrfRequestId",
          "type": "uint256"
        },
        {
          "indexed": false,
          "internalType": "bool",
          "name": "playerWon",
          "type": "bool"
        }
      ],
      "name": "GameSettled",
      "type": "event"
    },
    {
      "anonymous": false,
      "inputs": [
        {
          "indexed": false,
          "internalType": "uint256",
          "name": "newMaxPendingGames",
          "type": "uint256"
        }
      ],
      "name": "MaxPendingGamesUpdated",
      "type": "event"
    },
    {
      "anonymous": false,
      "inputs": [
        {
          "indexed": false,
          "internalType": "uint256",
          "name": "newMaxWager",
          "type": "uint256"
        }
      ],
      "name": "MaxWagerUpdated",
      "type": "event"
    },
    {
      "anonymous": false,
      "inputs": [
        {
          "indexed": false,
          "internalType": "uint256",
          "name": "newMinWager",
          "type": "uint256"
        }
      ],
      "name": "MinWagerUpdated",
      "type": "event"
    },
    {
      "anonymous": false,
      "inputs": [
        {
          "indexed": true,
          "internalType": "address",
          "name": "previousOwner",
          "type": "address"
        },
        {
          "indexed": true,
          "internalType": "address",
          "name": "newOwner",
          "type": "address"
        }
      ],
      "name": "OwnershipChanged",
      "type": "event"
    },
    {
      "anonymous": false,
      "inputs": [
        {
          "indexed": true,
          "internalType": "address",
          "name": "from",
          "type": "address"
        },
        {
          "indexed": true,
          "internalType": "address",
          "name": "to",
          "type": "address"
        }
      ],
      "name": "OwnershipTransferRequested",
      "type": "event"
    },
    {
      "anonymous": false,
      "inputs": [
        {
          "indexed": true,
          "internalType": "address",
          "name": "from",
          "type": "address"
        },
        {
          "indexed": true,
          "internalType": "address",
          "name": "to",
          "type": "address"
        }
      ],
      "name": "OwnershipTransferred",
      "type": "event"
    },
    {
      "anonymous": false,
      "inputs": [
        {
          "indexed": false,
          "internalType": "address",
          "name": "account",
          "type": "address"
        }
      ],
      "name": "Paused",
      "type": "event"
    },
    {
      "anonymous": false,
      "inputs": [
        {
          "indexed": true,
          "internalType": "uint256",
          "name": "gameId",
          "type": "uint256"
        },
        {
          "indexed": true,
          "internalType": "uint256",
          "name": "vrfRequestId",
          "type": "uint256"
        },
        {
          "indexed": false,
          "internalType": "uint256",
          "name": "randomWord",
          "type": "uint256"
        }
      ],
      "name": "RandomWordReceived",
      "type": "event"
    },
    {
      "anonymous": false,
      "inputs": [
        {
          "indexed": false,
          "internalType": "address",
          "name": "account",
          "type": "address"
        }
      ],
      "name": "Unpaused",
      "type": "event"
    },
    {
      "anonymous": false,
      "inputs": [
        {
          "indexed": false,
          "internalType": "uint256",
          "name": "newSubscriptionId",
          "type": "uint256"
        },
        {
          "indexed": false,
          "internalType": "bytes32",
          "name": "newKeyHash",
          "type": "bytes32"
        },
        {
          "indexed": false,
          "internalType": "uint32",
          "name": "newCallbackGasLimit",
          "type": "uint32"
        }
      ],
      "name": "VRFParametersUpdated",
      "type": "event"
    },
    {
      "stateMutability": "payable",
      "type": "fallback"
    },
    {
      "inputs": [],
      "name": "EMERGENCY_TIMEOUT",
      "outputs": [
        {
          "internalType": "uint256",
          "name": "",
          "type": "uint256"
        }
      ],
      "stateMutability": "view",
      "type": "function"
    },
    {
      "inputs": [],
      "name": "acceptOwnership",
      "outputs": [],
      "stateMutability": "nonpayable",
      "type": "function"
    },
    {
      "inputs": [],
      "name": "contractOwner",
      "outputs": [
        {
          "internalType": "address",
          "name": "",
          "type": "address"
        }
      ],
      "stateMutability": "view",
      "type": "function"
    },
    {
      "inputs": [
        {
          "internalType": "uint256",
          "name": "_gameId",
          "type": "uint256"
        }
      ],
      "name": "emergencyRefund",
      "outputs": [],
      "stateMutability": "nonpayable",
      "type": "function"
    },
    {
      "inputs": [],
      "name": "feePercentage",
      "outputs": [
        {
          "internalType": "uint256",
          "name": "",
          "type": "uint256"
        }
      ],
      "stateMutability": "view",
      "type": "function"
    },
    {
      "inputs": [],
      "name": "feeWallet",
      "outputs": [
        {
          "internalType": "address payable",
          "name": "",
          "type": "address"
        }
      ],
      "stateMutability": "view",
      "type": "function"
    },
    {
      "inputs": [
        {
          "internalType": "enum FlipSkiBaseVRF.CoinSide",
          "name": "_choice",
          "type": "uint8"
        }
      ],
      "name": "flip",
      "outputs": [],
      "stateMutability": "payable",
      "type": "function"
    },
    {
      "inputs": [],
      "name": "gameIdCounter",
      "outputs": [
        {
          "internalType": "uint256",
          "name": "",
          "type": "uint256"
        }
      ],
      "stateMutability": "view",
      "type": "function"
    },
    {
      "inputs": [
        {
          "internalType": "uint256",
          "name": "",
          "type": "uint256"
        }
      ],
      "name": "games",
      "outputs": [
        {
          "internalType": "address",
          "name": "player",
          "type": "address"
        },
        {
          "internalType": "enum FlipSkiBaseVRF.CoinSide",
          "name": "choice",
          "type": "uint8"
        },
        {
          "internalType": "uint256",
          "name": "wagerAmount",
          "type": "uint256"
        },
        {
          "internalType": "uint256",
          "name": "feeAmount",
          "type": "uint256"
        },
        {
          "internalType": "uint256",
          "name": "payoutAmount",
          "type": "uint256"
        },
        {
          "internalType": "enum FlipSkiBaseVRF.CoinSide",
          "name": "result",
          "type": "uint8"
        },
        {
          "internalType": "bool",
          "name": "requested",
          "type": "bool"
        },
        {
          "internalType": "bool",
          "name": "settled",
          "type": "bool"
        },
        {
          "internalType": "uint256",
          "name": "vrfRequestId",
          "type": "uint256"
        },
        {
          "internalType": "uint256",
          "name": "requestTimestamp",
          "type": "uint256"
        }
      ],
      "stateMutability": "view",
      "type": "function"
    },
    {
      "inputs": [
        {
          "internalType": "uint256",
          "name": "_gameId",
          "type": "uint256"
        }
      ],
      "name": "isEligibleForEmergencyRefund",
      "outputs": [
        {
          "internalType": "bool",
          "name": "",
          "type": "bool"
        }
      ],
      "stateMutability": "view",
      "type": "function"
    },
    {
      "inputs": [],
      "name": "maxPendingGamesPerPlayer",
      "outputs": [
        {
          "internalType": "uint256",
          "name": "",
          "type": "uint256"
        }
      ],
      "stateMutability": "view",
      "type": "function"
    },
    {
      "inputs": [],
      "name": "maxWager",
      "outputs": [
        {
          "internalType": "uint256",
          "name": "",
          "type": "uint256"
        }
      ],
      "stateMutability": "view",
      "type": "function"
    },
    {
      "inputs": [],
      "name": "minWager",
      "outputs": [
        {
          "internalType": "uint256",
          "name": "",
          "type": "uint256"
        }
      ],
      "stateMutability": "view",
      "type": "function"
    },
    {
      "inputs": [],
      "name": "owner",
      "outputs": [
        {
          "internalType": "address",
          "name": "",
          "type": "address"
        }
      ],
      "stateMutability": "view",
      "type": "function"
    },
    {
      "inputs": [],
      "name": "pause",
      "outputs": [],
      "stateMutability": "nonpayable",
      "type": "function"
    },
    {
      "inputs": [],
      "name": "paused",
      "outputs": [
        {
          "internalType": "bool",
          "name": "",
          "type": "bool"
        }
      ],
      "stateMutability": "view",
      "type": "function"
    },
    {
      "inputs": [
        {
          "internalType": "address",
          "name": "",
          "type": "address"
        }
      ],
      "name": "pendingGamesPerPlayer",
      "outputs": [
        {
          "internalType": "uint256",
          "name": "",
          "type": "uint256"
        }
      ],
      "stateMutability": "view",
      "type": "function"
    },
    {
      "inputs": [
        {
          "internalType": "uint256",
          "name": "requestId",
          "type": "uint256"
        },
        {
          "internalType": "uint256[]",
          "name": "randomWords",
          "type": "uint256[]"
        }
      ],
      "name": "rawFulfillRandomWords",
      "outputs": [],
      "stateMutability": "nonpayable",
      "type": "function"
    },
    {
      "inputs": [],
      "name": "s_vrfCoordinator",
      "outputs": [
        {
          "internalType": "contract IVRFCoordinatorV2Plus",
          "name": "",
          "type": "address"
        }
      ],
      "stateMutability": "view",
      "type": "function"
    },
    {
      "inputs": [
        {
          "internalType": "address",
          "name": "_vrfCoordinator",
          "type": "address"
        }
      ],
      "name": "setCoordinator",
      "outputs": [],
      "stateMutability": "nonpayable",
      "type": "function"
    },
    {
      "inputs": [
        {
          "internalType": "uint256",
          "name": "_newFeePercentage",
          "type": "uint256"
        }
      ],
      "name": "setFeePercentage",
      "outputs": [],
      "stateMutability": "nonpayable",
      "type": "function"
    },
    {
      "inputs": [
        {
          "internalType": "address payable",
          "name": "_newFeeWallet",
          "type": "address"
        }
      ],
      "name": "setFeeWallet",
      "outputs": [],
      "stateMutability": "nonpayable",
      "type": "function"
    },
    {
      "inputs": [
        {
          "internalType": "uint256",
          "name": "_maxPendingGames",
          "type": "uint256"
        }
      ],
      "name": "setMaxPendingGamesPerPlayer",
      "outputs": [],
      "stateMutability": "nonpayable",
      "type": "function"
    },
    {
      "inputs": [
        {
          "internalType": "uint256",
          "name": "_newMaxWager",
          "type": "uint256"
        }
      ],
      "name": "setMaxWager",
      "outputs": [],
      "stateMutability": "nonpayable",
      "type": "function"
    },
    {
      "inputs": [
        {
          "internalType": "uint256",
          "name": "_newMinWager",
          "type": "uint256"
        }
      ],
      "name": "setMinWager",
      "outputs": [],
      "stateMutability": "nonpayable",
      "type": "function"
    },
    {
      "inputs": [
        {
          "internalType": "uint256",
          "name": "_newSubscriptionId",
          "type": "uint256"
        },
        {
          "internalType": "bytes32",
          "name": "_newKeyHash",
          "type": "bytes32"
        },
        {
          "internalType": "uint32",
          "name": "_newCallbackGasLimit",
          "type": "uint32"
        }
      ],
      "name": "setVRFParameters",
      "outputs": [],
      "stateMutability": "nonpayable",
      "type": "function"
    },
    {
      "inputs": [
        {
          "internalType": "address",
          "name": "newOwner",
          "type": "address"
        }
      ],
      "name": "transferContractOwnership",
      "outputs": [],
      "stateMutability": "nonpayable",
      "type": "function"
    },
    {
      "inputs": [
        {
          "internalType": "address",
          "name": "to",
          "type": "address"
        }
      ],
      "name": "transferOwnership",
      "outputs": [],
      "stateMutability": "nonpayable",
      "type": "function"
    },
    {
      "inputs": [],
      "name": "unpause",
      "outputs": [],
      "stateMutability": "nonpayable",
      "type": "function"
    },
    {
      "inputs": [
        {
          "internalType": "uint256",
          "name": "",
          "type": "uint256"
        }
      ],
      "name": "vrfRequestToGameId",
      "outputs": [
        {
          "internalType": "uint256",
          "name": "",
          "type": "uint256"
        }
      ],
      "stateMutability": "view",
      "type": "function"
    },
    {
      "inputs": [],
      "name": "withdrawContractBalance",
      "outputs": [],
      "stateMutability": "nonpayable",
      "type": "function"
    },
    {
      "inputs": [
        {
          "internalType": "address",
          "name": "_tokenAddress",
          "type": "address"
        },
        {
          "internalType": "uint256",
          "name": "_amount",
          "type": "uint256"
        }
      ],
      "name": "withdrawStuckTokens",
      "outputs": [],
      "stateMutability": "nonpayable",
      "type": "function"
    },
    {
      "stateMutability": "payable",
      "type": "receive"
    }
  ],
  "bytecode": "0x60a0604052620493e0600760006101000a81548163ffffffff021916908363ffffffff1602179055506005600c553480156200003a57600080fd5b5060405162005204380380620052048339818101604052810190620000609190620007a7565b823380600060018081905550600073ffffffffffffffffffffffffffffffffffffffff168273ffffffffffffffffffffffffffffffffffffffff1603620000de576040517f08c379a0000000000000000000000000000000000000000000000000000000008152600401620000d590620008bb565b60405180910390fd5b81600260006101000a81548173ffffffffffffffffffffffffffffffffffffffff021916908373ffffffffffffffffffffffffffffffffffffffff160217905550600073ffffffffffffffffffffffffffffffffffffffff168173ffffffffffffffffffffffffffffffffffffffff1614620001665762000165816200055160201b60201c565b5b505050600073ffffffffffffffffffffffffffffffffffffffff168173ffffffffffffffffffffffffffffffffffffffff1603620001d0576040517fd92e233d00000000000000000000000000000000000000000000000000000000815260040160405180910390fd5b80600460006101000a81548173ffffffffffffffffffffffffffffffffffffffff021916908373ffffffffffffffffffffffffffffffffffffffff16021790555050600073ffffffffffffffffffffffffffffffffffffffff168773ffffffffffffffffffffffffffffffffffffffff160362000284576040517f08c379a00000000000000000000000000000000000000000000000000000000081526004016200027b9062000953565b60405180910390fd5b612710861115620002cc576040517f08c379a0000000000000000000000000000000000000000000000000000000008152600401620002c390620009eb565b60405180910390fd5b6000841162000312576040517f08c379a0000000000000000000000000000000000000000000000000000000008152600401620003099062000a5d565b60405180910390fd5b8385101562000358576040517f08c379a00000000000000000000000000000000000000000000000000000000081526004016200034f9062000af5565b60405180910390fd5b600073ffffffffffffffffffffffffffffffffffffffff168373ffffffffffffffffffffffffffffffffffffffff1603620003ca576040517f08c379a0000000000000000000000000000000000000000000000000000000008152600401620003c19062000b8d565b60405180910390fd5b6000820362000410576040517f08c379a0000000000000000000000000000000000000000000000000000000008152600401620004079062000bff565b60405180910390fd5b33600760046101000a81548173ffffffffffffffffffffffffffffffffffffffff021916908373ffffffffffffffffffffffffffffffffffffffff1602179055503373ffffffffffffffffffffffffffffffffffffffff16600073ffffffffffffffffffffffffffffffffffffffff167f0384899bd253d83b23daa4d29aaa2efe0563d1132b43101e9ad667235aeb951b60405160405180910390a386600860006101000a81548173ffffffffffffffffffffffffffffffffffffffff021916908373ffffffffffffffffffffffffffffffffffffffff1602179055508560098190555084600a8190555083600b819055508273ffffffffffffffffffffffffffffffffffffffff1660808173ffffffffffffffffffffffffffffffffffffffff168152505081600581905550806006819055505050505050505062000c93565b3373ffffffffffffffffffffffffffffffffffffffff168173ffffffffffffffffffffffffffffffffffffffff1603620005c2576040517f08c379a0000000000000000000000000000000000000000000000000000000008152600401620005b99062000c71565b60405180910390fd5b80600360006101000a81548173ffffffffffffffffffffffffffffffffffffffff021916908373ffffffffffffffffffffffffffffffffffffffff1602179055508073ffffffffffffffffffffffffffffffffffffffff16600260009054906101000a900473ffffffffffffffffffffffffffffffffffffffff1673ffffffffffffffffffffffffffffffffffffffff167fed8889f560326eb138920d842192f0eb3dd22b4f139c87a2c57538e05bae127860405160405180910390a350565b600080fd5b600073ffffffffffffffffffffffffffffffffffffffff82169050919050565b6000620006b48262000687565b9050919050565b620006c681620006a7565b8114620006d257600080fd5b50565b600081519050620006e681620006bb565b92915050565b6000819050919050565b6200070181620006ec565b81146200070d57600080fd5b50565b6000815190506200072181620006f6565b92915050565b6000620007348262000687565b9050919050565b620007468162000727565b81146200075257600080fd5b50565b60008151905062000766816200073b565b92915050565b6000819050919050565b62000781816200076c565b81146200078d57600080fd5b50565b600081519050620007a18162000776565b92915050565b600080600080600080600060e0888a031215620007c957620007c862000682565b5b6000620007d98a828b01620006d5565b9750506020620007ec8a828b0162000710565b9650506040620007ff8a828b0162000710565b9550506060620008128a828b0162000710565b9450506080620008258a828b0162000755565b93505060a0620008388a828b0162000710565b92505060c06200084b8a828b0162000790565b91505092959891949750929550565b600082825260208201905092915050565b7f43616e6e6f7420736574206f776e657220746f207a65726f0000000000000000600082015250565b6000620008a36018836200085a565b9150620008b0826200086b565b602082019050919050565b60006020820190508181036000830152620008d68162000894565b9050919050565b7f4665652077616c6c65742063616e6e6f74206265207a65726f2061646472657360008201527f7300000000000000000000000000000000000000000000000000000000000000602082015250565b60006200093b6021836200085a565b91506200094882620008dd565b604082019050919050565b600060208201905081810360008301526200096e816200092c565b9050919050565b7f4665652070657263656e746167652063616e6e6f74206578636565642031303060008201527f303020626173697320706f696e74732028313030252900000000000000000000602082015250565b6000620009d36036836200085a565b9150620009e08262000975565b604082019050919050565b6000602082019050818103600083015262000a0681620009c4565b9050919050565b7f4d696e207761676572206d7573742062652067726561746572207468616e2030600082015250565b600062000a456020836200085a565b915062000a528262000a0d565b602082019050919050565b6000602082019050818103600083015262000a788162000a36565b9050919050565b7f4d6178207761676572206d7573742062652067726561746572207468616e206f60008201527f7220657175616c20746f206d696e207761676572000000000000000000000000602082015250565b600062000add6034836200085a565b915062000aea8262000a7f565b604082019050919050565b6000602082019050818103600083015262000b108162000ace565b9050919050565b7f56524620436f6f7264696e61746f7220616464726573732063616e6e6f74206260008201527f65207a65726f0000000000000000000000000000000000000000000000000000602082015250565b600062000b756026836200085a565b915062000b828262000b17565b604082019050919050565b6000602082019050818103600083015262000ba88162000b66565b9050919050565b7f537562736372697074696f6e2049442063616e6e6f74206265207a65726f0000600082015250565b600062000be7601e836200085a565b915062000bf48262000baf565b602082019050919050565b6000602082019050818103600083015262000c1a8162000bd8565b9050919050565b7f43616e6e6f74207472616e7366657220746f2073656c66000000000000000000600082015250565b600062000c596017836200085a565b915062000c668262000c21565b602082019050919050565b6000602082019050818103600083015262000c8c8162000c4a565b9050919050565b60805161455562000caf6000396000610ed601526145556000f3fe6080604052600436106101e75760003560e01c806390d49b9d11610102578063bd61f0a611610095578063d15b48b911610064578063d15b48b914610670578063da7c0dc914610699578063f25f4b56146106d6578063f2fde38b14610701576101ee565b8063bd61f0a6146105c8578063bfab3db9146105f1578063ce606ee014610608578063d0d4857414610633576101ee565b8063a52ef3fa116100d1578063a52ef3fa14610520578063a843c51f1461054b578063ae06c1b714610574578063bb9c3f2b1461059d576101ee565b806390d49b9d146104785780639ae980a8146104a15780639eccacf6146104ca578063a001ecdd146104f5576101ee565b8063638c06371161017a5780637f264076116101495780637f264076146103e25780638456cb591461040d5780638da5cb5b146104245780638ea981171461044f576101ee565b8063638c06371461035b57806370e5deb91461037757806378597917146103a057806379ba5097146103cb576101ee565b80633f4ba83a116101b65780633f4ba83a146102b35780634228487c146102ca57806344e493fa146102f35780635c975abb14610330576101ee565b80630c32ddab146101f0578063117a5b90146102195780631bb412d61461025f5780631fe543e31461028a576101ee565b366101ee57005b005b3480156101fc57600080fd5b5061021760048036038101906102129190612ca6565b61072a565b005b34801561022557600080fd5b50610240600480360381019061023b9190612ca6565b61083e565b6040516102569a99989796959493929190612db5565b60405180910390f35b34801561026b57600080fd5b506102746108e6565b6040516102819190612e51565b60405180910390f35b34801561029657600080fd5b506102b160048036038101906102ac9190612ed1565b6108ec565b005b3480156102bf57600080fd5b506102c86109b2565b005b3480156102d657600080fd5b506102f160048036038101906102ec9190612fa3565b610a54565b005b3480156102ff57600080fd5b5061031a60048036038101906103159190612ca6565b610bf5565b6040516103279190612e51565b60405180910390f35b34801561033c57600080fd5b50610345610c0d565b6040516103529190612ff6565b60405180910390f35b61037560048036038101906103709190613036565b610c23565b005b34801561038357600080fd5b5061039e60048036038101906103999190612ca6565b610ff5565b005b3480156103ac57600080fd5b506103b56113af565b6040516103c29190612e51565b60405180910390f35b3480156103d757600080fd5b506103e06113b5565b005b3480156103ee57600080fd5b506103f761154c565b6040516104049190612e51565b60405180910390f35b34801561041957600080fd5b50610422611552565b005b34801561043057600080fd5b506104396115f4565b6040516104469190613063565b60405180910390f35b34801561045b57600080fd5b50610476600480360381019061047191906130aa565b61161e565b005b34801561048457600080fd5b5061049f600480360381019061049a9190613115565b6117ff565b005b3480156104ad57600080fd5b506104c860048036038101906104c39190612ca6565b611985565b005b3480156104d657600080fd5b506104df611ade565b6040516104ec91906131a1565b60405180910390f35b34801561050157600080fd5b5061050a611b04565b6040516105179190612e51565b60405180910390f35b34801561052c57600080fd5b50610535611b0a565b6040516105429190612e51565b60405180910390f35b34801561055757600080fd5b50610572600480360381019061056d91906130aa565b611b10565b005b34801561058057600080fd5b5061059b60048036038101906105969190612ca6565b611cd5565b005b3480156105a957600080fd5b506105b2611deb565b6040516105bf9190612e51565b60405180910390f35b3480156105d457600080fd5b506105ef60048036038101906105ea91906131bc565b611df1565b005b3480156105fd57600080fd5b50610606611fc4565b005b34801561061457600080fd5b5061061d612163565b60405161062a9190613063565b60405180910390f35b34801561063f57600080fd5b5061065a600480360381019061065591906130aa565b61218d565b6040516106679190612e51565b60405180910390f35b34801561067c57600080fd5b5061069760048036038101906106929190612ca6565b6121a5565b005b3480156106a557600080fd5b506106c060048036038101906106bb9190612ca6565b6122bb565b6040516106cd9190612ff6565b60405180910390f35b3480156106e257600080fd5b506106eb612325565b6040516106f8919061320b565b60405180910390f35b34801561070d57600080fd5b50610728600480360381019061072391906130aa565b61234b565b005b600760049054906101000a900473ffffffffffffffffffffffffffffffffffffffff1673ffffffffffffffffffffffffffffffffffffffff163373ffffffffffffffffffffffffffffffffffffffff16146107ba576040517f08c379a00000000000000000000000000000000000000000000000000000000081526004016107b1906132a9565b60405180910390fd5b600081116107fd576040517f08c379a00000000000000000000000000000000000000000000000000000000081526004016107f49061333b565b60405180910390fd5b80600c819055507fc4d51a6c1951412ad8a431f18b3ec5e22b9431935778db34362b15e3692c9522816040516108339190612e51565b60405180910390a150565b600f6020528060005260406000206000915090508060000160009054906101000a900473ffffffffffffffffffffffffffffffffffffffff16908060000160149054906101000a900460ff16908060010154908060020154908060030154908060040160009054906101000a900460ff16908060040160019054906101000a900460ff16908060040160029054906101000a900460ff1690806005015490806006015490508a565b600e5481565b600460009054906101000a900473ffffffffffffffffffffffffffffffffffffffff1673ffffffffffffffffffffffffffffffffffffffff163373ffffffffffffffffffffffffffffffffffffffff16146109a25733600460009054906101000a900473ffffffffffffffffffffffffffffffffffffffff166040517f1cf993f400000000000000000000000000000000000000000000000000000000815260040161099992919061335b565b60405180910390fd5b6109ad83838361235f565b505050565b600760049054906101000a900473ffffffffffffffffffffffffffffffffffffffff1673ffffffffffffffffffffffffffffffffffffffff163373ffffffffffffffffffffffffffffffffffffffff1614610a42576040517f08c379a0000000000000000000000000000000000000000000000000000000008152600401610a39906132a9565b60405180910390fd5b610a4a61290a565b610a5261294a565b565b600760049054906101000a900473ffffffffffffffffffffffffffffffffffffffff1673ffffffffffffffffffffffffffffffffffffffff163373ffffffffffffffffffffffffffffffffffffffff1614610ae4576040517f08c379a0000000000000000000000000000000000000000000000000000000008152600401610adb906132a9565b60405180910390fd5b60008303610b27576040517f08c379a0000000000000000000000000000000000000000000000000000000008152600401610b1e906133d0565b60405180910390fd5b60008163ffffffff1611610b70576040517f08c379a0000000000000000000000000000000000000000000000000000000008152600401610b6790613462565b60405180910390fd5b826005819055508160068190555080600760006101000a81548163ffffffff021916908363ffffffff1602179055507fb7217e99784358ecd33b535f3d43fb8f45c1f26724cba648d2843b3be82b5bb6600554600654600760009054906101000a900463ffffffff16604051610be8939291906134a0565b60405180910390a1505050565b60106020528060005260406000206000915090505481565b60008060009054906101000a900460ff16905090565b610c2b6129ac565b610c336129ed565b600b54341015610c78576040517f08c379a0000000000000000000000000000000000000000000000000000000008152600401610c6f90613523565b60405180910390fd5b600a54341115610cbd576040517f08c379a0000000000000000000000000000000000000000000000000000000008152600401610cb49061358f565b60405180910390fd5b600c54600d60003373ffffffffffffffffffffffffffffffffffffffff1673ffffffffffffffffffffffffffffffffffffffff1681526020019081526020016000205410610d40576040517f08c379a0000000000000000000000000000000000000000000000000000000008152600401610d3790613621565b60405180910390fd5b60003490506000600e6000815480929190610d5a90613670565b9190505590506000600f60008381526020019081526020016000209050338160000160006101000a81548173ffffffffffffffffffffffffffffffffffffffff021916908373ffffffffffffffffffffffffffffffffffffffff160217905550838160000160146101000a81548160ff02191690836001811115610de157610de0612d14565b5b021790555082816001018190555060018160040160016101000a81548160ff021916908315150217905550428160060181905550600d60003373ffffffffffffffffffffffffffffffffffffffff1673ffffffffffffffffffffffffffffffffffffffff1681526020019081526020016000206000815480929190610e6590613670565b919050555060006040518060c0016040528060065481526020016005548152602001600361ffff168152602001600760009054906101000a900463ffffffff1663ffffffff168152602001600163ffffffff16815260200160405180602001604052806000815250815250905060007f000000000000000000000000000000000000000000000000000000000000000073ffffffffffffffffffffffffffffffffffffffff16639b1c385e836040518263ffffffff1660e01b8152600401610f2d919061381b565b6020604051808303816000875af1158015610f4c573d6000803e3d6000fd5b505050506040513d601f19601f82011682018060405250810190610f709190613852565b9050808360050181905550836010600083815260200190815260200160002081905550803373ffffffffffffffffffffffffffffffffffffffff16857ff997d823f48f374dcf320abcfb4c14d035a288d7cc3e31d98a18d02b41bc56f78989604051610fdd92919061387f565b60405180910390a45050505050610ff2612a33565b50565b600760049054906101000a900473ffffffffffffffffffffffffffffffffffffffff1673ffffffffffffffffffffffffffffffffffffffff163373ffffffffffffffffffffffffffffffffffffffff1614611085576040517f08c379a000000000000000000000000000000000000000000000000000000000815260040161107c906132a9565b60405180910390fd5b61108d6129ed565b6000600f600083815260200190815260200160002090508060040160019054906101000a900460ff166110f5576040517f08c379a00000000000000000000000000000000000000000000000000000000081526004016110ec906138f4565b60405180910390fd5b8060040160029054906101000a900460ff1615611147576040517f08c379a000000000000000000000000000000000000000000000000000000000815260040161113e90613960565b60405180910390fd5b610e1081600601546111599190613980565b42101561119b576040517f08c379a000000000000000000000000000000000000000000000000000000000815260040161119290613a26565b60405180910390fd5b60008160000160009054906101000a900473ffffffffffffffffffffffffffffffffffffffff16905060008260010154905060018360040160026101000a81548160ff02191690831515021790555060008360040160016101000a81548160ff0219169083151502179055506000600d60008473ffffffffffffffffffffffffffffffffffffffff1673ffffffffffffffffffffffffffffffffffffffff1681526020019081526020016000205411156112a557600d60008373ffffffffffffffffffffffffffffffffffffffff1673ffffffffffffffffffffffffffffffffffffffff168152602001908152602001600020600081548092919061129f90613a46565b91905055505b60008273ffffffffffffffffffffffffffffffffffffffff16826040516112cb90613aa0565b60006040518083038185875af1925050503d8060008114611308576040519150601f19603f3d011682016040523d82523d6000602084013e61130d565b606091505b5050905080611351576040517f08c379a000000000000000000000000000000000000000000000000000000000815260040161134890613b01565b60405180910390fd5b8273ffffffffffffffffffffffffffffffffffffffff16857fbd634c7bdf536d4ef89dad94ea8933d03e5fbb8be4f85fc7699f5859497d793f846040516113989190612e51565b60405180910390a3505050506113ac612a33565b50565b600c5481565b600360009054906101000a900473ffffffffffffffffffffffffffffffffffffffff1673ffffffffffffffffffffffffffffffffffffffff163373ffffffffffffffffffffffffffffffffffffffff1614611445576040517f08c379a000000000000000000000000000000000000000000000000000000000815260040161143c90613b6d565b60405180910390fd5b6000600260009054906101000a900473ffffffffffffffffffffffffffffffffffffffff16905033600260006101000a81548173ffffffffffffffffffffffffffffffffffffffff021916908373ffffffffffffffffffffffffffffffffffffffff1602179055506000600360006101000a81548173ffffffffffffffffffffffffffffffffffffffff021916908373ffffffffffffffffffffffffffffffffffffffff1602179055503373ffffffffffffffffffffffffffffffffffffffff168173ffffffffffffffffffffffffffffffffffffffff167f8be0079c531659141344cd1fd0a4f28419497f9722a3daafe3b4186f6b6457e060405160405180910390a350565b610e1081565b600760049054906101000a900473ffffffffffffffffffffffffffffffffffffffff1673ffffffffffffffffffffffffffffffffffffffff163373ffffffffffffffffffffffffffffffffffffffff16146115e2576040517f08c379a00000000000000000000000000000000000000000000000000000000081526004016115d9906132a9565b60405180910390fd5b6115ea6129ac565b6115f2612a3c565b565b6000600260009054906101000a900473ffffffffffffffffffffffffffffffffffffffff16905090565b6116266115f4565b73ffffffffffffffffffffffffffffffffffffffff163373ffffffffffffffffffffffffffffffffffffffff16141580156116af5750600460009054906101000a900473ffffffffffffffffffffffffffffffffffffffff1673ffffffffffffffffffffffffffffffffffffffff163373ffffffffffffffffffffffffffffffffffffffff1614155b1561171e57336116bd6115f4565b600460009054906101000a900473ffffffffffffffffffffffffffffffffffffffff166040517f061db9c100000000000000000000000000000000000000000000000000000000815260040161171593929190613b8d565b60405180910390fd5b600073ffffffffffffffffffffffffffffffffffffffff168173ffffffffffffffffffffffffffffffffffffffff1603611784576040517fd92e233d00000000000000000000000000000000000000000000000000000000815260040160405180910390fd5b80600460006101000a81548173ffffffffffffffffffffffffffffffffffffffff021916908373ffffffffffffffffffffffffffffffffffffffff1602179055507fd1a6a14209a385a964d036e404cb5cfb71f4000cdb03c9366292430787261be6816040516117f49190613063565b60405180910390a150565b600760049054906101000a900473ffffffffffffffffffffffffffffffffffffffff1673ffffffffffffffffffffffffffffffffffffffff163373ffffffffffffffffffffffffffffffffffffffff161461188f576040517f08c379a0000000000000000000000000000000000000000000000000000000008152600401611886906132a9565b60405180910390fd5b600073ffffffffffffffffffffffffffffffffffffffff168173ffffffffffffffffffffffffffffffffffffffff16036118fe576040517f08c379a00000000000000000000000000000000000000000000000000000000081526004016118f590613c36565b60405180910390fd5b80600860006101000a81548173ffffffffffffffffffffffffffffffffffffffff021916908373ffffffffffffffffffffffffffffffffffffffff1602179055508073ffffffffffffffffffffffffffffffffffffffff167f29acee77dafcfa0143d74a7ea236018f3a6e1fa71e27fc59bbfbc6b8ca8edccd60405160405180910390a250565b600760049054906101000a900473ffffffffffffffffffffffffffffffffffffffff1673ffffffffffffffffffffffffffffffffffffffff163373ffffffffffffffffffffffffffffffffffffffff1614611a15576040517f08c379a0000000000000000000000000000000000000000000000000000000008152600401611a0c906132a9565b60405180910390fd5b60008111611a58576040517f08c379a0000000000000000000000000000000000000000000000000000000008152600401611a4f90613ca2565b60405180910390fd5b80600a541015611a9d576040517f08c379a0000000000000000000000000000000000000000000000000000000008152600401611a9490613d34565b60405180910390fd5b80600b819055507f6802a03dd8e2f6a4dc2ab8cf753936dc2aeced88bcd60edfa3d49faba6bc1ade81604051611ad39190612e51565b60405180910390a150565b600460009054906101000a900473ffffffffffffffffffffffffffffffffffffffff1681565b60095481565b600a5481565b600760049054906101000a900473ffffffffffffffffffffffffffffffffffffffff1673ffffffffffffffffffffffffffffffffffffffff163373ffffffffffffffffffffffffffffffffffffffff1614611ba0576040517f08c379a0000000000000000000000000000000000000000000000000000000008152600401611b97906132a9565b60405180910390fd5b600073ffffffffffffffffffffffffffffffffffffffff168173ffffffffffffffffffffffffffffffffffffffff1603611c0f576040517f08c379a0000000000000000000000000000000000000000000000000000000008152600401611c0690613dc6565b60405180910390fd5b6000600760049054906101000a900473ffffffffffffffffffffffffffffffffffffffff16905081600760046101000a81548173ffffffffffffffffffffffffffffffffffffffff021916908373ffffffffffffffffffffffffffffffffffffffff1602179055508173ffffffffffffffffffffffffffffffffffffffff168173ffffffffffffffffffffffffffffffffffffffff167f0384899bd253d83b23daa4d29aaa2efe0563d1132b43101e9ad667235aeb951b60405160405180910390a35050565b600760049054906101000a900473ffffffffffffffffffffffffffffffffffffffff1673ffffffffffffffffffffffffffffffffffffffff163373ffffffffffffffffffffffffffffffffffffffff1614611d65576040517f08c379a0000000000000000000000000000000000000000000000000000000008152600401611d5c906132a9565b60405180910390fd5b612710811115611daa576040517f08c379a0000000000000000000000000000000000000000000000000000000008152600401611da190613e58565b60405180910390fd5b806009819055507f74516f05eb4bd2461d57aa1e935ee553f86a3e02bfed7759f2f772915de3d9be81604051611de09190612e51565b60405180910390a150565b600b5481565b600760049054906101000a900473ffffffffffffffffffffffffffffffffffffffff1673ffffffffffffffffffffffffffffffffffffffff163373ffffffffffffffffffffffffffffffffffffffff1614611e81576040517f08c379a0000000000000000000000000000000000000000000000000000000008152600401611e78906132a9565b60405180910390fd5b600073ffffffffffffffffffffffffffffffffffffffff168273ffffffffffffffffffffffffffffffffffffffff1603611ef0576040517f08c379a0000000000000000000000000000000000000000000000000000000008152600401611ee790613ec4565b60405180910390fd5b600082905060008173ffffffffffffffffffffffffffffffffffffffff1663a9059cbb611f1b612163565b856040518363ffffffff1660e01b8152600401611f39929190613ee4565b6020604051808303816000875af1158015611f58573d6000803e3d6000fd5b505050506040513d601f19601f82011682018060405250810190611f7c9190613f39565b905080611fbe576040517f08c379a0000000000000000000000000000000000000000000000000000000008152600401611fb590613fb2565b60405180910390fd5b50505050565b600760049054906101000a900473ffffffffffffffffffffffffffffffffffffffff1673ffffffffffffffffffffffffffffffffffffffff163373ffffffffffffffffffffffffffffffffffffffff1614612054576040517f08c379a000000000000000000000000000000000000000000000000000000000815260040161204b906132a9565b60405180910390fd5b61205c6129ed565b6000479050600081116120a4576040517f08c379a000000000000000000000000000000000000000000000000000000000815260040161209b9061401e565b60405180910390fd5b60006120ae612163565b73ffffffffffffffffffffffffffffffffffffffff16826040516120d190613aa0565b60006040518083038185875af1925050503d806000811461210e576040519150601f19603f3d011682016040523d82523d6000602084013e612113565b606091505b5050905080612157576040517f08c379a000000000000000000000000000000000000000000000000000000000815260040161214e906140b0565b60405180910390fd5b5050612161612a33565b565b6000600760049054906101000a900473ffffffffffffffffffffffffffffffffffffffff16905090565b600d6020528060005260406000206000915090505481565b600760049054906101000a900473ffffffffffffffffffffffffffffffffffffffff1673ffffffffffffffffffffffffffffffffffffffff163373ffffffffffffffffffffffffffffffffffffffff1614612235576040517f08c379a000000000000000000000000000000000000000000000000000000000815260040161222c906132a9565b60405180910390fd5b600b5481101561227a576040517f08c379a000000000000000000000000000000000000000000000000000000000815260040161227190614142565b60405180910390fd5b80600a819055507f2842cf99332cf44653926376c4c0f5d0f91b749469ac9999bb1c6c9d728b1ba8816040516122b09190612e51565b60405180910390a150565b600080600f600084815260200190815260200160002090508060040160019054906101000a900460ff16801561230057508060040160029054906101000a900460ff16155b801561231d5750610e1081600601546123199190613980565b4210155b915050919050565b600860009054906101000a900473ffffffffffffffffffffffffffffffffffffffff1681565b612353612a9e565b61235c81612b30565b50565b6000601060008581526020019081526020016000205490506000600f6000838152602001908152602001600020905084827f720b522b8e74026e68a96b8bffa25a22f6710cddecf55c275acd7f88c4a3a8e4868660008181106123c5576123c4614162565b5b905060200201356040516123d99190612e51565b60405180910390a38060040160019054906101000a900460ff16612432576040517f08c379a0000000000000000000000000000000000000000000000000000000008152600401612429906138f4565b60405180910390fd5b8060040160029054906101000a900460ff1615612484576040517f08c379a000000000000000000000000000000000000000000000000000000000815260040161247b90613960565b60405180910390fd5b60008160040160016101000a81548160ff02191690831515021790555060006002858560008181106124b9576124b8614162565b5b905060200201356124ca91906141c0565b146124d65760016124d9565b60005b8160040160006101000a81548160ff021916908360018111156124ff576124fe612d14565b5b021790555060008160010154905060008260000160149054906101000a900460ff16600181111561253357612532612d14565b5b8360040160009054906101000a900460ff16600181111561255757612556612d14565b5b14905060008360000160009054906101000a900473ffffffffffffffffffffffffffffffffffffffff16905060018460040160026101000a81548160ff0219169083151502179055506000600d60008373ffffffffffffffffffffffffffffffffffffffff1673ffffffffffffffffffffffffffffffffffffffff16815260200190815260200160002054111561263e57600d60008273ffffffffffffffffffffffffffffffffffffffff1673ffffffffffffffffffffffffffffffffffffffff168152602001908152602001600020600081548092919061263890613a46565b91905055505b811561287c5760006127106009548561265791906141f1565b6126619190614233565b9050808560020181905550600060028561267b91906141f1565b90506000828261268b9190614264565b905080876003018190555082816126a29190613980565b4710156126e4576040517f08c379a00000000000000000000000000000000000000000000000000000000081526004016126db9061430a565b60405180910390fd5b600081111561279b5760008473ffffffffffffffffffffffffffffffffffffffff168260405161271390613aa0565b60006040518083038185875af1925050503d8060008114612750576040519150601f19603f3d011682016040523d82523d6000602084013e612755565b606091505b5050905080612799576040517f08c379a000000000000000000000000000000000000000000000000000000000815260040161279090614376565b60405180910390fd5b505b6000831115612874576000600860009054906101000a900473ffffffffffffffffffffffffffffffffffffffff1673ffffffffffffffffffffffffffffffffffffffff16846040516127ec90613aa0565b60006040518083038185875af1925050503d8060008114612829576040519150601f19603f3d011682016040523d82523d6000602084013e61282e565b606091505b5050905080612872576040517f08c379a0000000000000000000000000000000000000000000000000000000008152600401612869906143e2565b60405180910390fd5b505b505050612891565b60008460030181905550600084600201819055505b878173ffffffffffffffffffffffffffffffffffffffff16867fb9b0d56d8b79fead8cfe0b73d900409c9b889face7f95238017408f22d1d2c978760040160009054906101000a900460ff1688600301548960020154886040516128f89493929190614402565b60405180910390a45050505050505050565b612912610c0d565b612948576040517f8dfc202b00000000000000000000000000000000000000000000000000000000815260040160405180910390fd5b565b61295261290a565b60008060006101000a81548160ff0219169083151502179055507f5db9ee0a495bf2e6ff9c91a7834c1ba4fdd244a5e8aa4e537bd38aeae4b073aa612995612c5e565b6040516129a29190613063565b60405180910390a1565b6129b4610c0d565b156129eb576040517fd93c066500000000000000000000000000000000000000000000000000000000815260040160405180910390fd5b565b600260015403612a29576040517f3ee5aeb500000000000000000000000000000000000000000000000000000000815260040160405180910390fd5b6002600181905550565b60018081905550565b612a446129ac565b60016000806101000a81548160ff0219169083151502179055507f62e78cea01bee320cd4e420270b5ea74000d11b0c9f74754ebdbfc544b05a258612a87612c5e565b604051612a949190613063565b60405180910390a1565b600260009054906101000a900473ffffffffffffffffffffffffffffffffffffffff1673ffffffffffffffffffffffffffffffffffffffff163373ffffffffffffffffffffffffffffffffffffffff1614612b2e576040517f08c379a0000000000000000000000000000000000000000000000000000000008152600401612b2590614493565b60405180910390fd5b565b3373ffffffffffffffffffffffffffffffffffffffff168173ffffffffffffffffffffffffffffffffffffffff1603612b9e576040517f08c379a0000000000000000000000000000000000000000000000000000000008152600401612b95906144ff565b60405180910390fd5b80600360006101000a81548173ffffffffffffffffffffffffffffffffffffffff021916908373ffffffffffffffffffffffffffffffffffffffff1602179055508073ffffffffffffffffffffffffffffffffffffffff16600260009054906101000a900473ffffffffffffffffffffffffffffffffffffffff1673ffffffffffffffffffffffffffffffffffffffff167fed8889f560326eb138920d842192f0eb3dd22b4f139c87a2c57538e05bae127860405160405180910390a350565b600033905090565b600080fd5b600080fd5b6000819050919050565b612c8381612c70565b8114612c8e57600080fd5b50565b600081359050612ca081612c7a565b92915050565b600060208284031215612cbc57612cbb612c66565b5b6000612cca84828501612c91565b91505092915050565b600073ffffffffffffffffffffffffffffffffffffffff82169050919050565b6000612cfe82612cd3565b9050919050565b612d0e81612cf3565b82525050565b7f4e487b7100000000000000000000000000000000000000000000000000000000600052602160045260246000fd5b60028110612d5457612d53612d14565b5b50565b6000819050612d6582612d43565b919050565b6000612d7582612d57565b9050919050565b612d8581612d6a565b82525050565b612d9481612c70565b82525050565b60008115159050919050565b612daf81612d9a565b82525050565b600061014082019050612dcb600083018d612d05565b612dd8602083018c612d7c565b612de5604083018b612d8b565b612df2606083018a612d8b565b612dff6080830189612d8b565b612e0c60a0830188612d7c565b612e1960c0830187612da6565b612e2660e0830186612da6565b612e34610100830185612d8b565b612e42610120830184612d8b565b9b9a5050505050505050505050565b6000602082019050612e666000830184612d8b565b92915050565b600080fd5b600080fd5b600080fd5b60008083601f840112612e9157612e90612e6c565b5b8235905067ffffffffffffffff811115612eae57612ead612e71565b5b602083019150836020820283011115612eca57612ec9612e76565b5b9250929050565b600080600060408486031215612eea57612ee9612c66565b5b6000612ef886828701612c91565b935050602084013567ffffffffffffffff811115612f1957612f18612c6b565b5b612f2586828701612e7b565b92509250509250925092565b6000819050919050565b612f4481612f31565b8114612f4f57600080fd5b50565b600081359050612f6181612f3b565b92915050565b600063ffffffff82169050919050565b612f8081612f67565b8114612f8b57600080fd5b50565b600081359050612f9d81612f77565b92915050565b600080600060608486031215612fbc57612fbb612c66565b5b6000612fca86828701612c91565b9350506020612fdb86828701612f52565b9250506040612fec86828701612f8e565b9150509250925092565b600060208201905061300b6000830184612da6565b92915050565b6002811061301e57600080fd5b50565b60008135905061303081613011565b92915050565b60006020828403121561304c5761304b612c66565b5b600061305a84828501613021565b91505092915050565b60006020820190506130786000830184612d05565b92915050565b61308781612cf3565b811461309257600080fd5b50565b6000813590506130a48161307e565b92915050565b6000602082840312156130c0576130bf612c66565b5b60006130ce84828501613095565b91505092915050565b60006130e282612cd3565b9050919050565b6130f2816130d7565b81146130fd57600080fd5b50565b60008135905061310f816130e9565b92915050565b60006020828403121561312b5761312a612c66565b5b600061313984828501613100565b91505092915050565b6000819050919050565b600061316761316261315d84612cd3565b613142565b612cd3565b9050919050565b60006131798261314c565b9050919050565b600061318b8261316e565b9050919050565b61319b81613180565b82525050565b60006020820190506131b66000830184613192565b92915050565b600080604083850312156131d3576131d2612c66565b5b60006131e185828601613095565b92505060206131f285828601612c91565b9150509250929050565b613205816130d7565b82525050565b600060208201905061322060008301846131fc565b92915050565b600082825260208201905092915050565b7f466c6970536b69426173655652463a2063616c6c6572206973206e6f7420746860008201527f65206f776e657200000000000000000000000000000000000000000000000000602082015250565b6000613293602783613226565b915061329e82613237565b604082019050919050565b600060208201905081810360008301526132c281613286565b9050919050565b7f4d61782070656e64696e672067616d6573206d7573742062652067726561746560008201527f72207468616e2030000000000000000000000000000000000000000000000000602082015250565b6000613325602883613226565b9150613330826132c9565b604082019050919050565b6000602082019050818103600083015261335481613318565b9050919050565b60006040820190506133706000830185612d05565b61337d6020830184612d05565b9392505050565b7f537562736372697074696f6e2049442063616e6e6f74206265207a65726f0000600082015250565b60006133ba601e83613226565b91506133c582613384565b602082019050919050565b600060208201905081810360008301526133e9816133ad565b9050919050565b7f43616c6c6261636b20676173206c696d6974206d75737420626520677265617460008201527f6572207468616e20300000000000000000000000000000000000000000000000602082015250565b600061344c602983613226565b9150613457826133f0565b604082019050919050565b6000602082019050818103600083015261347b8161343f565b9050919050565b61348b81612f31565b82525050565b61349a81612f67565b82525050565b60006060820190506134b56000830186612d8b565b6134c26020830185613482565b6134cf6040830184613491565b949350505050565b7f57616765722069732062656c6f77206d696e696d756d206c696d697400000000600082015250565b600061350d601c83613226565b9150613518826134d7565b602082019050919050565b6000602082019050818103600083015261353c81613500565b9050919050565b7f57616765722069732061626f7665206d6178696d756d206c696d697400000000600082015250565b6000613579601c83613226565b915061358482613543565b602082019050919050565b600060208201905081810360008301526135a88161356c565b9050919050565b7f546f6f206d616e792070656e64696e672067616d657320666f7220746869732060008201527f706c617965720000000000000000000000000000000000000000000000000000602082015250565b600061360b602683613226565b9150613616826135af565b604082019050919050565b6000602082019050818103600083015261363a816135fe565b9050919050565b7f4e487b7100000000000000000000000000000000000000000000000000000000600052601160045260246000fd5b600061367b82612c70565b91507fffffffffffffffffffffffffffffffffffffffffffffffffffffffffffffffff82036136ad576136ac613641565b5b600182019050919050565b6136c181612f31565b82525050565b6136d081612c70565b82525050565b600061ffff82169050919050565b6136ed816136d6565b82525050565b6136fc81612f67565b82525050565b600081519050919050565b600082825260208201905092915050565b60005b8381101561373c578082015181840152602081019050613721565b60008484015250505050565b6000601f19601f8301169050919050565b600061376482613702565b61376e818561370d565b935061377e81856020860161371e565b61378781613748565b840191505092915050565b600060c0830160008301516137aa60008601826136b8565b5060208301516137bd60208601826136c7565b5060408301516137d060408601826136e4565b5060608301516137e360608601826136f3565b5060808301516137f660808601826136f3565b5060a083015184820360a086015261380e8282613759565b9150508091505092915050565b600060208201905081810360008301526138358184613792565b905092915050565b60008151905061384c81612c7a565b92915050565b60006020828403121561386857613867612c66565b5b60006138768482850161383d565b91505092915050565b60006040820190506138946000830185612d7c565b6138a16020830184612d8b565b9392505050565b7f47616d65206e6f7420696e207265717565737465642073746174650000000000600082015250565b60006138de601b83613226565b91506138e9826138a8565b602082019050919050565b6000602082019050818103600083015261390d816138d1565b9050919050565b7f47616d6520616c726561647920736574746c6564000000000000000000000000600082015250565b600061394a601483613226565b915061395582613914565b602082019050919050565b600060208201905081810360008301526139798161393d565b9050919050565b600061398b82612c70565b915061399683612c70565b92508282019050808211156139ae576139ad613641565b5b92915050565b7f456d657267656e63792074696d656f757420706572696f64206e6f7420656c6160008201527f7073656400000000000000000000000000000000000000000000000000000000602082015250565b6000613a10602483613226565b9150613a1b826139b4565b604082019050919050565b60006020820190508181036000830152613a3f81613a03565b9050919050565b6000613a5182612c70565b915060008203613a6457613a63613641565b5b600182039050919050565b600081905092915050565b50565b6000613a8a600083613a6f565b9150613a9582613a7a565b600082019050919050565b6000613aab82613a7d565b9150819050919050565b7f456d657267656e637920726566756e64207472616e73666572206661696c6564600082015250565b6000613aeb602083613226565b9150613af682613ab5565b602082019050919050565b60006020820190508181036000830152613b1a81613ade565b9050919050565b7f4d7573742062652070726f706f736564206f776e657200000000000000000000600082015250565b6000613b57601683613226565b9150613b6282613b21565b602082019050919050565b60006020820190508181036000830152613b8681613b4a565b9050919050565b6000606082019050613ba26000830186612d05565b613baf6020830185612d05565b613bbc6040830184612d05565b949350505050565b7f4e6577206665652077616c6c65742063616e6e6f74206265207a65726f20616460008201527f6472657373000000000000000000000000000000000000000000000000000000602082015250565b6000613c20602583613226565b9150613c2b82613bc4565b604082019050919050565b60006020820190508181036000830152613c4f81613c13565b9050919050565b7f4d696e207761676572206d7573742062652067726561746572207468616e2030600082015250565b6000613c8c602083613226565b9150613c9782613c56565b602082019050919050565b60006020820190508181036000830152613cbb81613c7f565b9050919050565b7f4d6178207761676572206d7573742062652067726561746572207468616e206f60008201527f7220657175616c20746f206e6577206d696e2077616765720000000000000000602082015250565b6000613d1e603883613226565b9150613d2982613cc2565b604082019050919050565b60006020820190508181036000830152613d4d81613d11565b9050919050565b7f466c6970536b69426173655652463a206e6577206f776e65722069732074686560008201527f207a65726f206164647265737300000000000000000000000000000000000000602082015250565b6000613db0602d83613226565b9150613dbb82613d54565b604082019050919050565b60006020820190508181036000830152613ddf81613da3565b9050919050565b7f4665652070657263656e746167652063616e6e6f74206578636565642031303060008201527f303020626173697320706f696e74732028313030252900000000000000000000602082015250565b6000613e42603683613226565b9150613e4d82613de6565b604082019050919050565b60006020820190508181036000830152613e7181613e35565b9050919050565b7f546f6b656e20616464726573732063616e6e6f74206265207a65726f00000000600082015250565b6000613eae601c83613226565b9150613eb982613e78565b602082019050919050565b60006020820190508181036000830152613edd81613ea1565b9050919050565b6000604082019050613ef96000830185612d05565b613f066020830184612d8b565b9392505050565b613f1681612d9a565b8114613f2157600080fd5b50565b600081519050613f3381613f0d565b92915050565b600060208284031215613f4f57613f4e612c66565b5b6000613f5d84828501613f24565b91505092915050565b7f455243323020746f6b656e207769746864726177616c206661696c6564000000600082015250565b6000613f9c601d83613226565b9150613fa782613f66565b602082019050919050565b60006020820190508181036000830152613fcb81613f8f565b9050919050565b7f4e6f2062616c616e636520746f20776974686472617700000000000000000000600082015250565b6000614008601683613226565b915061401382613fd2565b602082019050919050565b6000602082019050818103600083015261403781613ffb565b9050919050565b7f436f6e7472616374204554482062616c616e6365207769746864726177616c2060008201527f6661696c65640000000000000000000000000000000000000000000000000000602082015250565b600061409a602683613226565b91506140a58261403e565b604082019050919050565b600060208201905081810360008301526140c98161408d565b9050919050565b7f4d6178207761676572206d7573742062652067726561746572207468616e206f60008201527f7220657175616c20746f206d696e207761676572000000000000000000000000602082015250565b600061412c603483613226565b9150614137826140d0565b604082019050919050565b6000602082019050818103600083015261415b8161411f565b9050919050565b7f4e487b7100000000000000000000000000000000000000000000000000000000600052603260045260246000fd5b7f4e487b7100000000000000000000000000000000000000000000000000000000600052601260045260246000fd5b60006141cb82612c70565b91506141d683612c70565b9250826141e6576141e5614191565b5b828206905092915050565b60006141fc82612c70565b915061420783612c70565b925082820261421581612c70565b9150828204841483151761422c5761422b613641565b5b5092915050565b600061423e82612c70565b915061424983612c70565b92508261425957614258614191565b5b828204905092915050565b600061426f82612c70565b915061427a83612c70565b925082820390508181111561429257614291613641565b5b92915050565b7f436f6e74726163742068617320696e73756666696369656e742062616c616e6360008201527f6520666f722077696e207061796f757420616e64206665650000000000000000602082015250565b60006142f4603883613226565b91506142ff82614298565b604082019050919050565b60006020820190508181036000830152614323816142e7565b9050919050565b7f506c61796572207061796f7574207472616e73666572206661696c6564000000600082015250565b6000614360601d83613226565b915061436b8261432a565b602082019050919050565b6000602082019050818103600083015261438f81614353565b9050919050565b7f466565207472616e7366657220746f2066656557616c6c6574206661696c6564600082015250565b60006143cc602083613226565b91506143d782614396565b602082019050919050565b600060208201905081810360008301526143fb816143bf565b9050919050565b60006080820190506144176000830187612d7c565b6144246020830186612d8b565b6144316040830185612d8b565b61443e6060830184612da6565b95945050505050565b7f4f6e6c792063616c6c61626c65206279206f776e657200000000000000000000600082015250565b600061447d601683613226565b915061448882614447565b602082019050919050565b600060208201905081810360008301526144ac81614470565b9050919050565b7f43616e6e6f74207472616e7366657220746f2073656c66000000000000000000600082015250565b60006144e9601783613226565b91506144f4826144b3565b602082019050919050565b60006020820190508181036000830152614518816144dc565b905091905056fea26469706673582212203ccf225441ea8d4cf443a4b2e2bc7944a84a14198fdeebf4e79d06f8385a8d1264736f6c63430008180033",
  "linkReferences": {},
  "deployedLinkReferences": {}
}