{
  "_format": "hh-sol-artifact-1",
  "contractName": "FlipSkiBaseVRF",
  "sourceName": "contracts/FlipSkiBaseVRF.sol",
  "abi": [
    {
      "inputs": [
        {
          "internalType": "address payable",
          "name": "_initialFeeWallet",
          "type": "address"
        },
        {
          "internalType": "uint256",
          "name": "_initialFeePercentage",
          "type": "uint256"
        },
        {
          "internalType": "uint256",
          "name": "_initialMaxWager",
          "type": "uint256"
        },
        {
          "internalType": "uint256",
          "name": "_initialMinWager",
          "type": "uint256"
        },
        {
          "internalType": "address",
          "name": "_vrfCoordinator",
          "type": "address"
        },
        {
          "internalType": "uint256",
          "name": "_subscriptionId",
          "type": "uint256"
        },
        {
          "internalType": "bytes32",
          "name": "_keyHash",
          "type": "bytes32"
        }
      ],
      "stateMutability": "nonpayable",
      "type": "constructor"
    },
    {
      "inputs": [],
      "name": "EnforcedPause",
      "type": "error"
    },
    {
      "inputs": [],
      "name": "ExpectedPause",
      "type": "error"
    },
    {
      "inputs": [
        {
          "internalType": "address",
          "name": "have",
          "type": "address"
        },
        {
          "internalType": "address",
          "name": "want",
          "type": "address"
        }
      ],
      "name": "OnlyCoordinatorCanFulfill",
      "type": "error"
    },
    {
      "inputs": [
        {
          "internalType": "address",
          "name": "have",
          "type": "address"
        },
        {
          "internalType": "address",
          "name": "owner",
          "type": "address"
        },
        {
          "internalType": "address",
          "name": "coordinator",
          "type": "address"
        }
      ],
      "name": "OnlyOwnerOrCoordinator",
      "type": "error"
    },
    {
      "inputs": [],
      "name": "ReentrancyGuardReentrantCall",
      "type": "error"
    },
    {
      "inputs": [],
      "name": "ZeroAddress",
      "type": "error"
    },
    {
      "anonymous": false,
      "inputs": [
        {
          "indexed": false,
          "internalType": "address",
          "name": "vrfCoordinator",
          "type": "address"
        }
      ],
      "name": "CoordinatorSet",
      "type": "event"
    },
    {
      "anonymous": false,
      "inputs": [
        {
          "indexed": false,
          "internalType": "uint256",
          "name": "newFeePercentage",
          "type": "uint256"
        }
      ],
      "name": "FeePercentageUpdated",
      "type": "event"
    },
    {
      "anonymous": false,
      "inputs": [
        {
          "indexed": true,
          "internalType": "address",
          "name": "newFeeWallet",
          "type": "address"
        }
      ],
      "name": "FeeWalletUpdated",
      "type": "event"
    },
    {
      "anonymous": false,
      "inputs": [
        {
          "indexed": true,
          "internalType": "uint256",
          "name": "gameId",
          "type": "uint256"
        },
        {
          "indexed": true,
          "internalType": "address",
          "name": "player",
          "type": "address"
        },
        {
          "indexed": false,
          "internalType": "enum FlipSkiBaseVRF.CoinSide",
          "name": "choice",
          "type": "uint8"
        },
        {
          "indexed": false,
          "internalType": "uint256",
          "name": "wagerAmount",
          "type": "uint256"
        },
        {
          "indexed": true,
          "internalType": "uint256",
          "name": "vrfRequestId",
          "type": "uint256"
        }
      ],
      "name": "GameRequested",
      "type": "event"
    },
    {
      "anonymous": false,
      "inputs": [
        {
          "indexed": true,
          "internalType": "uint256",
          "name": "gameId",
          "type": "uint256"
        },
        {
          "indexed": true,
          "internalType": "address",
          "name": "player",
          "type": "address"
        },
        {
          "indexed": false,
          "internalType": "enum FlipSkiBaseVRF.CoinSide",
          "name": "result",
          "type": "uint8"
        },
        {
          "indexed": false,
          "internalType": "uint256",
          "name": "payoutAmount",
          "type": "uint256"
        },
        {
          "indexed": false,
          "internalType": "uint256",
          "name": "feeAmount",
          "type": "uint256"
        },
        {
          "indexed": true,
          "internalType": "uint256",
          "name": "vrfRequestId",
          "type": "uint256"
        },
        {
          "indexed": false,
          "internalType": "bool",
          "name": "playerWon",
          "type": "bool"
        }
      ],
      "name": "GameSettled",
      "type": "event"
    },
    {
      "anonymous": false,
      "inputs": [
        {
          "indexed": false,
          "internalType": "uint256",
          "name": "newMaxWager",
          "type": "uint256"
        }
      ],
      "name": "MaxWagerUpdated",
      "type": "event"
    },
    {
      "anonymous": false,
      "inputs": [
        {
          "indexed": false,
          "internalType": "uint256",
          "name": "newMinWager",
          "type": "uint256"
        }
      ],
      "name": "MinWagerUpdated",
      "type": "event"
    },
    {
      "anonymous": false,
      "inputs": [
        {
          "indexed": true,
          "internalType": "address",
          "name": "from",
          "type": "address"
        },
        {
          "indexed": true,
          "internalType": "address",
          "name": "to",
          "type": "address"
        }
      ],
      "name": "OwnershipTransferRequested",
      "type": "event"
    },
    {
      "anonymous": false,
      "inputs": [
        {
          "indexed": true,
          "internalType": "address",
          "name": "from",
          "type": "address"
        },
        {
          "indexed": true,
          "internalType": "address",
          "name": "to",
          "type": "address"
        }
      ],
      "name": "OwnershipTransferred",
      "type": "event"
    },
    {
      "anonymous": false,
      "inputs": [
        {
          "indexed": false,
          "internalType": "address",
          "name": "account",
          "type": "address"
        }
      ],
      "name": "Paused",
      "type": "event"
    },
    {
      "anonymous": false,
      "inputs": [
        {
          "indexed": true,
          "internalType": "uint256",
          "name": "gameId",
          "type": "uint256"
        },
        {
          "indexed": true,
          "internalType": "uint256",
          "name": "vrfRequestId",
          "type": "uint256"
        },
        {
          "indexed": false,
          "internalType": "uint256",
          "name": "randomWord",
          "type": "uint256"
        }
      ],
      "name": "RandomWordReceived",
      "type": "event"
    },
    {
      "anonymous": false,
      "inputs": [
        {
          "indexed": false,
          "internalType": "address",
          "name": "account",
          "type": "address"
        }
      ],
      "name": "Unpaused",
      "type": "event"
    },
    {
      "anonymous": false,
      "inputs": [
        {
          "indexed": false,
          "internalType": "uint256",
          "name": "newSubscriptionId",
          "type": "uint256"
        },
        {
          "indexed": false,
          "internalType": "bytes32",
          "name": "newKeyHash",
          "type": "bytes32"
        },
        {
          "indexed": false,
          "internalType": "uint32",
          "name": "newCallbackGasLimit",
          "type": "uint32"
        }
      ],
      "name": "VRFParametersUpdated",
      "type": "event"
    },
    {
      "stateMutability": "payable",
      "type": "fallback"
    },
    {
      "inputs": [],
      "name": "acceptOwnership",
      "outputs": [],
      "stateMutability": "nonpayable",
      "type": "function"
    },
    {
      "inputs": [],
      "name": "feePercentage",
      "outputs": [
        {
          "internalType": "uint256",
          "name": "",
          "type": "uint256"
        }
      ],
      "stateMutability": "view",
      "type": "function"
    },
    {
      "inputs": [],
      "name": "feeWallet",
      "outputs": [
        {
          "internalType": "address payable",
          "name": "",
          "type": "address"
        }
      ],
      "stateMutability": "view",
      "type": "function"
    },
    {
      "inputs": [
        {
          "internalType": "enum FlipSkiBaseVRF.CoinSide",
          "name": "_choice",
          "type": "uint8"
        }
      ],
      "name": "flip",
      "outputs": [],
      "stateMutability": "payable",
      "type": "function"
    },
    {
      "inputs": [],
      "name": "gameIdCounter",
      "outputs": [
        {
          "internalType": "uint256",
          "name": "",
          "type": "uint256"
        }
      ],
      "stateMutability": "view",
      "type": "function"
    },
    {
      "inputs": [
        {
          "internalType": "uint256",
          "name": "",
          "type": "uint256"
        }
      ],
      "name": "games",
      "outputs": [
        {
          "internalType": "address",
          "name": "player",
          "type": "address"
        },
        {
          "internalType": "enum FlipSkiBaseVRF.CoinSide",
          "name": "choice",
          "type": "uint8"
        },
        {
          "internalType": "uint256",
          "name": "wagerAmount",
          "type": "uint256"
        },
        {
          "internalType": "uint256",
          "name": "feeAmount",
          "type": "uint256"
        },
        {
          "internalType": "uint256",
          "name": "payoutAmount",
          "type": "uint256"
        },
        {
          "internalType": "enum FlipSkiBaseVRF.CoinSide",
          "name": "result",
          "type": "uint8"
        },
        {
          "internalType": "bool",
          "name": "requested",
          "type": "bool"
        },
        {
          "internalType": "bool",
          "name": "settled",
          "type": "bool"
        },
        {
          "internalType": "uint256",
          "name": "vrfRequestId",
          "type": "uint256"
        }
      ],
      "stateMutability": "view",
      "type": "function"
    },
    {
      "inputs": [],
      "name": "maxWager",
      "outputs": [
        {
          "internalType": "uint256",
          "name": "",
          "type": "uint256"
        }
      ],
      "stateMutability": "view",
      "type": "function"
    },
    {
      "inputs": [],
      "name": "minWager",
      "outputs": [
        {
          "internalType": "uint256",
          "name": "",
          "type": "uint256"
        }
      ],
      "stateMutability": "view",
      "type": "function"
    },
    {
      "inputs": [],
      "name": "owner",
      "outputs": [
        {
          "internalType": "address",
          "name": "",
          "type": "address"
        }
      ],
      "stateMutability": "view",
      "type": "function"
    },
    {
      "inputs": [],
      "name": "pause",
      "outputs": [],
      "stateMutability": "nonpayable",
      "type": "function"
    },
    {
      "inputs": [],
      "name": "paused",
      "outputs": [
        {
          "internalType": "bool",
          "name": "",
          "type": "bool"
        }
      ],
      "stateMutability": "view",
      "type": "function"
    },
    {
      "inputs": [
        {
          "internalType": "uint256",
          "name": "requestId",
          "type": "uint256"
        },
        {
          "internalType": "uint256[]",
          "name": "randomWords",
          "type": "uint256[]"
        }
      ],
      "name": "rawFulfillRandomWords",
      "outputs": [],
      "stateMutability": "nonpayable",
      "type": "function"
    },
    {
      "inputs": [],
      "name": "s_vrfCoordinator",
      "outputs": [
        {
          "internalType": "contract IVRFCoordinatorV2Plus",
          "name": "",
          "type": "address"
        }
      ],
      "stateMutability": "view",
      "type": "function"
    },
    {
      "inputs": [
        {
          "internalType": "address",
          "name": "_vrfCoordinator",
          "type": "address"
        }
      ],
      "name": "setCoordinator",
      "outputs": [],
      "stateMutability": "nonpayable",
      "type": "function"
    },
    {
      "inputs": [
        {
          "internalType": "uint256",
          "name": "_newFeePercentage",
          "type": "uint256"
        }
      ],
      "name": "setFeePercentage",
      "outputs": [],
      "stateMutability": "nonpayable",
      "type": "function"
    },
    {
      "inputs": [
        {
          "internalType": "address payable",
          "name": "_newFeeWallet",
          "type": "address"
        }
      ],
      "name": "setFeeWallet",
      "outputs": [],
      "stateMutability": "nonpayable",
      "type": "function"
    },
    {
      "inputs": [
        {
          "internalType": "uint256",
          "name": "_newMaxWager",
          "type": "uint256"
        }
      ],
      "name": "setMaxWager",
      "outputs": [],
      "stateMutability": "nonpayable",
      "type": "function"
    },
    {
      "inputs": [
        {
          "internalType": "uint256",
          "name": "_newMinWager",
          "type": "uint256"
        }
      ],
      "name": "setMinWager",
      "outputs": [],
      "stateMutability": "nonpayable",
      "type": "function"
    },
    {
      "inputs": [
        {
          "internalType": "uint256",
          "name": "_newSubscriptionId",
          "type": "uint256"
        },
        {
          "internalType": "bytes32",
          "name": "_newKeyHash",
          "type": "bytes32"
        },
        {
          "internalType": "uint32",
          "name": "_newCallbackGasLimit",
          "type": "uint32"
        }
      ],
      "name": "setVRFParameters",
      "outputs": [],
      "stateMutability": "nonpayable",
      "type": "function"
    },
    {
      "inputs": [
        {
          "internalType": "address",
          "name": "to",
          "type": "address"
        }
      ],
      "name": "transferOwnership",
      "outputs": [],
      "stateMutability": "nonpayable",
      "type": "function"
    },
    {
      "inputs": [],
      "name": "unpause",
      "outputs": [],
      "stateMutability": "nonpayable",
      "type": "function"
    },
    {
      "inputs": [
        {
          "internalType": "uint256",
          "name": "",
          "type": "uint256"
        }
      ],
      "name": "vrfRequestToGameId",
      "outputs": [
        {
          "internalType": "uint256",
          "name": "",
          "type": "uint256"
        }
      ],
      "stateMutability": "view",
      "type": "function"
    },
    {
      "inputs": [],
      "name": "withdrawContractBalance",
      "outputs": [],
      "stateMutability": "nonpayable",
      "type": "function"
    },
    {
      "inputs": [
        {
          "internalType": "address",
          "name": "_tokenAddress",
          "type": "address"
        },
        {
          "internalType": "uint256",
          "name": "_amount",
          "type": "uint256"
        }
      ],
      "name": "withdrawStuckTokens",
      "outputs": [],
      "stateMutability": "nonpayable",
      "type": "function"
    },
    {
      "stateMutability": "payable",
      "type": "receive"
    }
  ],
  "bytecode": "0x60a0604052620493e0600760006101000a81548163ffffffff021916908363ffffffff1602179055503480156200003557600080fd5b5060405162003f2338038062003f2383398181016040528101906200005b919062000706565b823380600060018081905550600073ffffffffffffffffffffffffffffffffffffffff168273ffffffffffffffffffffffffffffffffffffffff1603620000d9576040517f08c379a0000000000000000000000000000000000000000000000000000000008152600401620000d0906200081a565b60405180910390fd5b81600260006101000a81548173ffffffffffffffffffffffffffffffffffffffff021916908373ffffffffffffffffffffffffffffffffffffffff160217905550600073ffffffffffffffffffffffffffffffffffffffff168173ffffffffffffffffffffffffffffffffffffffff161462000161576200016081620004b060201b60201c565b5b505050600073ffffffffffffffffffffffffffffffffffffffff168173ffffffffffffffffffffffffffffffffffffffff1603620001cb576040517fd92e233d00000000000000000000000000000000000000000000000000000000815260040160405180910390fd5b80600460006101000a81548173ffffffffffffffffffffffffffffffffffffffff021916908373ffffffffffffffffffffffffffffffffffffffff16021790555050600073ffffffffffffffffffffffffffffffffffffffff168773ffffffffffffffffffffffffffffffffffffffff16036200027f576040517f08c379a00000000000000000000000000000000000000000000000000000000081526004016200027690620008b2565b60405180910390fd5b612710861115620002c7576040517f08c379a0000000000000000000000000000000000000000000000000000000008152600401620002be906200094a565b60405180910390fd5b600084116200030d576040517f08c379a00000000000000000000000000000000000000000000000000000000081526004016200030490620009bc565b60405180910390fd5b8385101562000353576040517f08c379a00000000000000000000000000000000000000000000000000000000081526004016200034a9062000a54565b60405180910390fd5b600073ffffffffffffffffffffffffffffffffffffffff168373ffffffffffffffffffffffffffffffffffffffff1603620003c5576040517f08c379a0000000000000000000000000000000000000000000000000000000008152600401620003bc9062000aec565b60405180910390fd5b600082036200040b576040517f08c379a0000000000000000000000000000000000000000000000000000000008152600401620004029062000b5e565b60405180910390fd5b86600760046101000a81548173ffffffffffffffffffffffffffffffffffffffff021916908373ffffffffffffffffffffffffffffffffffffffff160217905550856008819055508460098190555083600a819055508273ffffffffffffffffffffffffffffffffffffffff1660808173ffffffffffffffffffffffffffffffffffffffff168152505081600581905550806006819055505050505050505062000bf2565b3373ffffffffffffffffffffffffffffffffffffffff168173ffffffffffffffffffffffffffffffffffffffff160362000521576040517f08c379a0000000000000000000000000000000000000000000000000000000008152600401620005189062000bd0565b60405180910390fd5b80600360006101000a81548173ffffffffffffffffffffffffffffffffffffffff021916908373ffffffffffffffffffffffffffffffffffffffff1602179055508073ffffffffffffffffffffffffffffffffffffffff16600260009054906101000a900473ffffffffffffffffffffffffffffffffffffffff1673ffffffffffffffffffffffffffffffffffffffff167fed8889f560326eb138920d842192f0eb3dd22b4f139c87a2c57538e05bae127860405160405180910390a350565b600080fd5b600073ffffffffffffffffffffffffffffffffffffffff82169050919050565b60006200061382620005e6565b9050919050565b620006258162000606565b81146200063157600080fd5b50565b60008151905062000645816200061a565b92915050565b6000819050919050565b62000660816200064b565b81146200066c57600080fd5b50565b600081519050620006808162000655565b92915050565b60006200069382620005e6565b9050919050565b620006a58162000686565b8114620006b157600080fd5b50565b600081519050620006c5816200069a565b92915050565b6000819050919050565b620006e081620006cb565b8114620006ec57600080fd5b50565b6000815190506200070081620006d5565b92915050565b600080600080600080600060e0888a031215620007285762000727620005e1565b5b6000620007388a828b0162000634565b97505060206200074b8a828b016200066f565b96505060406200075e8a828b016200066f565b9550506060620007718a828b016200066f565b9450506080620007848a828b01620006b4565b93505060a0620007978a828b016200066f565b92505060c0620007aa8a828b01620006ef565b91505092959891949750929550565b600082825260208201905092915050565b7f43616e6e6f7420736574206f776e657220746f207a65726f0000000000000000600082015250565b600062000802601883620007b9565b91506200080f82620007ca565b602082019050919050565b600060208201905081810360008301526200083581620007f3565b9050919050565b7f4665652077616c6c65742063616e6e6f74206265207a65726f2061646472657360008201527f7300000000000000000000000000000000000000000000000000000000000000602082015250565b60006200089a602183620007b9565b9150620008a7826200083c565b604082019050919050565b60006020820190508181036000830152620008cd816200088b565b9050919050565b7f4665652070657263656e746167652063616e6e6f74206578636565642031303060008201527f303020626173697320706f696e74732028313030252900000000000000000000602082015250565b600062000932603683620007b9565b91506200093f82620008d4565b604082019050919050565b60006020820190508181036000830152620009658162000923565b9050919050565b7f4d696e207761676572206d7573742062652067726561746572207468616e2030600082015250565b6000620009a4602083620007b9565b9150620009b1826200096c565b602082019050919050565b60006020820190508181036000830152620009d78162000995565b9050919050565b7f4d6178207761676572206d7573742062652067726561746572207468616e206f60008201527f7220657175616c20746f206d696e207761676572000000000000000000000000602082015250565b600062000a3c603483620007b9565b915062000a4982620009de565b604082019050919050565b6000602082019050818103600083015262000a6f8162000a2d565b9050919050565b7f56524620436f6f7264696e61746f7220616464726573732063616e6e6f74206260008201527f65207a65726f0000000000000000000000000000000000000000000000000000602082015250565b600062000ad4602683620007b9565b915062000ae18262000a76565b604082019050919050565b6000602082019050818103600083015262000b078162000ac5565b9050919050565b7f537562736372697074696f6e2049442063616e6e6f74206265207a65726f0000600082015250565b600062000b46601e83620007b9565b915062000b538262000b0e565b602082019050919050565b6000602082019050818103600083015262000b798162000b37565b9050919050565b7f43616e6e6f74207472616e7366657220746f2073656c66000000000000000000600082015250565b600062000bb8601783620007b9565b915062000bc58262000b80565b602082019050919050565b6000602082019050818103600083015262000beb8162000ba9565b9050919050565b60805161331562000c0e60003960006109bc01526133156000f3fe60806040526004361061014f5760003560e01c806390d49b9d116100b6578063bb9c3f2b1161006f578063bb9c3f2b14610433578063bd61f0a61461045e578063bfab3db914610487578063d15b48b91461049e578063f25f4b56146104c7578063f2fde38b146104f257610156565b806390d49b9d146103375780639ae980a8146103605780639eccacf614610389578063a001ecdd146103b4578063a52ef3fa146103df578063ae06c1b71461040a57610156565b80635c975abb116101085780635c975abb1461026e578063638c06371461029957806379ba5097146102b55780638456cb59146102cc5780638da5cb5b146102e35780638ea981171461030e57610156565b8063117a5b90146101585780631bb412d61461019d5780631fe543e3146101c85780633f4ba83a146101f15780634228487c1461020857806344e493fa1461023157610156565b3661015657005b005b34801561016457600080fd5b5061017f600480360381019061017a9190611d52565b61051b565b60405161019499989796959493929190611e61565b60405180910390f35b3480156101a957600080fd5b506101b26105bd565b6040516101bf9190611eee565b60405180910390f35b3480156101d457600080fd5b506101ef60048036038101906101ea9190611f6e565b6105c3565b005b3480156101fd57600080fd5b50610206610689565b005b34801561021457600080fd5b5061022f600480360381019061022a9190612040565b6106a3565b005b34801561023d57600080fd5b5061025860048036038101906102539190611d52565b6107bc565b6040516102659190611eee565b60405180910390f35b34801561027a57600080fd5b506102836107d4565b6040516102909190612093565b60405180910390f35b6102b360048036038101906102ae91906120d3565b6107ea565b005b3480156102c157600080fd5b506102ca610adb565b005b3480156102d857600080fd5b506102e1610c72565b005b3480156102ef57600080fd5b506102f8610c8c565b6040516103059190612100565b60405180910390f35b34801561031a57600080fd5b5061033560048036038101906103309190612147565b610cb6565b005b34801561034357600080fd5b5061035e600480360381019061035991906121b2565b610e97565b005b34801561036c57600080fd5b5061038760048036038101906103829190611d52565b610f95565b005b34801561039557600080fd5b5061039e611066565b6040516103ab919061223e565b60405180910390f35b3480156103c057600080fd5b506103c961108c565b6040516103d69190611eee565b60405180910390f35b3480156103eb57600080fd5b506103f4611092565b6040516104019190611eee565b60405180910390f35b34801561041657600080fd5b50610431600480360381019061042c9190611d52565b611098565b005b34801561043f57600080fd5b50610448611126565b6040516104559190611eee565b60405180910390f35b34801561046a57600080fd5b5061048560048036038101906104809190612259565b61112c565b005b34801561049357600080fd5b5061049c611277565b005b3480156104aa57600080fd5b506104c560048036038101906104c09190611d52565b61138e565b005b3480156104d357600080fd5b506104dc61141c565b6040516104e991906122a8565b60405180910390f35b3480156104fe57600080fd5b5061051960048036038101906105149190612147565b611442565b005b600c6020528060005260406000206000915090508060000160009054906101000a900473ffffffffffffffffffffffffffffffffffffffff16908060000160149054906101000a900460ff16908060010154908060020154908060030154908060040160009054906101000a900460ff16908060040160019054906101000a900460ff16908060040160029054906101000a900460ff16908060050154905089565b600b5481565b600460009054906101000a900473ffffffffffffffffffffffffffffffffffffffff1673ffffffffffffffffffffffffffffffffffffffff163373ffffffffffffffffffffffffffffffffffffffff16146106795733600460009054906101000a900473ffffffffffffffffffffffffffffffffffffffff166040517f1cf993f40000000000000000000000000000000000000000000000000000000081526004016106709291906122c3565b60405180910390fd5b610684838383611456565b505050565b6106916119b6565b610699611a48565b6106a1611a88565b565b6106ab6119b6565b600083036106ee576040517f08c379a00000000000000000000000000000000000000000000000000000000081526004016106e590612349565b60405180910390fd5b60008163ffffffff1611610737576040517f08c379a000000000000000000000000000000000000000000000000000000000815260040161072e906123db565b60405180910390fd5b826005819055508160068190555080600760006101000a81548163ffffffff021916908363ffffffff1602179055507fb7217e99784358ecd33b535f3d43fb8f45c1f26724cba648d2843b3be82b5bb6600554600654600760009054906101000a900463ffffffff166040516107af93929190612419565b60405180910390a1505050565b600d6020528060005260406000206000915090505481565b60008060009054906101000a900460ff16905090565b6107f2611aea565b6107fa611b2b565b600a5434101561083f576040517f08c379a00000000000000000000000000000000000000000000000000000000081526004016108369061249c565b60405180910390fd5b600954341115610884576040517f08c379a000000000000000000000000000000000000000000000000000000000815260040161087b90612508565b60405180910390fd5b60003490506000600b600081548092919061089e90612557565b9190505590506000600c60008381526020019081526020016000209050338160000160006101000a81548173ffffffffffffffffffffffffffffffffffffffff021916908373ffffffffffffffffffffffffffffffffffffffff160217905550838160000160146101000a81548160ff0219169083600181111561092557610924611dc0565b5b021790555082816001018190555060018160040160016101000a81548160ff02191690831515021790555060006040518060c0016040528060065481526020016005548152602001600361ffff168152602001600760009054906101000a900463ffffffff1663ffffffff168152602001600163ffffffff16815260200160405180602001604052806000815250815250905060007f000000000000000000000000000000000000000000000000000000000000000073ffffffffffffffffffffffffffffffffffffffff16639b1c385e836040518263ffffffff1660e01b8152600401610a139190612702565b6020604051808303816000875af1158015610a32573d6000803e3d6000fd5b505050506040513d601f19601f82011682018060405250810190610a569190612739565b905080836005018190555083600d600083815260200190815260200160002081905550803373ffffffffffffffffffffffffffffffffffffffff16857ff997d823f48f374dcf320abcfb4c14d035a288d7cc3e31d98a18d02b41bc56f78989604051610ac3929190612766565b60405180910390a45050505050610ad8611b71565b50565b600360009054906101000a900473ffffffffffffffffffffffffffffffffffffffff1673ffffffffffffffffffffffffffffffffffffffff163373ffffffffffffffffffffffffffffffffffffffff1614610b6b576040517f08c379a0000000000000000000000000000000000000000000000000000000008152600401610b62906127db565b60405180910390fd5b6000600260009054906101000a900473ffffffffffffffffffffffffffffffffffffffff16905033600260006101000a81548173ffffffffffffffffffffffffffffffffffffffff021916908373ffffffffffffffffffffffffffffffffffffffff1602179055506000600360006101000a81548173ffffffffffffffffffffffffffffffffffffffff021916908373ffffffffffffffffffffffffffffffffffffffff1602179055503373ffffffffffffffffffffffffffffffffffffffff168173ffffffffffffffffffffffffffffffffffffffff167f8be0079c531659141344cd1fd0a4f28419497f9722a3daafe3b4186f6b6457e060405160405180910390a350565b610c7a6119b6565b610c82611aea565b610c8a611b7a565b565b6000600260009054906101000a900473ffffffffffffffffffffffffffffffffffffffff16905090565b610cbe610c8c565b73ffffffffffffffffffffffffffffffffffffffff163373ffffffffffffffffffffffffffffffffffffffff1614158015610d475750600460009054906101000a900473ffffffffffffffffffffffffffffffffffffffff1673ffffffffffffffffffffffffffffffffffffffff163373ffffffffffffffffffffffffffffffffffffffff1614155b15610db65733610d55610c8c565b600460009054906101000a900473ffffffffffffffffffffffffffffffffffffffff166040517f061db9c1000000000000000000000000000000000000000000000000000000008152600401610dad939291906127fb565b60405180910390fd5b600073ffffffffffffffffffffffffffffffffffffffff168173ffffffffffffffffffffffffffffffffffffffff1603610e1c576040517fd92e233d00000000000000000000000000000000000000000000000000000000815260040160405180910390fd5b80600460006101000a81548173ffffffffffffffffffffffffffffffffffffffff021916908373ffffffffffffffffffffffffffffffffffffffff1602179055507fd1a6a14209a385a964d036e404cb5cfb71f4000cdb03c9366292430787261be681604051610e8c9190612100565b60405180910390a150565b610e9f6119b6565b600073ffffffffffffffffffffffffffffffffffffffff168173ffffffffffffffffffffffffffffffffffffffff1603610f0e576040517f08c379a0000000000000000000000000000000000000000000000000000000008152600401610f05906128a4565b60405180910390fd5b80600760046101000a81548173ffffffffffffffffffffffffffffffffffffffff021916908373ffffffffffffffffffffffffffffffffffffffff1602179055508073ffffffffffffffffffffffffffffffffffffffff167f29acee77dafcfa0143d74a7ea236018f3a6e1fa71e27fc59bbfbc6b8ca8edccd60405160405180910390a250565b610f9d6119b6565b60008111610fe0576040517f08c379a0000000000000000000000000000000000000000000000000000000008152600401610fd790612910565b60405180910390fd5b806009541015611025576040517f08c379a000000000000000000000000000000000000000000000000000000000815260040161101c906129a2565b60405180910390fd5b80600a819055507f6802a03dd8e2f6a4dc2ab8cf753936dc2aeced88bcd60edfa3d49faba6bc1ade8160405161105b9190611eee565b60405180910390a150565b600460009054906101000a900473ffffffffffffffffffffffffffffffffffffffff1681565b60085481565b60095481565b6110a06119b6565b6127108111156110e5576040517f08c379a00000000000000000000000000000000000000000000000000000000081526004016110dc90612a34565b60405180910390fd5b806008819055507f74516f05eb4bd2461d57aa1e935ee553f86a3e02bfed7759f2f772915de3d9be8160405161111b9190611eee565b60405180910390a150565b600a5481565b6111346119b6565b600073ffffffffffffffffffffffffffffffffffffffff168273ffffffffffffffffffffffffffffffffffffffff16036111a3576040517f08c379a000000000000000000000000000000000000000000000000000000000815260040161119a90612aa0565b60405180910390fd5b600082905060008173ffffffffffffffffffffffffffffffffffffffff1663a9059cbb6111ce610c8c565b856040518363ffffffff1660e01b81526004016111ec929190612ac0565b6020604051808303816000875af115801561120b573d6000803e3d6000fd5b505050506040513d601f19601f8201168201806040525081019061122f9190612b15565b905080611271576040517f08c379a000000000000000000000000000000000000000000000000000000000815260040161126890612b8e565b60405180910390fd5b50505050565b61127f6119b6565b611287611b2b565b6000479050600081116112cf576040517f08c379a00000000000000000000000000000000000000000000000000000000081526004016112c690612bfa565b60405180910390fd5b60006112d9610c8c565b73ffffffffffffffffffffffffffffffffffffffff16826040516112fc90612c4b565b60006040518083038185875af1925050503d8060008114611339576040519150601f19603f3d011682016040523d82523d6000602084013e61133e565b606091505b5050905080611382576040517f08c379a000000000000000000000000000000000000000000000000000000000815260040161137990612cd2565b60405180910390fd5b505061138c611b71565b565b6113966119b6565b600a548110156113db576040517f08c379a00000000000000000000000000000000000000000000000000000000081526004016113d290612d64565b60405180910390fd5b806009819055507f2842cf99332cf44653926376c4c0f5d0f91b749469ac9999bb1c6c9d728b1ba8816040516114119190611eee565b60405180910390a150565b600760049054906101000a900473ffffffffffffffffffffffffffffffffffffffff1681565b61144a6119b6565b61145381611bdc565b50565b6000600d60008581526020019081526020016000205490506000600c6000838152602001908152602001600020905084827f720b522b8e74026e68a96b8bffa25a22f6710cddecf55c275acd7f88c4a3a8e4868660008181106114bc576114bb612d84565b5b905060200201356040516114d09190611eee565b60405180910390a38060040160019054906101000a900460ff16611529576040517f08c379a000000000000000000000000000000000000000000000000000000000815260040161152090612dff565b60405180910390fd5b8060040160029054906101000a900460ff161561157b576040517f08c379a000000000000000000000000000000000000000000000000000000000815260040161157290612e6b565b60405180910390fd5b60008160040160016101000a81548160ff02191690831515021790555060006002858560008181106115b0576115af612d84565b5b905060200201356115c19190612eba565b146115cd5760016115d0565b60005b8160040160006101000a81548160ff021916908360018111156115f6576115f5611dc0565b5b02179055506000816001015490506000612710600854836116179190612eeb565b6116219190612f2d565b905080836002018190555060008360000160149054906101000a900460ff16600181111561165257611651611dc0565b5b8460040160009054906101000a900460ff16600181111561167657611675611dc0565b5b149050600081156117d85760006002856116909190612eeb565b9050838161169e9190612f5e565b915081866003018190555083826116b59190612f92565b4710156116f7576040517f08c379a00000000000000000000000000000000000000000000000000000000081526004016116ee90613038565b60405180910390fd5b60008211156117d25760008660000160009054906101000a900473ffffffffffffffffffffffffffffffffffffffff1673ffffffffffffffffffffffffffffffffffffffff168360405161174a90612c4b565b60006040518083038185875af1925050503d8060008114611787576040519150601f19603f3d011682016040523d82523d6000602084013e61178c565b606091505b50509050806117d0576040517f08c379a00000000000000000000000000000000000000000000000000000000081526004016117c7906130a4565b60405180910390fd5b505b50611826565b6000856003018190555082471015611825576040517f08c379a000000000000000000000000000000000000000000000000000000000815260040161181c90613136565b60405180910390fd5b5b60008311156118ff576000600760049054906101000a900473ffffffffffffffffffffffffffffffffffffffff1673ffffffffffffffffffffffffffffffffffffffff168460405161187790612c4b565b60006040518083038185875af1925050503d80600081146118b4576040519150601f19603f3d011682016040523d82523d6000602084013e6118b9565b606091505b50509050806118fd576040517f08c379a00000000000000000000000000000000000000000000000000000000081526004016118f4906131a2565b60405180910390fd5b505b60018560040160026101000a81548160ff021916908315150217905550888560000160009054906101000a900473ffffffffffffffffffffffffffffffffffffffff1673ffffffffffffffffffffffffffffffffffffffff16877fb9b0d56d8b79fead8cfe0b73d900409c9b889face7f95238017408f22d1d2c978860040160009054906101000a900460ff16896003015488886040516119a394939291906131c2565b60405180910390a4505050505050505050565b600260009054906101000a900473ffffffffffffffffffffffffffffffffffffffff1673ffffffffffffffffffffffffffffffffffffffff163373ffffffffffffffffffffffffffffffffffffffff1614611a46576040517f08c379a0000000000000000000000000000000000000000000000000000000008152600401611a3d90613253565b60405180910390fd5b565b611a506107d4565b611a86576040517f8dfc202b00000000000000000000000000000000000000000000000000000000815260040160405180910390fd5b565b611a90611a48565b60008060006101000a81548160ff0219169083151502179055507f5db9ee0a495bf2e6ff9c91a7834c1ba4fdd244a5e8aa4e537bd38aeae4b073aa611ad3611d0a565b604051611ae09190612100565b60405180910390a1565b611af26107d4565b15611b29576040517fd93c066500000000000000000000000000000000000000000000000000000000815260040160405180910390fd5b565b600260015403611b67576040517f3ee5aeb500000000000000000000000000000000000000000000000000000000815260040160405180910390fd5b6002600181905550565b60018081905550565b611b82611aea565b60016000806101000a81548160ff0219169083151502179055507f62e78cea01bee320cd4e420270b5ea74000d11b0c9f74754ebdbfc544b05a258611bc5611d0a565b604051611bd29190612100565b60405180910390a1565b3373ffffffffffffffffffffffffffffffffffffffff168173ffffffffffffffffffffffffffffffffffffffff1603611c4a576040517f08c379a0000000000000000000000000000000000000000000000000000000008152600401611c41906132bf565b60405180910390fd5b80600360006101000a81548173ffffffffffffffffffffffffffffffffffffffff021916908373ffffffffffffffffffffffffffffffffffffffff1602179055508073ffffffffffffffffffffffffffffffffffffffff16600260009054906101000a900473ffffffffffffffffffffffffffffffffffffffff1673ffffffffffffffffffffffffffffffffffffffff167fed8889f560326eb138920d842192f0eb3dd22b4f139c87a2c57538e05bae127860405160405180910390a350565b600033905090565b600080fd5b600080fd5b6000819050919050565b611d2f81611d1c565b8114611d3a57600080fd5b50565b600081359050611d4c81611d26565b92915050565b600060208284031215611d6857611d67611d12565b5b6000611d7684828501611d3d565b91505092915050565b600073ffffffffffffffffffffffffffffffffffffffff82169050919050565b6000611daa82611d7f565b9050919050565b611dba81611d9f565b82525050565b7f4e487b7100000000000000000000000000000000000000000000000000000000600052602160045260246000fd5b60028110611e0057611dff611dc0565b5b50565b6000819050611e1182611def565b919050565b6000611e2182611e03565b9050919050565b611e3181611e16565b82525050565b611e4081611d1c565b82525050565b60008115159050919050565b611e5b81611e46565b82525050565b600061012082019050611e77600083018c611db1565b611e84602083018b611e28565b611e91604083018a611e37565b611e9e6060830189611e37565b611eab6080830188611e37565b611eb860a0830187611e28565b611ec560c0830186611e52565b611ed260e0830185611e52565b611ee0610100830184611e37565b9a9950505050505050505050565b6000602082019050611f036000830184611e37565b92915050565b600080fd5b600080fd5b600080fd5b60008083601f840112611f2e57611f2d611f09565b5b8235905067ffffffffffffffff811115611f4b57611f4a611f0e565b5b602083019150836020820283011115611f6757611f66611f13565b5b9250929050565b600080600060408486031215611f8757611f86611d12565b5b6000611f9586828701611d3d565b935050602084013567ffffffffffffffff811115611fb657611fb5611d17565b5b611fc286828701611f18565b92509250509250925092565b6000819050919050565b611fe181611fce565b8114611fec57600080fd5b50565b600081359050611ffe81611fd8565b92915050565b600063ffffffff82169050919050565b61201d81612004565b811461202857600080fd5b50565b60008135905061203a81612014565b92915050565b60008060006060848603121561205957612058611d12565b5b600061206786828701611d3d565b935050602061207886828701611fef565b92505060406120898682870161202b565b9150509250925092565b60006020820190506120a86000830184611e52565b92915050565b600281106120bb57600080fd5b50565b6000813590506120cd816120ae565b92915050565b6000602082840312156120e9576120e8611d12565b5b60006120f7848285016120be565b91505092915050565b60006020820190506121156000830184611db1565b92915050565b61212481611d9f565b811461212f57600080fd5b50565b6000813590506121418161211b565b92915050565b60006020828403121561215d5761215c611d12565b5b600061216b84828501612132565b91505092915050565b600061217f82611d7f565b9050919050565b61218f81612174565b811461219a57600080fd5b50565b6000813590506121ac81612186565b92915050565b6000602082840312156121c8576121c7611d12565b5b60006121d68482850161219d565b91505092915050565b6000819050919050565b60006122046121ff6121fa84611d7f565b6121df565b611d7f565b9050919050565b6000612216826121e9565b9050919050565b60006122288261220b565b9050919050565b6122388161221d565b82525050565b6000602082019050612253600083018461222f565b92915050565b600080604083850312156122705761226f611d12565b5b600061227e85828601612132565b925050602061228f85828601611d3d565b9150509250929050565b6122a281612174565b82525050565b60006020820190506122bd6000830184612299565b92915050565b60006040820190506122d86000830185611db1565b6122e56020830184611db1565b9392505050565b600082825260208201905092915050565b7f537562736372697074696f6e2049442063616e6e6f74206265207a65726f0000600082015250565b6000612333601e836122ec565b915061233e826122fd565b602082019050919050565b6000602082019050818103600083015261236281612326565b9050919050565b7f43616c6c6261636b20676173206c696d6974206d75737420626520677265617460008201527f6572207468616e20300000000000000000000000000000000000000000000000602082015250565b60006123c56029836122ec565b91506123d082612369565b604082019050919050565b600060208201905081810360008301526123f4816123b8565b9050919050565b61240481611fce565b82525050565b61241381612004565b82525050565b600060608201905061242e6000830186611e37565b61243b60208301856123fb565b612448604083018461240a565b949350505050565b7f57616765722069732062656c6f77206d696e696d756d206c696d697400000000600082015250565b6000612486601c836122ec565b915061249182612450565b602082019050919050565b600060208201905081810360008301526124b581612479565b9050919050565b7f57616765722069732061626f7665206d6178696d756d206c696d697400000000600082015250565b60006124f2601c836122ec565b91506124fd826124bc565b602082019050919050565b60006020820190508181036000830152612521816124e5565b9050919050565b7f4e487b7100000000000000000000000000000000000000000000000000000000600052601160045260246000fd5b600061256282611d1c565b91507fffffffffffffffffffffffffffffffffffffffffffffffffffffffffffffffff820361259457612593612528565b5b600182019050919050565b6125a881611fce565b82525050565b6125b781611d1c565b82525050565b600061ffff82169050919050565b6125d4816125bd565b82525050565b6125e381612004565b82525050565b600081519050919050565b600082825260208201905092915050565b60005b83811015612623578082015181840152602081019050612608565b60008484015250505050565b6000601f19601f8301169050919050565b600061264b826125e9565b61265581856125f4565b9350612665818560208601612605565b61266e8161262f565b840191505092915050565b600060c083016000830151612691600086018261259f565b5060208301516126a460208601826125ae565b5060408301516126b760408601826125cb565b5060608301516126ca60608601826125da565b5060808301516126dd60808601826125da565b5060a083015184820360a08601526126f58282612640565b9150508091505092915050565b6000602082019050818103600083015261271c8184612679565b905092915050565b60008151905061273381611d26565b92915050565b60006020828403121561274f5761274e611d12565b5b600061275d84828501612724565b91505092915050565b600060408201905061277b6000830185611e28565b6127886020830184611e37565b9392505050565b7f4d7573742062652070726f706f736564206f776e657200000000000000000000600082015250565b60006127c56016836122ec565b91506127d08261278f565b602082019050919050565b600060208201905081810360008301526127f4816127b8565b9050919050565b60006060820190506128106000830186611db1565b61281d6020830185611db1565b61282a6040830184611db1565b949350505050565b7f4e6577206665652077616c6c65742063616e6e6f74206265207a65726f20616460008201527f6472657373000000000000000000000000000000000000000000000000000000602082015250565b600061288e6025836122ec565b915061289982612832565b604082019050919050565b600060208201905081810360008301526128bd81612881565b9050919050565b7f4d696e207761676572206d7573742062652067726561746572207468616e2030600082015250565b60006128fa6020836122ec565b9150612905826128c4565b602082019050919050565b60006020820190508181036000830152612929816128ed565b9050919050565b7f4d6178207761676572206d7573742062652067726561746572207468616e206f60008201527f7220657175616c20746f206e6577206d696e2077616765720000000000000000602082015250565b600061298c6038836122ec565b915061299782612930565b604082019050919050565b600060208201905081810360008301526129bb8161297f565b9050919050565b7f4665652070657263656e746167652063616e6e6f74206578636565642031303060008201527f303020626173697320706f696e74732028313030252900000000000000000000602082015250565b6000612a1e6036836122ec565b9150612a29826129c2565b604082019050919050565b60006020820190508181036000830152612a4d81612a11565b9050919050565b7f546f6b656e20616464726573732063616e6e6f74206265207a65726f00000000600082015250565b6000612a8a601c836122ec565b9150612a9582612a54565b602082019050919050565b60006020820190508181036000830152612ab981612a7d565b9050919050565b6000604082019050612ad56000830185611db1565b612ae26020830184611e37565b9392505050565b612af281611e46565b8114612afd57600080fd5b50565b600081519050612b0f81612ae9565b92915050565b600060208284031215612b2b57612b2a611d12565b5b6000612b3984828501612b00565b91505092915050565b7f455243323020746f6b656e207769746864726177616c206661696c6564000000600082015250565b6000612b78601d836122ec565b9150612b8382612b42565b602082019050919050565b60006020820190508181036000830152612ba781612b6b565b9050919050565b7f4e6f2062616c616e636520746f20776974686472617700000000000000000000600082015250565b6000612be46016836122ec565b9150612bef82612bae565b602082019050919050565b60006020820190508181036000830152612c1381612bd7565b9050919050565b600081905092915050565b50565b6000612c35600083612c1a565b9150612c4082612c25565b600082019050919050565b6000612c5682612c28565b9150819050919050565b7f436f6e7472616374204554482062616c616e6365207769746864726177616c2060008201527f6661696c65640000000000000000000000000000000000000000000000000000602082015250565b6000612cbc6026836122ec565b9150612cc782612c60565b604082019050919050565b60006020820190508181036000830152612ceb81612caf565b9050919050565b7f4d6178207761676572206d7573742062652067726561746572207468616e206f60008201527f7220657175616c20746f206d696e207761676572000000000000000000000000602082015250565b6000612d4e6034836122ec565b9150612d5982612cf2565b604082019050919050565b60006020820190508181036000830152612d7d81612d41565b9050919050565b7f4e487b7100000000000000000000000000000000000000000000000000000000600052603260045260246000fd5b7f47616d65206e6f7420696e207265717565737465642073746174650000000000600082015250565b6000612de9601b836122ec565b9150612df482612db3565b602082019050919050565b60006020820190508181036000830152612e1881612ddc565b9050919050565b7f47616d6520616c726561647920736574746c6564000000000000000000000000600082015250565b6000612e556014836122ec565b9150612e6082612e1f565b602082019050919050565b60006020820190508181036000830152612e8481612e48565b9050919050565b7f4e487b7100000000000000000000000000000000000000000000000000000000600052601260045260246000fd5b6000612ec582611d1c565b9150612ed083611d1c565b925082612ee057612edf612e8b565b5b828206905092915050565b6000612ef682611d1c565b9150612f0183611d1c565b9250828202612f0f81611d1c565b91508282048414831517612f2657612f25612528565b5b5092915050565b6000612f3882611d1c565b9150612f4383611d1c565b925082612f5357612f52612e8b565b5b828204905092915050565b6000612f6982611d1c565b9150612f7483611d1c565b9250828203905081811115612f8c57612f8b612528565b5b92915050565b6000612f9d82611d1c565b9150612fa883611d1c565b9250828201905080821115612fc057612fbf612528565b5b92915050565b7f436f6e74726163742068617320696e73756666696369656e742062616c616e6360008201527f6520666f722077696e207061796f757420616e64206665650000000000000000602082015250565b60006130226038836122ec565b915061302d82612fc6565b604082019050919050565b6000602082019050818103600083015261305181613015565b9050919050565b7f506c61796572207061796f7574207472616e73666572206661696c6564000000600082015250565b600061308e601d836122ec565b915061309982613058565b602082019050919050565b600060208201905081810360008301526130bd81613081565b9050919050565b7f436f6e74726163742068617320696e73756666696369656e742062616c616e6360008201527f6520666f7220666565207472616e73666572206f6e206c6f7373000000000000602082015250565b6000613120603a836122ec565b915061312b826130c4565b604082019050919050565b6000602082019050818103600083015261314f81613113565b9050919050565b7f466565207472616e7366657220746f2066656557616c6c6574206661696c6564600082015250565b600061318c6020836122ec565b915061319782613156565b602082019050919050565b600060208201905081810360008301526131bb8161317f565b9050919050565b60006080820190506131d76000830187611e28565b6131e46020830186611e37565b6131f16040830185611e37565b6131fe6060830184611e52565b95945050505050565b7f4f6e6c792063616c6c61626c65206279206f776e657200000000000000000000600082015250565b600061323d6016836122ec565b915061324882613207565b602082019050919050565b6000602082019050818103600083015261326c81613230565b9050919050565b7f43616e6e6f74207472616e7366657220746f2073656c66000000000000000000600082015250565b60006132a96017836122ec565b91506132b482613273565b602082019050919050565b600060208201905081810360008301526132d88161329c565b905091905056fea2646970667358221220f6f69f6a3edbd4e0c5caf2710cdc622031b41ff1017a7beb0f5887209ac19dfb64736f6c63430008180033",
  "linkReferences": {},
  "deployedLinkReferences": {}
}