{
  "_format": "hh-sol-artifact-1",
  "contractName": "FlipSkiBaseVRF",
  "sourceName": "contracts/FlipSkiBaseVRF.sol",
  "abi": [
    {
      "inputs": [
        {
          "internalType": "address payable",
          "name": "_initialFeeWallet",
          "type": "address"
        },
        {
          "internalType": "uint256",
          "name": "_initialFeePercentage",
          "type": "uint256"
        },
        {
          "internalType": "uint256",
          "name": "_initialMaxWager",
          "type": "uint256"
        },
        {
          "internalType": "uint256",
          "name": "_initialMinWager",
          "type": "uint256"
        },
        {
          "internalType": "address",
          "name": "_vrfCoordinator",
          "type": "address"
        },
        {
          "internalType": "uint256",
          "name": "_subscriptionId",
          "type": "uint256"
        },
        {
          "internalType": "bytes32",
          "name": "_keyHash",
          "type": "bytes32"
        }
      ],
      "stateMutability": "nonpayable",
      "type": "constructor"
    },
    {
      "inputs": [],
      "name": "EnforcedPause",
      "type": "error"
    },
    {
      "inputs": [],
      "name": "ExpectedPause",
      "type": "error"
    },
    {
      "inputs": [
        {
          "internalType": "address",
          "name": "have",
          "type": "address"
        },
        {
          "internalType": "address",
          "name": "want",
          "type": "address"
        }
      ],
      "name": "OnlyCoordinatorCanFulfill",
      "type": "error"
    },
    {
      "inputs": [
        {
          "internalType": "address",
          "name": "have",
          "type": "address"
        },
        {
          "internalType": "address",
          "name": "owner",
          "type": "address"
        },
        {
          "internalType": "address",
          "name": "coordinator",
          "type": "address"
        }
      ],
      "name": "OnlyOwnerOrCoordinator",
      "type": "error"
    },
    {
      "inputs": [],
      "name": "ReentrancyGuardReentrantCall",
      "type": "error"
    },
    {
      "inputs": [],
      "name": "ZeroAddress",
      "type": "error"
    },
    {
      "anonymous": false,
      "inputs": [
        {
          "indexed": false,
          "internalType": "address",
          "name": "vrfCoordinator",
          "type": "address"
        }
      ],
      "name": "CoordinatorSet",
      "type": "event"
    },
    {
      "anonymous": false,
      "inputs": [
        {
          "indexed": false,
          "internalType": "enum FlipSkiBaseVRF.EmergencyState",
          "name": "newState",
          "type": "uint8"
        }
      ],
      "name": "EmergencyStateChanged",
      "type": "event"
    },
    {
      "anonymous": false,
      "inputs": [
        {
          "indexed": true,
          "internalType": "uint256",
          "name": "gameId",
          "type": "uint256"
        },
        {
          "indexed": true,
          "internalType": "address",
          "name": "player",
          "type": "address"
        },
        {
          "indexed": false,
          "internalType": "uint256",
          "name": "amount",
          "type": "uint256"
        }
      ],
      "name": "EmergencyWithdrawal",
      "type": "event"
    },
    {
      "anonymous": false,
      "inputs": [
        {
          "indexed": false,
          "internalType": "uint256",
          "name": "newFeePercentage",
          "type": "uint256"
        }
      ],
      "name": "FeePercentageUpdated",
      "type": "event"
    },
    {
      "anonymous": false,
      "inputs": [
        {
          "indexed": true,
          "internalType": "address",
          "name": "newFeeWallet",
          "type": "address"
        }
      ],
      "name": "FeeWalletUpdated",
      "type": "event"
    },
    {
      "anonymous": false,
      "inputs": [
        {
          "indexed": true,
          "internalType": "uint256",
          "name": "gameId",
          "type": "uint256"
        },
        {
          "indexed": true,
          "internalType": "address",
          "name": "player",
          "type": "address"
        },
        {
          "indexed": false,
          "internalType": "enum FlipSkiBaseVRF.CoinSide",
          "name": "choice",
          "type": "uint8"
        },
        {
          "indexed": false,
          "internalType": "uint256",
          "name": "wagerAmount",
          "type": "uint256"
        },
        {
          "indexed": true,
          "internalType": "uint256",
          "name": "vrfRequestId",
          "type": "uint256"
        }
      ],
      "name": "GameRequested",
      "type": "event"
    },
    {
      "anonymous": false,
      "inputs": [
        {
          "indexed": true,
          "internalType": "uint256",
          "name": "gameId",
          "type": "uint256"
        },
        {
          "indexed": true,
          "internalType": "address",
          "name": "player",
          "type": "address"
        },
        {
          "indexed": false,
          "internalType": "enum FlipSkiBaseVRF.CoinSide",
          "name": "result",
          "type": "uint8"
        },
        {
          "indexed": false,
          "internalType": "uint256",
          "name": "payoutAmount",
          "type": "uint256"
        },
        {
          "indexed": false,
          "internalType": "uint256",
          "name": "feeAmount",
          "type": "uint256"
        },
        {
          "indexed": true,
          "internalType": "uint256",
          "name": "vrfRequestId",
          "type": "uint256"
        },
        {
          "indexed": false,
          "internalType": "bool",
          "name": "playerWon",
          "type": "bool"
        }
      ],
      "name": "GameSettled",
      "type": "event"
    },
    {
      "anonymous": false,
      "inputs": [
        {
          "indexed": false,
          "internalType": "uint256",
          "name": "newMaxPendingGames",
          "type": "uint256"
        }
      ],
      "name": "MaxPendingGamesUpdated",
      "type": "event"
    },
    {
      "anonymous": false,
      "inputs": [
        {
          "indexed": false,
          "internalType": "uint256",
          "name": "newMaxWager",
          "type": "uint256"
        }
      ],
      "name": "MaxWagerUpdated",
      "type": "event"
    },
    {
      "anonymous": false,
      "inputs": [
        {
          "indexed": false,
          "internalType": "uint256",
          "name": "newMinWager",
          "type": "uint256"
        }
      ],
      "name": "MinWagerUpdated",
      "type": "event"
    },
    {
      "anonymous": false,
      "inputs": [
        {
          "indexed": true,
          "internalType": "address",
          "name": "from",
          "type": "address"
        },
        {
          "indexed": true,
          "internalType": "address",
          "name": "to",
          "type": "address"
        }
      ],
      "name": "OwnershipTransferRequested",
      "type": "event"
    },
    {
      "anonymous": false,
      "inputs": [
        {
          "indexed": true,
          "internalType": "address",
          "name": "from",
          "type": "address"
        },
        {
          "indexed": true,
          "internalType": "address",
          "name": "to",
          "type": "address"
        }
      ],
      "name": "OwnershipTransferred",
      "type": "event"
    },
    {
      "anonymous": false,
      "inputs": [
        {
          "indexed": false,
          "internalType": "address",
          "name": "account",
          "type": "address"
        }
      ],
      "name": "Paused",
      "type": "event"
    },
    {
      "anonymous": false,
      "inputs": [
        {
          "indexed": true,
          "internalType": "uint256",
          "name": "gameId",
          "type": "uint256"
        },
        {
          "indexed": true,
          "internalType": "address",
          "name": "player",
          "type": "address"
        },
        {
          "indexed": false,
          "internalType": "uint256",
          "name": "amount",
          "type": "uint256"
        }
      ],
      "name": "PayoutFailed",
      "type": "event"
    },
    {
      "anonymous": false,
      "inputs": [
        {
          "indexed": true,
          "internalType": "address",
          "name": "player",
          "type": "address"
        },
        {
          "indexed": false,
          "internalType": "uint256",
          "name": "amount",
          "type": "uint256"
        }
      ],
      "name": "PendingPayoutClaimed",
      "type": "event"
    },
    {
      "anonymous": false,
      "inputs": [
        {
          "indexed": true,
          "internalType": "uint256",
          "name": "gameId",
          "type": "uint256"
        },
        {
          "indexed": true,
          "internalType": "uint256",
          "name": "vrfRequestId",
          "type": "uint256"
        },
        {
          "indexed": false,
          "internalType": "uint256",
          "name": "randomWord",
          "type": "uint256"
        }
      ],
      "name": "RandomWordReceived",
      "type": "event"
    },
    {
      "anonymous": false,
      "inputs": [
        {
          "indexed": false,
          "internalType": "address",
          "name": "account",
          "type": "address"
        }
      ],
      "name": "Unpaused",
      "type": "event"
    },
    {
      "anonymous": false,
      "inputs": [
        {
          "indexed": false,
          "internalType": "uint256",
          "name": "newSubscriptionId",
          "type": "uint256"
        },
        {
          "indexed": false,
          "internalType": "bytes32",
          "name": "newKeyHash",
          "type": "bytes32"
        },
        {
          "indexed": false,
          "internalType": "uint32",
          "name": "newCallbackGasLimit",
          "type": "uint32"
        }
      ],
      "name": "VRFParametersUpdated",
      "type": "event"
    },
    {
      "stateMutability": "payable",
      "type": "fallback"
    },
    {
      "inputs": [],
      "name": "acceptOwnership",
      "outputs": [],
      "stateMutability": "nonpayable",
      "type": "function"
    },
    {
      "inputs": [],
      "name": "claimPendingPayout",
      "outputs": [],
      "stateMutability": "nonpayable",
      "type": "function"
    },
    {
      "inputs": [],
      "name": "currentPendingGames",
      "outputs": [
        {
          "internalType": "uint256",
          "name": "",
          "type": "uint256"
        }
      ],
      "stateMutability": "view",
      "type": "function"
    },
    {
      "inputs": [],
      "name": "emergencyState",
      "outputs": [
        {
          "internalType": "enum FlipSkiBaseVRF.EmergencyState",
          "name": "",
          "type": "uint8"
        }
      ],
      "stateMutability": "view",
      "type": "function"
    },
    {
      "inputs": [
        {
          "internalType": "uint256",
          "name": "_gameId",
          "type": "uint256"
        }
      ],
      "name": "emergencyWithdraw",
      "outputs": [],
      "stateMutability": "nonpayable",
      "type": "function"
    },
    {
      "inputs": [],
      "name": "feePercentage",
      "outputs": [
        {
          "internalType": "uint256",
          "name": "",
          "type": "uint256"
        }
      ],
      "stateMutability": "view",
      "type": "function"
    },
    {
      "inputs": [],
      "name": "feeWallet",
      "outputs": [
        {
          "internalType": "address payable",
          "name": "",
          "type": "address"
        }
      ],
      "stateMutability": "view",
      "type": "function"
    },
    {
      "inputs": [
        {
          "internalType": "enum FlipSkiBaseVRF.CoinSide",
          "name": "_choice",
          "type": "uint8"
        }
      ],
      "name": "flip",
      "outputs": [],
      "stateMutability": "payable",
      "type": "function"
    },
    {
      "inputs": [],
      "name": "gameIdCounter",
      "outputs": [
        {
          "internalType": "uint256",
          "name": "",
          "type": "uint256"
        }
      ],
      "stateMutability": "view",
      "type": "function"
    },
    {
      "inputs": [
        {
          "internalType": "uint256",
          "name": "",
          "type": "uint256"
        }
      ],
      "name": "games",
      "outputs": [
        {
          "internalType": "address",
          "name": "player",
          "type": "address"
        },
        {
          "internalType": "enum FlipSkiBaseVRF.CoinSide",
          "name": "choice",
          "type": "uint8"
        },
        {
          "internalType": "uint256",
          "name": "wagerAmount",
          "type": "uint256"
        },
        {
          "internalType": "uint256",
          "name": "feeAmount",
          "type": "uint256"
        },
        {
          "internalType": "uint256",
          "name": "payoutAmount",
          "type": "uint256"
        },
        {
          "internalType": "enum FlipSkiBaseVRF.CoinSide",
          "name": "result",
          "type": "uint8"
        },
        {
          "internalType": "bool",
          "name": "requested",
          "type": "bool"
        },
        {
          "internalType": "bool",
          "name": "settled",
          "type": "bool"
        },
        {
          "internalType": "uint256",
          "name": "vrfRequestId",
          "type": "uint256"
        }
      ],
      "stateMutability": "view",
      "type": "function"
    },
    {
      "inputs": [],
      "name": "maxPendingGames",
      "outputs": [
        {
          "internalType": "uint256",
          "name": "",
          "type": "uint256"
        }
      ],
      "stateMutability": "view",
      "type": "function"
    },
    {
      "inputs": [],
      "name": "maxWager",
      "outputs": [
        {
          "internalType": "uint256",
          "name": "",
          "type": "uint256"
        }
      ],
      "stateMutability": "view",
      "type": "function"
    },
    {
      "inputs": [],
      "name": "minWager",
      "outputs": [
        {
          "internalType": "uint256",
          "name": "",
          "type": "uint256"
        }
      ],
      "stateMutability": "view",
      "type": "function"
    },
    {
      "inputs": [],
      "name": "owner",
      "outputs": [
        {
          "internalType": "address",
          "name": "",
          "type": "address"
        }
      ],
      "stateMutability": "view",
      "type": "function"
    },
    {
      "inputs": [],
      "name": "pause",
      "outputs": [],
      "stateMutability": "nonpayable",
      "type": "function"
    },
    {
      "inputs": [],
      "name": "paused",
      "outputs": [
        {
          "internalType": "bool",
          "name": "",
          "type": "bool"
        }
      ],
      "stateMutability": "view",
      "type": "function"
    },
    {
      "inputs": [
        {
          "internalType": "address",
          "name": "",
          "type": "address"
        }
      ],
      "name": "pendingPayouts",
      "outputs": [
        {
          "internalType": "uint256",
          "name": "",
          "type": "uint256"
        }
      ],
      "stateMutability": "view",
      "type": "function"
    },
    {
      "inputs": [
        {
          "internalType": "uint256",
          "name": "requestId",
          "type": "uint256"
        },
        {
          "internalType": "uint256[]",
          "name": "randomWords",
          "type": "uint256[]"
        }
      ],
      "name": "rawFulfillRandomWords",
      "outputs": [],
      "stateMutability": "nonpayable",
      "type": "function"
    },
    {
      "inputs": [],
      "name": "s_vrfCoordinator",
      "outputs": [
        {
          "internalType": "contract IVRFCoordinatorV2Plus",
          "name": "",
          "type": "address"
        }
      ],
      "stateMutability": "view",
      "type": "function"
    },
    {
      "inputs": [
        {
          "internalType": "address",
          "name": "_vrfCoordinator",
          "type": "address"
        }
      ],
      "name": "setCoordinator",
      "outputs": [],
      "stateMutability": "nonpayable",
      "type": "function"
    },
    {
      "inputs": [
        {
          "internalType": "enum FlipSkiBaseVRF.EmergencyState",
          "name": "_newState",
          "type": "uint8"
        }
      ],
      "name": "setEmergencyState",
      "outputs": [],
      "stateMutability": "nonpayable",
      "type": "function"
    },
    {
      "inputs": [
        {
          "internalType": "uint256",
          "name": "_newFeePercentage",
          "type": "uint256"
        }
      ],
      "name": "setFeePercentage",
      "outputs": [],
      "stateMutability": "nonpayable",
      "type": "function"
    },
    {
      "inputs": [
        {
          "internalType": "address payable",
          "name": "_newFeeWallet",
          "type": "address"
        }
      ],
      "name": "setFeeWallet",
      "outputs": [],
      "stateMutability": "nonpayable",
      "type": "function"
    },
    {
      "inputs": [
        {
          "internalType": "uint256",
          "name": "_newMaxPendingGames",
          "type": "uint256"
        }
      ],
      "name": "setMaxPendingGames",
      "outputs": [],
      "stateMutability": "nonpayable",
      "type": "function"
    },
    {
      "inputs": [
        {
          "internalType": "uint256",
          "name": "_newMaxWager",
          "type": "uint256"
        }
      ],
      "name": "setMaxWager",
      "outputs": [],
      "stateMutability": "nonpayable",
      "type": "function"
    },
    {
      "inputs": [
        {
          "internalType": "uint256",
          "name": "_newMinWager",
          "type": "uint256"
        }
      ],
      "name": "setMinWager",
      "outputs": [],
      "stateMutability": "nonpayable",
      "type": "function"
    },
    {
      "inputs": [
        {
          "internalType": "uint256",
          "name": "_newSubscriptionId",
          "type": "uint256"
        },
        {
          "internalType": "bytes32",
          "name": "_newKeyHash",
          "type": "bytes32"
        },
        {
          "internalType": "uint32",
          "name": "_newCallbackGasLimit",
          "type": "uint32"
        }
      ],
      "name": "setVRFParameters",
      "outputs": [],
      "stateMutability": "nonpayable",
      "type": "function"
    },
    {
      "inputs": [
        {
          "internalType": "address",
          "name": "to",
          "type": "address"
        }
      ],
      "name": "transferOwnership",
      "outputs": [],
      "stateMutability": "nonpayable",
      "type": "function"
    },
    {
      "inputs": [],
      "name": "unpause",
      "outputs": [],
      "stateMutability": "nonpayable",
      "type": "function"
    },
    {
      "inputs": [
        {
          "internalType": "uint256",
          "name": "",
          "type": "uint256"
        }
      ],
      "name": "vrfRequestToGameId",
      "outputs": [
        {
          "internalType": "uint256",
          "name": "",
          "type": "uint256"
        }
      ],
      "stateMutability": "view",
      "type": "function"
    },
    {
      "inputs": [],
      "name": "withdrawContractBalance",
      "outputs": [],
      "stateMutability": "nonpayable",
      "type": "function"
    },
    {
      "inputs": [
        {
          "internalType": "address",
          "name": "_tokenAddress",
          "type": "address"
        },
        {
          "internalType": "uint256",
          "name": "_amount",
          "type": "uint256"
        }
      ],
      "name": "withdrawStuckTokens",
      "outputs": [],
      "stateMutability": "nonpayable",
      "type": "function"
    },
    {
      "stateMutability": "payable",
      "type": "receive"
    }
  ],
  "bytecode": "0x60a0604052620493e0600760006101000a81548163ffffffff021916908363ffffffff1602179055506064600b553480156200003a57600080fd5b5060405162004f9638038062004f96833981810160405281019062000060919062000739565b823380600060018081905550600073ffffffffffffffffffffffffffffffffffffffff168273ffffffffffffffffffffffffffffffffffffffff1603620000de576040517f08c379a0000000000000000000000000000000000000000000000000000000008152600401620000d5906200084d565b60405180910390fd5b81600260006101000a81548173ffffffffffffffffffffffffffffffffffffffff021916908373ffffffffffffffffffffffffffffffffffffffff160217905550600073ffffffffffffffffffffffffffffffffffffffff168173ffffffffffffffffffffffffffffffffffffffff161462000166576200016581620004e360201b60201c565b5b505050600073ffffffffffffffffffffffffffffffffffffffff168173ffffffffffffffffffffffffffffffffffffffff1603620001d0576040517fd92e233d00000000000000000000000000000000000000000000000000000000815260040160405180910390fd5b80600460006101000a81548173ffffffffffffffffffffffffffffffffffffffff021916908373ffffffffffffffffffffffffffffffffffffffff16021790555050600073ffffffffffffffffffffffffffffffffffffffff168773ffffffffffffffffffffffffffffffffffffffff160362000284576040517f08c379a00000000000000000000000000000000000000000000000000000000081526004016200027b90620008e5565b60405180910390fd5b612710861115620002cc576040517f08c379a0000000000000000000000000000000000000000000000000000000008152600401620002c3906200097d565b60405180910390fd5b6000841162000312576040517f08c379a00000000000000000000000000000000000000000000000000000000081526004016200030990620009ef565b60405180910390fd5b8385101562000358576040517f08c379a00000000000000000000000000000000000000000000000000000000081526004016200034f9062000a87565b60405180910390fd5b600073ffffffffffffffffffffffffffffffffffffffff168373ffffffffffffffffffffffffffffffffffffffff1603620003ca576040517f08c379a0000000000000000000000000000000000000000000000000000000008152600401620003c19062000b1f565b60405180910390fd5b6000820362000410576040517f08c379a0000000000000000000000000000000000000000000000000000000008152600401620004079062000b91565b60405180910390fd5b86600760046101000a81548173ffffffffffffffffffffffffffffffffffffffff021916908373ffffffffffffffffffffffffffffffffffffffff160217905550856008819055508460098190555083600a819055508273ffffffffffffffffffffffffffffffffffffffff1660808173ffffffffffffffffffffffffffffffffffffffff168152505081600581905550806006819055506000600460146101000a81548160ff02191690836002811115620004d157620004d062000bb3565b5b02179055505050505050505062000c54565b3373ffffffffffffffffffffffffffffffffffffffff168173ffffffffffffffffffffffffffffffffffffffff160362000554576040517f08c379a00000000000000000000000000000000000000000000000000000000081526004016200054b9062000c32565b60405180910390fd5b80600360006101000a81548173ffffffffffffffffffffffffffffffffffffffff021916908373ffffffffffffffffffffffffffffffffffffffff1602179055508073ffffffffffffffffffffffffffffffffffffffff16600260009054906101000a900473ffffffffffffffffffffffffffffffffffffffff1673ffffffffffffffffffffffffffffffffffffffff167fed8889f560326eb138920d842192f0eb3dd22b4f139c87a2c57538e05bae127860405160405180910390a350565b600080fd5b600073ffffffffffffffffffffffffffffffffffffffff82169050919050565b6000620006468262000619565b9050919050565b620006588162000639565b81146200066457600080fd5b50565b60008151905062000678816200064d565b92915050565b6000819050919050565b62000693816200067e565b81146200069f57600080fd5b50565b600081519050620006b38162000688565b92915050565b6000620006c68262000619565b9050919050565b620006d881620006b9565b8114620006e457600080fd5b50565b600081519050620006f881620006cd565b92915050565b6000819050919050565b6200071381620006fe565b81146200071f57600080fd5b50565b600081519050620007338162000708565b92915050565b600080600080600080600060e0888a0312156200075b576200075a62000614565b5b60006200076b8a828b0162000667565b97505060206200077e8a828b01620006a2565b9650506040620007918a828b01620006a2565b9550506060620007a48a828b01620006a2565b9450506080620007b78a828b01620006e7565b93505060a0620007ca8a828b01620006a2565b92505060c0620007dd8a828b0162000722565b91505092959891949750929550565b600082825260208201905092915050565b7f43616e6e6f7420736574206f776e657220746f207a65726f0000000000000000600082015250565b600062000835601883620007ec565b91506200084282620007fd565b602082019050919050565b60006020820190508181036000830152620008688162000826565b9050919050565b7f4665652077616c6c65742063616e6e6f74206265207a65726f2061646472657360008201527f7300000000000000000000000000000000000000000000000000000000000000602082015250565b6000620008cd602183620007ec565b9150620008da826200086f565b604082019050919050565b600060208201905081810360008301526200090081620008be565b9050919050565b7f4665652070657263656e746167652063616e6e6f74206578636565642031303060008201527f303020626173697320706f696e74732028313030252900000000000000000000602082015250565b600062000965603683620007ec565b9150620009728262000907565b604082019050919050565b60006020820190508181036000830152620009988162000956565b9050919050565b7f4d696e207761676572206d7573742062652067726561746572207468616e2030600082015250565b6000620009d7602083620007ec565b9150620009e4826200099f565b602082019050919050565b6000602082019050818103600083015262000a0a81620009c8565b9050919050565b7f4d6178207761676572206d7573742062652067726561746572207468616e206f60008201527f7220657175616c20746f206d696e207761676572000000000000000000000000602082015250565b600062000a6f603483620007ec565b915062000a7c8262000a11565b604082019050919050565b6000602082019050818103600083015262000aa28162000a60565b9050919050565b7f56524620436f6f7264696e61746f7220616464726573732063616e6e6f74206260008201527f65207a65726f0000000000000000000000000000000000000000000000000000602082015250565b600062000b07602683620007ec565b915062000b148262000aa9565b604082019050919050565b6000602082019050818103600083015262000b3a8162000af8565b9050919050565b7f537562736372697074696f6e2049442063616e6e6f74206265207a65726f0000600082015250565b600062000b79601e83620007ec565b915062000b868262000b41565b602082019050919050565b6000602082019050818103600083015262000bac8162000b6a565b9050919050565b7f4e487b7100000000000000000000000000000000000000000000000000000000600052602160045260246000fd5b7f43616e6e6f74207472616e7366657220746f2073656c66000000000000000000600082015250565b600062000c1a601783620007ec565b915062000c278262000be2565b602082019050919050565b6000602082019050818103600083015262000c4d8162000c0b565b9050919050565b60805161432662000c7060003960006112e801526143266000f3fe6080604052600436106101e75760003560e01c80638ea9811711610102578063bd61f0a611610095578063dd3094af11610064578063dd3094af14610659578063f25f4b5614610684578063f2fde38b146106af578063f8a338a5146106d8576101ee565b8063bd61f0a6146105c7578063bfab3db9146105f0578063d15b48b914610607578063d26bc51714610630576101ee565b8063a001ecdd116100d1578063a001ecdd1461051d578063a52ef3fa14610548578063ae06c1b714610573578063bb9c3f2b1461059c576101ee565b80638ea981171461047757806390d49b9d146104a05780639ae980a8146104c95780639eccacf6146104f2576101ee565b80635011a2ec1161017a578063784712f211610149578063784712f2146103e157806379ba50971461041e5780638456cb59146104355780638da5cb5b1461044c576101ee565b80635011a2ec146103465780635312ea8e146103715780635c975abb1461039a578063638c0637146103c5576101ee565b806334e8e3cd116101b657806334e8e3cd146102a05780633f4ba83a146102c95780634228487c146102e057806344e493fa14610309576101ee565b806302a18a41146101f0578063117a5b90146102075780631bb412d61461024c5780631fe543e314610277576101ee565b366101ee57005b005b3480156101fc57600080fd5b50610205610703565b005b34801561021357600080fd5b5061022e6004803603810190610229919061288d565b61087f565b6040516102439998979695949392919061299c565b60405180910390f35b34801561025857600080fd5b50610261610921565b60405161026e9190612a29565b60405180910390f35b34801561028357600080fd5b5061029e60048036038101906102999190612aa9565b610927565b005b3480156102ac57600080fd5b506102c760048036038101906102c29190612b2e565b6109ed565b005b3480156102d557600080fd5b506102de610ac8565b005b3480156102ec57600080fd5b5061030760048036038101906103029190612bcd565b610b81565b005b34801561031557600080fd5b50610330600480360381019061032b919061288d565b610ce9565b60405161033d9190612a29565b60405180910390f35b34801561035257600080fd5b5061035b610d01565b6040516103689190612a29565b60405180910390f35b34801561037d57600080fd5b506103986004803603810190610393919061288d565b610d07565b005b3480156103a657600080fd5b506103af610fae565b6040516103bc9190612c20565b60405180910390f35b6103df60048036038101906103da9190612c60565b610fc4565b005b3480156103ed57600080fd5b5061040860048036038101906104039190612cb9565b611409565b6040516104159190612a29565b60405180910390f35b34801561042a57600080fd5b50610433611421565b005b34801561044157600080fd5b5061044a6115b8565b005b34801561045857600080fd5b50610461611671565b60405161046e9190612ce6565b60405180910390f35b34801561048357600080fd5b5061049e60048036038101906104999190612cb9565b61169b565b005b3480156104ac57600080fd5b506104c760048036038101906104c29190612d3f565b61187c565b005b3480156104d557600080fd5b506104f060048036038101906104eb919061288d565b61197a565b005b3480156104fe57600080fd5b50610507611a4b565b6040516105149190612dcb565b60405180910390f35b34801561052957600080fd5b50610532611a71565b60405161053f9190612a29565b60405180910390f35b34801561055457600080fd5b5061055d611a77565b60405161056a9190612a29565b60405180910390f35b34801561057f57600080fd5b5061059a6004803603810190610595919061288d565b611a7d565b005b3480156105a857600080fd5b506105b1611b0b565b6040516105be9190612a29565b60405180910390f35b3480156105d357600080fd5b506105ee60048036038101906105e99190612de6565b611b11565b005b3480156105fc57600080fd5b50610605611c6c565b005b34801561061357600080fd5b5061062e6004803603810190610629919061288d565b611d25565b005b34801561063c57600080fd5b506106576004803603810190610652919061288d565b611db3565b005b34801561066557600080fd5b5061066e611e3f565b60405161067b9190612a29565b60405180910390f35b34801561069057600080fd5b50610699611e45565b6040516106a69190612e35565b60405180910390f35b3480156106bb57600080fd5b506106d660048036038101906106d19190612cb9565b611e6b565b005b3480156106e457600080fd5b506106ed611e7f565b6040516106fa9190612e98565b60405180910390f35b61070b611e92565b6000601060003373ffffffffffffffffffffffffffffffffffffffff1673ffffffffffffffffffffffffffffffffffffffff16815260200190815260200160002054905060008111610792576040517f08c379a000000000000000000000000000000000000000000000000000000000815260040161078990612f10565b60405180910390fd5b6000601060003373ffffffffffffffffffffffffffffffffffffffff1673ffffffffffffffffffffffffffffffffffffffff1681526020019081526020016000208190555060006107e33383611ed8565b905080610825576040517f08c379a000000000000000000000000000000000000000000000000000000000815260040161081c90612f7c565b60405180910390fd5b3373ffffffffffffffffffffffffffffffffffffffff167fbd2ad6e5989667203292aae122d428c0c184070dc46bc0ec52c438b2a54548c98360405161086b9190612a29565b60405180910390a2505061087d611f4f565b565b600e6020528060005260406000206000915090508060000160009054906101000a900473ffffffffffffffffffffffffffffffffffffffff16908060000160149054906101000a900460ff16908060010154908060020154908060030154908060040160009054906101000a900460ff16908060040160019054906101000a900460ff16908060040160029054906101000a900460ff16908060050154905089565b600d5481565b600460009054906101000a900473ffffffffffffffffffffffffffffffffffffffff1673ffffffffffffffffffffffffffffffffffffffff163373ffffffffffffffffffffffffffffffffffffffff16146109dd5733600460009054906101000a900473ffffffffffffffffffffffffffffffffffffffff166040517f1cf993f40000000000000000000000000000000000000000000000000000000081526004016109d4929190612f9c565b60405180910390fd5b6109e8838383611f58565b505050565b6109f5612540565b80600460146101000a81548160ff02191690836002811115610a1a57610a196128fb565b5b021790555060016002811115610a3357610a326128fb565b5b816002811115610a4657610a456128fb565b5b03610a5857610a536125d2565b610a8e565b60006002811115610a6c57610a6b6128fb565b5b816002811115610a7f57610a7e6128fb565b5b03610a8d57610a8c612634565b5b5b7f9a7a6d6378c8e34cc293488e843d05e08248aba71d7f2157d57ad1ed2c80321d81604051610abd9190612e98565b60405180910390a150565b610ad0612540565b610ad8612696565b610ae0612634565b60006002811115610af457610af36128fb565b5b600460149054906101000a900460ff166002811115610b1657610b156128fb565b5b14610b7f576000600460146101000a81548160ff02191690836002811115610b4157610b406128fb565b5b02179055507f9a7a6d6378c8e34cc293488e843d05e08248aba71d7f2157d57ad1ed2c80321d6000604051610b769190612e98565b60405180910390a15b565b610b89612540565b60008303610bcc576040517f08c379a0000000000000000000000000000000000000000000000000000000008152600401610bc390613011565b60405180910390fd5b62030d408163ffffffff161015610c18576040517f08c379a0000000000000000000000000000000000000000000000000000000008152600401610c0f9061307d565b60405180910390fd5b621e84808163ffffffff161115610c64576040517f08c379a0000000000000000000000000000000000000000000000000000000008152600401610c5b906130e9565b60405180910390fd5b826005819055508160068190555080600760006101000a81548163ffffffff021916908363ffffffff1602179055507fb7217e99784358ecd33b535f3d43fb8f45c1f26724cba648d2843b3be82b5bb6600554600654600760009054906101000a900463ffffffff16604051610cdc93929190613127565b60405180910390a1505050565b600f6020528060005260406000206000915090505481565b600b5481565b610d0f611e92565b6002806002811115610d2457610d236128fb565b5b600460149054906101000a900460ff166002811115610d4657610d456128fb565b5b14610d86576040517f08c379a0000000000000000000000000000000000000000000000000000000008152600401610d7d906131d0565b60405180910390fd5b6000600e600084815260200190815260200160002090503373ffffffffffffffffffffffffffffffffffffffff168160000160009054906101000a900473ffffffffffffffffffffffffffffffffffffffff1673ffffffffffffffffffffffffffffffffffffffff1614610e2f576040517f08c379a0000000000000000000000000000000000000000000000000000000008152600401610e269061323c565b60405180910390fd5b8060040160019054906101000a900460ff168015610e5c57508060040160029054906101000a900460ff16155b610e9b576040517f08c379a0000000000000000000000000000000000000000000000000000000008152600401610e92906132ce565b60405180910390fd5b60008160040160016101000a81548160ff02191690831515021790555060018160040160026101000a81548160ff0219169083151502179055506000600c541115610ef957600c6000815480929190610ef39061331d565b91905055505b6000816001015490506000610f0e3383611ed8565b905080610f50576040517f08c379a0000000000000000000000000000000000000000000000000000000008152600401610f4790613392565b60405180910390fd5b3373ffffffffffffffffffffffffffffffffffffffff16857f18fcb562d23857df60e33824b748cb5c3af4e22375458317e7a33e52a971413f84604051610f979190612a29565b60405180910390a350505050610fab611f4f565b50565b60008060009054906101000a900460ff16905090565b610fcc611e92565b600a54341015611011576040517f08c379a0000000000000000000000000000000000000000000000000000000008152600401611008906133fe565b60405180910390fd5b600954341115611056576040517f08c379a000000000000000000000000000000000000000000000000000000000815260040161104d9061346a565b60405180910390fd5b600080600281111561106b5761106a6128fb565b5b600460149054906101000a900460ff16600281111561108d5761108c6128fb565b5b146110cd576040517f08c379a00000000000000000000000000000000000000000000000000000000081526004016110c4906131d0565b60405180910390fd5b600b54600c5410611113576040517f08c379a000000000000000000000000000000000000000000000000000000000815260040161110a906134fc565b60405180910390fd5b6000349050600061271060085460028461112d919061351c565b611137919061351c565b611141919061358d565b60028361114e919061351c565b61115891906135be565b90508047101561119d576040517f08c379a000000000000000000000000000000000000000000000000000000000815260040161119490613664565b60405180910390fd5b6000600d60008154809291906111b290613684565b919050559050600c60008154809291906111cb90613684565b91905055506000600e60008381526020019081526020016000209050338160000160006101000a81548173ffffffffffffffffffffffffffffffffffffffff021916908373ffffffffffffffffffffffffffffffffffffffff160217905550858160000160146101000a81548160ff02191690836001811115611251576112506128fb565b5b021790555083816001018190555060018160040160016101000a81548160ff02191690831515021790555060006040518060c0016040528060065481526020016005548152602001600361ffff168152602001600760009054906101000a900463ffffffff1663ffffffff168152602001600163ffffffff16815260200160405180602001604052806000815250815250905060007f000000000000000000000000000000000000000000000000000000000000000073ffffffffffffffffffffffffffffffffffffffff16639b1c385e836040518263ffffffff1660e01b815260040161133f919061382f565b6020604051808303816000875af115801561135e573d6000803e3d6000fd5b505050506040513d601f19601f820116820180604052508101906113829190613866565b905080836005018190555083600f600083815260200190815260200160002081905550803373ffffffffffffffffffffffffffffffffffffffff16857ff997d823f48f374dcf320abcfb4c14d035a288d7cc3e31d98a18d02b41bc56f78b8a6040516113ef929190613893565b60405180910390a450505050505050611406611f4f565b50565b60106020528060005260406000206000915090505481565b600360009054906101000a900473ffffffffffffffffffffffffffffffffffffffff1673ffffffffffffffffffffffffffffffffffffffff163373ffffffffffffffffffffffffffffffffffffffff16146114b1576040517f08c379a00000000000000000000000000000000000000000000000000000000081526004016114a890613908565b60405180910390fd5b6000600260009054906101000a900473ffffffffffffffffffffffffffffffffffffffff16905033600260006101000a81548173ffffffffffffffffffffffffffffffffffffffff021916908373ffffffffffffffffffffffffffffffffffffffff1602179055506000600360006101000a81548173ffffffffffffffffffffffffffffffffffffffff021916908373ffffffffffffffffffffffffffffffffffffffff1602179055503373ffffffffffffffffffffffffffffffffffffffff168173ffffffffffffffffffffffffffffffffffffffff167f8be0079c531659141344cd1fd0a4f28419497f9722a3daafe3b4186f6b6457e060405160405180910390a350565b6115c0612540565b6115c86126d6565b6115d06125d2565b600160028111156115e4576115e36128fb565b5b600460149054906101000a900460ff166002811115611606576116056128fb565b5b1461166f576001600460146101000a81548160ff02191690836002811115611631576116306128fb565b5b02179055507f9a7a6d6378c8e34cc293488e843d05e08248aba71d7f2157d57ad1ed2c80321d60016040516116669190612e98565b60405180910390a15b565b6000600260009054906101000a900473ffffffffffffffffffffffffffffffffffffffff16905090565b6116a3611671565b73ffffffffffffffffffffffffffffffffffffffff163373ffffffffffffffffffffffffffffffffffffffff161415801561172c5750600460009054906101000a900473ffffffffffffffffffffffffffffffffffffffff1673ffffffffffffffffffffffffffffffffffffffff163373ffffffffffffffffffffffffffffffffffffffff1614155b1561179b573361173a611671565b600460009054906101000a900473ffffffffffffffffffffffffffffffffffffffff166040517f061db9c100000000000000000000000000000000000000000000000000000000815260040161179293929190613928565b60405180910390fd5b600073ffffffffffffffffffffffffffffffffffffffff168173ffffffffffffffffffffffffffffffffffffffff1603611801576040517fd92e233d00000000000000000000000000000000000000000000000000000000815260040160405180910390fd5b80600460006101000a81548173ffffffffffffffffffffffffffffffffffffffff021916908373ffffffffffffffffffffffffffffffffffffffff1602179055507fd1a6a14209a385a964d036e404cb5cfb71f4000cdb03c9366292430787261be6816040516118719190612ce6565b60405180910390a150565b611884612540565b600073ffffffffffffffffffffffffffffffffffffffff168173ffffffffffffffffffffffffffffffffffffffff16036118f3576040517f08c379a00000000000000000000000000000000000000000000000000000000081526004016118ea906139d1565b60405180910390fd5b80600760046101000a81548173ffffffffffffffffffffffffffffffffffffffff021916908373ffffffffffffffffffffffffffffffffffffffff1602179055508073ffffffffffffffffffffffffffffffffffffffff167f29acee77dafcfa0143d74a7ea236018f3a6e1fa71e27fc59bbfbc6b8ca8edccd60405160405180910390a250565b611982612540565b600081116119c5576040517f08c379a00000000000000000000000000000000000000000000000000000000081526004016119bc90613a3d565b60405180910390fd5b806009541015611a0a576040517f08c379a0000000000000000000000000000000000000000000000000000000008152600401611a0190613acf565b60405180910390fd5b80600a819055507f6802a03dd8e2f6a4dc2ab8cf753936dc2aeced88bcd60edfa3d49faba6bc1ade81604051611a409190612a29565b60405180910390a150565b600460009054906101000a900473ffffffffffffffffffffffffffffffffffffffff1681565b60085481565b60095481565b611a85612540565b612710811115611aca576040517f08c379a0000000000000000000000000000000000000000000000000000000008152600401611ac190613b61565b60405180910390fd5b806008819055507f74516f05eb4bd2461d57aa1e935ee553f86a3e02bfed7759f2f772915de3d9be81604051611b009190612a29565b60405180910390a150565b600a5481565b611b19612540565b611b21611e92565b600073ffffffffffffffffffffffffffffffffffffffff168273ffffffffffffffffffffffffffffffffffffffff1603611b90576040517f08c379a0000000000000000000000000000000000000000000000000000000008152600401611b8790613bcd565b60405180910390fd5b600082905060008173ffffffffffffffffffffffffffffffffffffffff1663a9059cbb611bbb611671565b856040518363ffffffff1660e01b8152600401611bd9929190613bed565b6020604051808303816000875af1158015611bf8573d6000803e3d6000fd5b505050506040513d601f19601f82011682018060405250810190611c1c9190613c42565b905080611c5e576040517f08c379a0000000000000000000000000000000000000000000000000000000008152600401611c5590613cbb565b60405180910390fd5b5050611c68611f4f565b5050565b611c74612540565b611c7c611e92565b600047905060008111611cc4576040517f08c379a0000000000000000000000000000000000000000000000000000000008152600401611cbb90613d27565b60405180910390fd5b6000611cd7611cd1611671565b83611ed8565b905080611d19576040517f08c379a0000000000000000000000000000000000000000000000000000000008152600401611d1090613db9565b60405180910390fd5b5050611d23611f4f565b565b611d2d612540565b600a54811015611d72576040517f08c379a0000000000000000000000000000000000000000000000000000000008152600401611d6990613e4b565b60405180910390fd5b806009819055507f2842cf99332cf44653926376c4c0f5d0f91b749469ac9999bb1c6c9d728b1ba881604051611da89190612a29565b60405180910390a150565b611dbb612540565b60008111611dfe576040517f08c379a0000000000000000000000000000000000000000000000000000000008152600401611df590613edd565b60405180910390fd5b80600b819055507fc4d51a6c1951412ad8a431f18b3ec5e22b9431935778db34362b15e3692c952281604051611e349190612a29565b60405180910390a150565b600c5481565b600760049054906101000a900473ffffffffffffffffffffffffffffffffffffffff1681565b611e73612540565b611e7c81612717565b50565b600460149054906101000a900460ff1681565b600260015403611ece576040517f3ee5aeb500000000000000000000000000000000000000000000000000000000815260040160405180910390fd5b6002600181905550565b6000808373ffffffffffffffffffffffffffffffffffffffff1683604051611eff90613f2e565b60006040518083038185875af1925050503d8060008114611f3c576040519150601f19603f3d011682016040523d82523d6000602084013e611f41565b606091505b505090508091505092915050565b60018081905550565b6000600f60008581526020019081526020016000205490506000600e6000838152602001908152602001600020905084827f720b522b8e74026e68a96b8bffa25a22f6710cddecf55c275acd7f88c4a3a8e486866000818110611fbe57611fbd613f43565b5b90506020020135604051611fd29190612a29565b60405180910390a38060040160019054906101000a900460ff1661202b576040517f08c379a000000000000000000000000000000000000000000000000000000000815260040161202290613fbe565b60405180910390fd5b8060040160029054906101000a900460ff161561207d576040517f08c379a00000000000000000000000000000000000000000000000000000000081526004016120749061402a565b60405180910390fd5b60008160040160016101000a81548160ff021916908315150217905550600c60008154809291906120ad9061331d565b919050555060006002858560008181106120ca576120c9613f43565b5b905060200201356120db919061404a565b146120e75760016120ea565b60005b8160040160006101000a81548160ff021916908360018111156121105761210f6128fb565b5b0217905550600081600101549050600061271060085483612131919061351c565b61213b919061358d565b905080836002018190555060008360000160149054906101000a900460ff16600181111561216c5761216b6128fb565b5b8460040160009054906101000a900460ff1660018111156121905761218f6128fb565b5b149050600081156123475760006002856121aa919061351c565b905083816121b891906135be565b915081866003018190555083826121cf919061407b565b471015612211576040517f08c379a000000000000000000000000000000000000000000000000000000000815260040161220890614121565b60405180910390fd5b600082111561234157600061224a8760000160009054906101000a900473ffffffffffffffffffffffffffffffffffffffff1684611ed8565b90508061233f5782601060008960000160009054906101000a900473ffffffffffffffffffffffffffffffffffffffff1673ffffffffffffffffffffffffffffffffffffffff1673ffffffffffffffffffffffffffffffffffffffff16815260200190815260200160002060008282546122c4919061407b565b925050819055508660000160009054906101000a900473ffffffffffffffffffffffffffffffffffffffff1673ffffffffffffffffffffffffffffffffffffffff16887f7087bc973091d569b9837529a7ff04489dbccaf60e855756b0aaa2705f0eba7d856040516123369190612a29565b60405180910390a35b505b50612395565b6000856003018190555082471015612394576040517f08c379a000000000000000000000000000000000000000000000000000000000815260040161238b906141b3565b60405180910390fd5b5b60008311156124895760006123cc600760049054906101000a900473ffffffffffffffffffffffffffffffffffffffff1685611ed8565b9050806124875783601060006123e0611671565b73ffffffffffffffffffffffffffffffffffffffff1673ffffffffffffffffffffffffffffffffffffffff1681526020019081526020016000206000828254612429919061407b565b92505081905550612438611671565b73ffffffffffffffffffffffffffffffffffffffff16877f7087bc973091d569b9837529a7ff04489dbccaf60e855756b0aaa2705f0eba7d8660405161247e9190612a29565b60405180910390a35b505b60018560040160026101000a81548160ff021916908315150217905550888560000160009054906101000a900473ffffffffffffffffffffffffffffffffffffffff1673ffffffffffffffffffffffffffffffffffffffff16877fb9b0d56d8b79fead8cfe0b73d900409c9b889face7f95238017408f22d1d2c978860040160009054906101000a900460ff168960030154888860405161252d94939291906141d3565b60405180910390a4505050505050505050565b600260009054906101000a900473ffffffffffffffffffffffffffffffffffffffff1673ffffffffffffffffffffffffffffffffffffffff163373ffffffffffffffffffffffffffffffffffffffff16146125d0576040517f08c379a00000000000000000000000000000000000000000000000000000000081526004016125c790614264565b60405180910390fd5b565b6125da6126d6565b60016000806101000a81548160ff0219169083151502179055507f62e78cea01bee320cd4e420270b5ea74000d11b0c9f74754ebdbfc544b05a25861261d612845565b60405161262a9190612ce6565b60405180910390a1565b61263c612696565b60008060006101000a81548160ff0219169083151502179055507f5db9ee0a495bf2e6ff9c91a7834c1ba4fdd244a5e8aa4e537bd38aeae4b073aa61267f612845565b60405161268c9190612ce6565b60405180910390a1565b61269e610fae565b6126d4576040517f8dfc202b00000000000000000000000000000000000000000000000000000000815260040160405180910390fd5b565b6126de610fae565b15612715576040517fd93c066500000000000000000000000000000000000000000000000000000000815260040160405180910390fd5b565b3373ffffffffffffffffffffffffffffffffffffffff168173ffffffffffffffffffffffffffffffffffffffff1603612785576040517f08c379a000000000000000000000000000000000000000000000000000000000815260040161277c906142d0565b60405180910390fd5b80600360006101000a81548173ffffffffffffffffffffffffffffffffffffffff021916908373ffffffffffffffffffffffffffffffffffffffff1602179055508073ffffffffffffffffffffffffffffffffffffffff16600260009054906101000a900473ffffffffffffffffffffffffffffffffffffffff1673ffffffffffffffffffffffffffffffffffffffff167fed8889f560326eb138920d842192f0eb3dd22b4f139c87a2c57538e05bae127860405160405180910390a350565b600033905090565b600080fd5b600080fd5b6000819050919050565b61286a81612857565b811461287557600080fd5b50565b60008135905061288781612861565b92915050565b6000602082840312156128a3576128a261284d565b5b60006128b184828501612878565b91505092915050565b600073ffffffffffffffffffffffffffffffffffffffff82169050919050565b60006128e5826128ba565b9050919050565b6128f5816128da565b82525050565b7f4e487b7100000000000000000000000000000000000000000000000000000000600052602160045260246000fd5b6002811061293b5761293a6128fb565b5b50565b600081905061294c8261292a565b919050565b600061295c8261293e565b9050919050565b61296c81612951565b82525050565b61297b81612857565b82525050565b60008115159050919050565b61299681612981565b82525050565b6000610120820190506129b2600083018c6128ec565b6129bf602083018b612963565b6129cc604083018a612972565b6129d96060830189612972565b6129e66080830188612972565b6129f360a0830187612963565b612a0060c083018661298d565b612a0d60e083018561298d565b612a1b610100830184612972565b9a9950505050505050505050565b6000602082019050612a3e6000830184612972565b92915050565b600080fd5b600080fd5b600080fd5b60008083601f840112612a6957612a68612a44565b5b8235905067ffffffffffffffff811115612a8657612a85612a49565b5b602083019150836020820283011115612aa257612aa1612a4e565b5b9250929050565b600080600060408486031215612ac257612ac161284d565b5b6000612ad086828701612878565b935050602084013567ffffffffffffffff811115612af157612af0612852565b5b612afd86828701612a53565b92509250509250925092565b60038110612b1657600080fd5b50565b600081359050612b2881612b09565b92915050565b600060208284031215612b4457612b4361284d565b5b6000612b5284828501612b19565b91505092915050565b6000819050919050565b612b6e81612b5b565b8114612b7957600080fd5b50565b600081359050612b8b81612b65565b92915050565b600063ffffffff82169050919050565b612baa81612b91565b8114612bb557600080fd5b50565b600081359050612bc781612ba1565b92915050565b600080600060608486031215612be657612be561284d565b5b6000612bf486828701612878565b9350506020612c0586828701612b7c565b9250506040612c1686828701612bb8565b9150509250925092565b6000602082019050612c35600083018461298d565b92915050565b60028110612c4857600080fd5b50565b600081359050612c5a81612c3b565b92915050565b600060208284031215612c7657612c7561284d565b5b6000612c8484828501612c4b565b91505092915050565b612c96816128da565b8114612ca157600080fd5b50565b600081359050612cb381612c8d565b92915050565b600060208284031215612ccf57612cce61284d565b5b6000612cdd84828501612ca4565b91505092915050565b6000602082019050612cfb60008301846128ec565b92915050565b6000612d0c826128ba565b9050919050565b612d1c81612d01565b8114612d2757600080fd5b50565b600081359050612d3981612d13565b92915050565b600060208284031215612d5557612d5461284d565b5b6000612d6384828501612d2a565b91505092915050565b6000819050919050565b6000612d91612d8c612d87846128ba565b612d6c565b6128ba565b9050919050565b6000612da382612d76565b9050919050565b6000612db582612d98565b9050919050565b612dc581612daa565b82525050565b6000602082019050612de06000830184612dbc565b92915050565b60008060408385031215612dfd57612dfc61284d565b5b6000612e0b85828601612ca4565b9250506020612e1c85828601612878565b9150509250929050565b612e2f81612d01565b82525050565b6000602082019050612e4a6000830184612e26565b92915050565b60038110612e6157612e606128fb565b5b50565b6000819050612e7282612e50565b919050565b6000612e8282612e64565b9050919050565b612e9281612e77565b82525050565b6000602082019050612ead6000830184612e89565b92915050565b600082825260208201905092915050565b7f4e6f2070656e64696e67207061796f7574730000000000000000000000000000600082015250565b6000612efa601283612eb3565b9150612f0582612ec4565b602082019050919050565b60006020820190508181036000830152612f2981612eed565b9050919050565b7f5061796f7574207472616e73666572206661696c656400000000000000000000600082015250565b6000612f66601683612eb3565b9150612f7182612f30565b602082019050919050565b60006020820190508181036000830152612f9581612f59565b9050919050565b6000604082019050612fb160008301856128ec565b612fbe60208301846128ec565b9392505050565b7f537562736372697074696f6e2049442063616e6e6f74206265207a65726f0000600082015250565b6000612ffb601e83612eb3565b915061300682612fc5565b602082019050919050565b6000602082019050818103600083015261302a81612fee565b9050919050565b7f43616c6c6261636b20676173206c696d697420746f6f206c6f77000000000000600082015250565b6000613067601a83612eb3565b915061307282613031565b602082019050919050565b600060208201905081810360008301526130968161305a565b9050919050565b7f43616c6c6261636b20676173206c696d697420746f6f20686967680000000000600082015250565b60006130d3601b83612eb3565b91506130de8261309d565b602082019050919050565b60006020820190508181036000830152613102816130c6565b9050919050565b61311281612b5b565b82525050565b61312181612b91565b82525050565b600060608201905061313c6000830186612972565b6131496020830185613109565b6131566040830184613118565b949350505050565b7f46756e6374696f6e2063616e6e6f742062652063616c6c656420696e2063757260008201527f72656e7420737461746500000000000000000000000000000000000000000000602082015250565b60006131ba602a83612eb3565b91506131c58261315e565b604082019050919050565b600060208201905081810360008301526131e9816131ad565b9050919050565b7f4e6f742067616d65206f776e6572000000000000000000000000000000000000600082015250565b6000613226600e83612eb3565b9150613231826131f0565b602082019050919050565b6000602082019050818103600083015261325581613219565b9050919050565b7f47616d65206e6f7420696e2076616c696420737461746520666f7220656d657260008201527f67656e6379207769746864726177616c00000000000000000000000000000000602082015250565b60006132b8603083612eb3565b91506132c38261325c565b604082019050919050565b600060208201905081810360008301526132e7816132ab565b9050919050565b7f4e487b7100000000000000000000000000000000000000000000000000000000600052601160045260246000fd5b600061332882612857565b91506000820361333b5761333a6132ee565b5b600182039050919050565b7f456d657267656e6379207769746864726177616c206661696c65640000000000600082015250565b600061337c601b83612eb3565b915061338782613346565b602082019050919050565b600060208201905081810360008301526133ab8161336f565b9050919050565b7f57616765722069732062656c6f77206d696e696d756d206c696d697400000000600082015250565b60006133e8601c83612eb3565b91506133f3826133b2565b602082019050919050565b60006020820190508181036000830152613417816133db565b9050919050565b7f57616765722069732061626f7665206d6178696d756d206c696d697400000000600082015250565b6000613454601c83612eb3565b915061345f8261341e565b602082019050919050565b6000602082019050818103600083015261348381613447565b9050919050565b7f546f6f206d616e792070656e64696e672067616d65732c20747279206167616960008201527f6e206c6174657200000000000000000000000000000000000000000000000000602082015250565b60006134e6602783612eb3565b91506134f18261348a565b604082019050919050565b60006020820190508181036000830152613515816134d9565b9050919050565b600061352782612857565b915061353283612857565b925082820261354081612857565b91508282048414831517613557576135566132ee565b5b5092915050565b7f4e487b7100000000000000000000000000000000000000000000000000000000600052601260045260246000fd5b600061359882612857565b91506135a383612857565b9250826135b3576135b261355e565b5b828204905092915050565b60006135c982612857565b91506135d483612857565b92508282039050818111156135ec576135eb6132ee565b5b92915050565b7f436f6e74726163742068617320696e73756666696369656e742062616c616e6360008201527f6520666f7220706f74656e7469616c207061796f757400000000000000000000602082015250565b600061364e603683612eb3565b9150613659826135f2565b604082019050919050565b6000602082019050818103600083015261367d81613641565b9050919050565b600061368f82612857565b91507fffffffffffffffffffffffffffffffffffffffffffffffffffffffffffffffff82036136c1576136c06132ee565b5b600182019050919050565b6136d581612b5b565b82525050565b6136e481612857565b82525050565b600061ffff82169050919050565b613701816136ea565b82525050565b61371081612b91565b82525050565b600081519050919050565b600082825260208201905092915050565b60005b83811015613750578082015181840152602081019050613735565b60008484015250505050565b6000601f19601f8301169050919050565b600061377882613716565b6137828185613721565b9350613792818560208601613732565b61379b8161375c565b840191505092915050565b600060c0830160008301516137be60008601826136cc565b5060208301516137d160208601826136db565b5060408301516137e460408601826136f8565b5060608301516137f76060860182613707565b50608083015161380a6080860182613707565b5060a083015184820360a0860152613822828261376d565b9150508091505092915050565b6000602082019050818103600083015261384981846137a6565b905092915050565b60008151905061386081612861565b92915050565b60006020828403121561387c5761387b61284d565b5b600061388a84828501613851565b91505092915050565b60006040820190506138a86000830185612963565b6138b56020830184612972565b9392505050565b7f4d7573742062652070726f706f736564206f776e657200000000000000000000600082015250565b60006138f2601683612eb3565b91506138fd826138bc565b602082019050919050565b60006020820190508181036000830152613921816138e5565b9050919050565b600060608201905061393d60008301866128ec565b61394a60208301856128ec565b61395760408301846128ec565b949350505050565b7f4e6577206665652077616c6c65742063616e6e6f74206265207a65726f20616460008201527f6472657373000000000000000000000000000000000000000000000000000000602082015250565b60006139bb602583612eb3565b91506139c68261395f565b604082019050919050565b600060208201905081810360008301526139ea816139ae565b9050919050565b7f4d696e207761676572206d7573742062652067726561746572207468616e2030600082015250565b6000613a27602083612eb3565b9150613a32826139f1565b602082019050919050565b60006020820190508181036000830152613a5681613a1a565b9050919050565b7f4d6178207761676572206d7573742062652067726561746572207468616e206f60008201527f7220657175616c20746f206e6577206d696e2077616765720000000000000000602082015250565b6000613ab9603883612eb3565b9150613ac482613a5d565b604082019050919050565b60006020820190508181036000830152613ae881613aac565b9050919050565b7f4665652070657263656e746167652063616e6e6f74206578636565642031303060008201527f303020626173697320706f696e74732028313030252900000000000000000000602082015250565b6000613b4b603683612eb3565b9150613b5682613aef565b604082019050919050565b60006020820190508181036000830152613b7a81613b3e565b9050919050565b7f546f6b656e20616464726573732063616e6e6f74206265207a65726f00000000600082015250565b6000613bb7601c83612eb3565b9150613bc282613b81565b602082019050919050565b60006020820190508181036000830152613be681613baa565b9050919050565b6000604082019050613c0260008301856128ec565b613c0f6020830184612972565b9392505050565b613c1f81612981565b8114613c2a57600080fd5b50565b600081519050613c3c81613c16565b92915050565b600060208284031215613c5857613c5761284d565b5b6000613c6684828501613c2d565b91505092915050565b7f455243323020746f6b656e207769746864726177616c206661696c6564000000600082015250565b6000613ca5601d83612eb3565b9150613cb082613c6f565b602082019050919050565b60006020820190508181036000830152613cd481613c98565b9050919050565b7f4e6f2062616c616e636520746f20776974686472617700000000000000000000600082015250565b6000613d11601683612eb3565b9150613d1c82613cdb565b602082019050919050565b60006020820190508181036000830152613d4081613d04565b9050919050565b7f436f6e7472616374204554482062616c616e6365207769746864726177616c2060008201527f6661696c65640000000000000000000000000000000000000000000000000000602082015250565b6000613da3602683612eb3565b9150613dae82613d47565b604082019050919050565b60006020820190508181036000830152613dd281613d96565b9050919050565b7f4d6178207761676572206d7573742062652067726561746572207468616e206f60008201527f7220657175616c20746f206d696e207761676572000000000000000000000000602082015250565b6000613e35603483612eb3565b9150613e4082613dd9565b604082019050919050565b60006020820190508181036000830152613e6481613e28565b9050919050565b7f4d61782070656e64696e672067616d6573206d7573742062652067726561746560008201527f72207468616e2030000000000000000000000000000000000000000000000000602082015250565b6000613ec7602883612eb3565b9150613ed282613e6b565b604082019050919050565b60006020820190508181036000830152613ef681613eba565b9050919050565b600081905092915050565b50565b6000613f18600083613efd565b9150613f2382613f08565b600082019050919050565b6000613f3982613f0b565b9150819050919050565b7f4e487b7100000000000000000000000000000000000000000000000000000000600052603260045260246000fd5b7f47616d65206e6f7420696e207265717565737465642073746174650000000000600082015250565b6000613fa8601b83612eb3565b9150613fb382613f72565b602082019050919050565b60006020820190508181036000830152613fd781613f9b565b9050919050565b7f47616d6520616c726561647920736574746c6564000000000000000000000000600082015250565b6000614014601483612eb3565b915061401f82613fde565b602082019050919050565b6000602082019050818103600083015261404381614007565b9050919050565b600061405582612857565b915061406083612857565b9250826140705761406f61355e565b5b828206905092915050565b600061408682612857565b915061409183612857565b92508282019050808211156140a9576140a86132ee565b5b92915050565b7f436f6e74726163742068617320696e73756666696369656e742062616c616e6360008201527f6520666f722077696e207061796f757420616e64206665650000000000000000602082015250565b600061410b603883612eb3565b9150614116826140af565b604082019050919050565b6000602082019050818103600083015261413a816140fe565b9050919050565b7f436f6e74726163742068617320696e73756666696369656e742062616c616e6360008201527f6520666f7220666565207472616e73666572206f6e206c6f7373000000000000602082015250565b600061419d603a83612eb3565b91506141a882614141565b604082019050919050565b600060208201905081810360008301526141cc81614190565b9050919050565b60006080820190506141e86000830187612963565b6141f56020830186612972565b6142026040830185612972565b61420f606083018461298d565b95945050505050565b7f4f6e6c792063616c6c61626c65206279206f776e657200000000000000000000600082015250565b600061424e601683612eb3565b915061425982614218565b602082019050919050565b6000602082019050818103600083015261427d81614241565b9050919050565b7f43616e6e6f74207472616e7366657220746f2073656c66000000000000000000600082015250565b60006142ba601783612eb3565b91506142c582614284565b602082019050919050565b600060208201905081810360008301526142e9816142ad565b905091905056fea2646970667358221220445836185fe1ad8dd8149d4188bef2e319fce0fa769f8ed0ac62a1e353c646f464736f6c63430008180033",
  "linkReferences": {},
  "deployedLinkReferences": {}
}