{
  "_format": "hh-sol-artifact-1",
  "contractName": "FlipSkiBaseVRF",
  "sourceName": "contracts/FlipSkiBaseVRF.sol",
  "abi": [
    {
      "inputs": [
        {
          "internalType": "address payable",
          "name": "_initialFeeWallet",
          "type": "address"
        },
        {
          "internalType": "uint256",
          "name": "_initialFeePercentage",
          "type": "uint256"
        },
        {
          "internalType": "uint256",
          "name": "_initialMaxWager",
          "type": "uint256"
        },
        {
          "internalType": "uint256",
          "name": "_initialMinWager",
          "type": "uint256"
        },
        {
          "internalType": "address",
          "name": "_vrfCoordinator",
          "type": "address"
        },
        {
          "internalType": "uint256",
          "name": "_subscriptionId",
          "type": "uint256"
        },
        {
          "internalType": "bytes32",
          "name": "_keyHash",
          "type": "bytes32"
        },
        {
          "internalType": "address",
          "name": "_initialOwner",
          "type": "address"
        }
      ],
      "stateMutability": "nonpayable",
      "type": "constructor"
    },
    {
      "inputs": [],
      "name": "EnforcedPause",
      "type": "error"
    },
    {
      "inputs": [],
      "name": "ExpectedPause",
      "type": "error"
    },
    {
      "inputs": [
        {
          "internalType": "address",
          "name": "have",
          "type": "address"
        },
        {
          "internalType": "address",
          "name": "want",
          "type": "address"
        }
      ],
      "name": "OnlyCoordinatorCanFulfill",
      "type": "error"
    },
    {
      "inputs": [
        {
          "internalType": "address",
          "name": "have",
          "type": "address"
        },
        {
          "internalType": "address",
          "name": "owner",
          "type": "address"
        },
        {
          "internalType": "address",
          "name": "coordinator",
          "type": "address"
        }
      ],
      "name": "OnlyOwnerOrCoordinator",
      "type": "error"
    },
    {
      "inputs": [],
      "name": "ReentrancyGuardReentrantCall",
      "type": "error"
    },
    {
      "inputs": [],
      "name": "ZeroAddress",
      "type": "error"
    },
    {
      "anonymous": false,
      "inputs": [
        {
          "indexed": false,
          "internalType": "address",
          "name": "vrfCoordinator",
          "type": "address"
        }
      ],
      "name": "CoordinatorSet",
      "type": "event"
    },
    {
      "anonymous": false,
      "inputs": [
        {
          "indexed": true,
          "internalType": "uint256",
          "name": "gameId",
          "type": "uint256"
        },
        {
          "indexed": true,
          "internalType": "address",
          "name": "player",
          "type": "address"
        },
        {
          "indexed": false,
          "internalType": "uint256",
          "name": "amount",
          "type": "uint256"
        }
      ],
      "name": "EmergencyRefund",
      "type": "event"
    },
    {
      "anonymous": false,
      "inputs": [
        {
          "indexed": false,
          "internalType": "uint256",
          "name": "newFeePercentage",
          "type": "uint256"
        }
      ],
      "name": "FeePercentageUpdated",
      "type": "event"
    },
    {
      "anonymous": false,
      "inputs": [
        {
          "indexed": true,
          "internalType": "address",
          "name": "newFeeWallet",
          "type": "address"
        }
      ],
      "name": "FeeWalletUpdated",
      "type": "event"
    },
    {
      "anonymous": false,
      "inputs": [
        {
          "indexed": true,
          "internalType": "uint256",
          "name": "gameId",
          "type": "uint256"
        },
        {
          "indexed": true,
          "internalType": "address",
          "name": "player",
          "type": "address"
        },
        {
          "indexed": false,
          "internalType": "enum FlipSkiBaseVRF.CoinSide",
          "name": "choice",
          "type": "uint8"
        },
        {
          "indexed": false,
          "internalType": "uint256",
          "name": "wagerAmount",
          "type": "uint256"
        },
        {
          "indexed": true,
          "internalType": "uint256",
          "name": "vrfRequestId",
          "type": "uint256"
        }
      ],
      "name": "GameRequested",
      "type": "event"
    },
    {
      "anonymous": false,
      "inputs": [
        {
          "indexed": true,
          "internalType": "uint256",
          "name": "gameId",
          "type": "uint256"
        },
        {
          "indexed": true,
          "internalType": "address",
          "name": "player",
          "type": "address"
        },
        {
          "indexed": false,
          "internalType": "enum FlipSkiBaseVRF.CoinSide",
          "name": "result",
          "type": "uint8"
        },
        {
          "indexed": false,
          "internalType": "uint256",
          "name": "payoutAmount",
          "type": "uint256"
        },
        {
          "indexed": false,
          "internalType": "uint256",
          "name": "feeAmount",
          "type": "uint256"
        },
        {
          "indexed": true,
          "internalType": "uint256",
          "name": "vrfRequestId",
          "type": "uint256"
        },
        {
          "indexed": false,
          "internalType": "bool",
          "name": "playerWon",
          "type": "bool"
        }
      ],
      "name": "GameSettled",
      "type": "event"
    },
    {
      "anonymous": false,
      "inputs": [
        {
          "indexed": false,
          "internalType": "uint256",
          "name": "newMaxPendingGames",
          "type": "uint256"
        }
      ],
      "name": "MaxPendingGamesUpdated",
      "type": "event"
    },
    {
      "anonymous": false,
      "inputs": [
        {
          "indexed": false,
          "internalType": "uint256",
          "name": "newMaxWager",
          "type": "uint256"
        }
      ],
      "name": "MaxWagerUpdated",
      "type": "event"
    },
    {
      "anonymous": false,
      "inputs": [
        {
          "indexed": false,
          "internalType": "uint256",
          "name": "newMinWager",
          "type": "uint256"
        }
      ],
      "name": "MinWagerUpdated",
      "type": "event"
    },
    {
      "anonymous": false,
      "inputs": [
        {
          "indexed": true,
          "internalType": "address",
          "name": "from",
          "type": "address"
        },
        {
          "indexed": true,
          "internalType": "address",
          "name": "to",
          "type": "address"
        }
      ],
      "name": "OwnershipTransferRequested",
      "type": "event"
    },
    {
      "anonymous": false,
      "inputs": [
        {
          "indexed": true,
          "internalType": "address",
          "name": "from",
          "type": "address"
        },
        {
          "indexed": true,
          "internalType": "address",
          "name": "to",
          "type": "address"
        }
      ],
      "name": "OwnershipTransferred",
      "type": "event"
    },
    {
      "anonymous": false,
      "inputs": [
        {
          "indexed": false,
          "internalType": "address",
          "name": "account",
          "type": "address"
        }
      ],
      "name": "Paused",
      "type": "event"
    },
    {
      "anonymous": false,
      "inputs": [
        {
          "indexed": true,
          "internalType": "uint256",
          "name": "gameId",
          "type": "uint256"
        },
        {
          "indexed": true,
          "internalType": "uint256",
          "name": "vrfRequestId",
          "type": "uint256"
        },
        {
          "indexed": false,
          "internalType": "uint256",
          "name": "randomWord",
          "type": "uint256"
        }
      ],
      "name": "RandomWordReceived",
      "type": "event"
    },
    {
      "anonymous": false,
      "inputs": [
        {
          "indexed": false,
          "internalType": "address",
          "name": "account",
          "type": "address"
        }
      ],
      "name": "Unpaused",
      "type": "event"
    },
    {
      "anonymous": false,
      "inputs": [
        {
          "indexed": false,
          "internalType": "uint256",
          "name": "newSubscriptionId",
          "type": "uint256"
        },
        {
          "indexed": false,
          "internalType": "bytes32",
          "name": "newKeyHash",
          "type": "bytes32"
        },
        {
          "indexed": false,
          "internalType": "uint32",
          "name": "newCallbackGasLimit",
          "type": "uint32"
        }
      ],
      "name": "VRFParametersUpdated",
      "type": "event"
    },
    {
      "stateMutability": "payable",
      "type": "fallback"
    },
    {
      "inputs": [],
      "name": "EMERGENCY_TIMEOUT",
      "outputs": [
        {
          "internalType": "uint256",
          "name": "",
          "type": "uint256"
        }
      ],
      "stateMutability": "view",
      "type": "function"
    },
    {
      "inputs": [],
      "name": "acceptOwnership",
      "outputs": [],
      "stateMutability": "nonpayable",
      "type": "function"
    },
    {
      "inputs": [
        {
          "internalType": "uint256",
          "name": "_gameId",
          "type": "uint256"
        }
      ],
      "name": "emergencyRefund",
      "outputs": [],
      "stateMutability": "nonpayable",
      "type": "function"
    },
    {
      "inputs": [],
      "name": "feePercentage",
      "outputs": [
        {
          "internalType": "uint256",
          "name": "",
          "type": "uint256"
        }
      ],
      "stateMutability": "view",
      "type": "function"
    },
    {
      "inputs": [],
      "name": "feeWallet",
      "outputs": [
        {
          "internalType": "address payable",
          "name": "",
          "type": "address"
        }
      ],
      "stateMutability": "view",
      "type": "function"
    },
    {
      "inputs": [
        {
          "internalType": "enum FlipSkiBaseVRF.CoinSide",
          "name": "_choice",
          "type": "uint8"
        }
      ],
      "name": "flip",
      "outputs": [],
      "stateMutability": "payable",
      "type": "function"
    },
    {
      "inputs": [],
      "name": "gameIdCounter",
      "outputs": [
        {
          "internalType": "uint256",
          "name": "",
          "type": "uint256"
        }
      ],
      "stateMutability": "view",
      "type": "function"
    },
    {
      "inputs": [
        {
          "internalType": "uint256",
          "name": "",
          "type": "uint256"
        }
      ],
      "name": "games",
      "outputs": [
        {
          "internalType": "address",
          "name": "player",
          "type": "address"
        },
        {
          "internalType": "enum FlipSkiBaseVRF.CoinSide",
          "name": "choice",
          "type": "uint8"
        },
        {
          "internalType": "uint256",
          "name": "wagerAmount",
          "type": "uint256"
        },
        {
          "internalType": "uint256",
          "name": "feeAmount",
          "type": "uint256"
        },
        {
          "internalType": "uint256",
          "name": "payoutAmount",
          "type": "uint256"
        },
        {
          "internalType": "enum FlipSkiBaseVRF.CoinSide",
          "name": "result",
          "type": "uint8"
        },
        {
          "internalType": "bool",
          "name": "requested",
          "type": "bool"
        },
        {
          "internalType": "bool",
          "name": "settled",
          "type": "bool"
        },
        {
          "internalType": "uint256",
          "name": "vrfRequestId",
          "type": "uint256"
        },
        {
          "internalType": "uint256",
          "name": "requestTimestamp",
          "type": "uint256"
        }
      ],
      "stateMutability": "view",
      "type": "function"
    },
    {
      "inputs": [
        {
          "internalType": "uint256",
          "name": "_gameId",
          "type": "uint256"
        }
      ],
      "name": "isEligibleForEmergencyRefund",
      "outputs": [
        {
          "internalType": "bool",
          "name": "",
          "type": "bool"
        }
      ],
      "stateMutability": "view",
      "type": "function"
    },
    {
      "inputs": [],
      "name": "maxPendingGamesPerPlayer",
      "outputs": [
        {
          "internalType": "uint256",
          "name": "",
          "type": "uint256"
        }
      ],
      "stateMutability": "view",
      "type": "function"
    },
    {
      "inputs": [],
      "name": "maxWager",
      "outputs": [
        {
          "internalType": "uint256",
          "name": "",
          "type": "uint256"
        }
      ],
      "stateMutability": "view",
      "type": "function"
    },
    {
      "inputs": [],
      "name": "minWager",
      "outputs": [
        {
          "internalType": "uint256",
          "name": "",
          "type": "uint256"
        }
      ],
      "stateMutability": "view",
      "type": "function"
    },
    {
      "inputs": [],
      "name": "owner",
      "outputs": [
        {
          "internalType": "address",
          "name": "",
          "type": "address"
        }
      ],
      "stateMutability": "view",
      "type": "function"
    },
    {
      "inputs": [],
      "name": "pause",
      "outputs": [],
      "stateMutability": "nonpayable",
      "type": "function"
    },
    {
      "inputs": [],
      "name": "paused",
      "outputs": [
        {
          "internalType": "bool",
          "name": "",
          "type": "bool"
        }
      ],
      "stateMutability": "view",
      "type": "function"
    },
    {
      "inputs": [
        {
          "internalType": "address",
          "name": "",
          "type": "address"
        }
      ],
      "name": "pendingGamesPerPlayer",
      "outputs": [
        {
          "internalType": "uint256",
          "name": "",
          "type": "uint256"
        }
      ],
      "stateMutability": "view",
      "type": "function"
    },
    {
      "inputs": [
        {
          "internalType": "uint256",
          "name": "requestId",
          "type": "uint256"
        },
        {
          "internalType": "uint256[]",
          "name": "randomWords",
          "type": "uint256[]"
        }
      ],
      "name": "rawFulfillRandomWords",
      "outputs": [],
      "stateMutability": "nonpayable",
      "type": "function"
    },
    {
      "inputs": [],
      "name": "s_vrfCoordinator",
      "outputs": [
        {
          "internalType": "contract IVRFCoordinatorV2Plus",
          "name": "",
          "type": "address"
        }
      ],
      "stateMutability": "view",
      "type": "function"
    },
    {
      "inputs": [
        {
          "internalType": "address",
          "name": "_vrfCoordinator",
          "type": "address"
        }
      ],
      "name": "setCoordinator",
      "outputs": [],
      "stateMutability": "nonpayable",
      "type": "function"
    },
    {
      "inputs": [
        {
          "internalType": "uint256",
          "name": "_newFeePercentage",
          "type": "uint256"
        }
      ],
      "name": "setFeePercentage",
      "outputs": [],
      "stateMutability": "nonpayable",
      "type": "function"
    },
    {
      "inputs": [
        {
          "internalType": "address payable",
          "name": "_newFeeWallet",
          "type": "address"
        }
      ],
      "name": "setFeeWallet",
      "outputs": [],
      "stateMutability": "nonpayable",
      "type": "function"
    },
    {
      "inputs": [
        {
          "internalType": "uint256",
          "name": "_maxPendingGames",
          "type": "uint256"
        }
      ],
      "name": "setMaxPendingGamesPerPlayer",
      "outputs": [],
      "stateMutability": "nonpayable",
      "type": "function"
    },
    {
      "inputs": [
        {
          "internalType": "uint256",
          "name": "_newMaxWager",
          "type": "uint256"
        }
      ],
      "name": "setMaxWager",
      "outputs": [],
      "stateMutability": "nonpayable",
      "type": "function"
    },
    {
      "inputs": [
        {
          "internalType": "uint256",
          "name": "_newMinWager",
          "type": "uint256"
        }
      ],
      "name": "setMinWager",
      "outputs": [],
      "stateMutability": "nonpayable",
      "type": "function"
    },
    {
      "inputs": [
        {
          "internalType": "uint256",
          "name": "_newSubscriptionId",
          "type": "uint256"
        },
        {
          "internalType": "bytes32",
          "name": "_newKeyHash",
          "type": "bytes32"
        },
        {
          "internalType": "uint32",
          "name": "_newCallbackGasLimit",
          "type": "uint32"
        }
      ],
      "name": "setVRFParameters",
      "outputs": [],
      "stateMutability": "nonpayable",
      "type": "function"
    },
    {
      "inputs": [
        {
          "internalType": "address",
          "name": "to",
          "type": "address"
        }
      ],
      "name": "transferOwnership",
      "outputs": [],
      "stateMutability": "nonpayable",
      "type": "function"
    },
    {
      "inputs": [],
      "name": "unpause",
      "outputs": [],
      "stateMutability": "nonpayable",
      "type": "function"
    },
    {
      "inputs": [
        {
          "internalType": "uint256",
          "name": "",
          "type": "uint256"
        }
      ],
      "name": "vrfRequestToGameId",
      "outputs": [
        {
          "internalType": "uint256",
          "name": "",
          "type": "uint256"
        }
      ],
      "stateMutability": "view",
      "type": "function"
    },
    {
      "inputs": [],
      "name": "withdrawContractBalance",
      "outputs": [],
      "stateMutability": "nonpayable",
      "type": "function"
    },
    {
      "inputs": [
        {
          "internalType": "address",
          "name": "_tokenAddress",
          "type": "address"
        },
        {
          "internalType": "uint256",
          "name": "_amount",
          "type": "uint256"
        }
      ],
      "name": "withdrawStuckTokens",
      "outputs": [],
      "stateMutability": "nonpayable",
      "type": "function"
    },
    {
      "stateMutability": "payable",
      "type": "receive"
    }
  ],
  "bytecode": "0x60a060405262046cd0600760006101000a81548163ffffffff021916908363ffffffff1602179055506003600b553480156200003a57600080fd5b506040516200499b3803806200499b83398181016040528101906200006091906200080b565b833380600060018081905550600073ffffffffffffffffffffffffffffffffffffffff168273ffffffffffffffffffffffffffffffffffffffff1603620000de576040517f08c379a0000000000000000000000000000000000000000000000000000000008152600401620000d59062000935565b60405180910390fd5b81600260006101000a81548173ffffffffffffffffffffffffffffffffffffffff021916908373ffffffffffffffffffffffffffffffffffffffff160217905550600073ffffffffffffffffffffffffffffffffffffffff168173ffffffffffffffffffffffffffffffffffffffff161462000166576200016581620004fc60201b60201c565b5b505050600073ffffffffffffffffffffffffffffffffffffffff168173ffffffffffffffffffffffffffffffffffffffff1603620001d0576040517fd92e233d00000000000000000000000000000000000000000000000000000000815260040160405180910390fd5b80600460006101000a81548173ffffffffffffffffffffffffffffffffffffffff021916908373ffffffffffffffffffffffffffffffffffffffff16021790555050600073ffffffffffffffffffffffffffffffffffffffff168873ffffffffffffffffffffffffffffffffffffffff160362000284576040517f08c379a00000000000000000000000000000000000000000000000000000000081526004016200027b90620009cd565b60405180910390fd5b612710871115620002cc576040517f08c379a0000000000000000000000000000000000000000000000000000000008152600401620002c39062000a65565b60405180910390fd5b6000851162000312576040517f08c379a0000000000000000000000000000000000000000000000000000000008152600401620003099062000ad7565b60405180910390fd5b8486101562000358576040517f08c379a00000000000000000000000000000000000000000000000000000000081526004016200034f9062000b6f565b60405180910390fd5b600073ffffffffffffffffffffffffffffffffffffffff168473ffffffffffffffffffffffffffffffffffffffff1603620003ca576040517f08c379a0000000000000000000000000000000000000000000000000000000008152600401620003c19062000c07565b60405180910390fd5b6000830362000410576040517f08c379a0000000000000000000000000000000000000000000000000000000008152600401620004079062000c79565b60405180910390fd5b3373ffffffffffffffffffffffffffffffffffffffff168173ffffffffffffffffffffffffffffffffffffffff1614620004565762000455816200062d60201b60201c565b5b87600760046101000a81548173ffffffffffffffffffffffffffffffffffffffff021916908373ffffffffffffffffffffffffffffffffffffffff160217905550866008819055508560098190555084600a819055508373ffffffffffffffffffffffffffffffffffffffff1660808173ffffffffffffffffffffffffffffffffffffffff16815250508260058190555081600681905550505050505050505062000d7f565b3373ffffffffffffffffffffffffffffffffffffffff168173ffffffffffffffffffffffffffffffffffffffff16036200056d576040517f08c379a0000000000000000000000000000000000000000000000000000000008152600401620005649062000ceb565b60405180910390fd5b80600360006101000a81548173ffffffffffffffffffffffffffffffffffffffff021916908373ffffffffffffffffffffffffffffffffffffffff1602179055508073ffffffffffffffffffffffffffffffffffffffff16600260009054906101000a900473ffffffffffffffffffffffffffffffffffffffff1673ffffffffffffffffffffffffffffffffffffffff167fed8889f560326eb138920d842192f0eb3dd22b4f139c87a2c57538e05bae127860405160405180910390a350565b6200063d6200065160201b60201c565b6200064e81620004fc60201b60201c565b50565b600260009054906101000a900473ffffffffffffffffffffffffffffffffffffffff1673ffffffffffffffffffffffffffffffffffffffff163373ffffffffffffffffffffffffffffffffffffffff1614620006e4576040517f08c379a0000000000000000000000000000000000000000000000000000000008152600401620006db9062000d5d565b60405180910390fd5b565b600080fd5b600073ffffffffffffffffffffffffffffffffffffffff82169050919050565b60006200071882620006eb565b9050919050565b6200072a816200070b565b81146200073657600080fd5b50565b6000815190506200074a816200071f565b92915050565b6000819050919050565b620007658162000750565b81146200077157600080fd5b50565b60008151905062000785816200075a565b92915050565b60006200079882620006eb565b9050919050565b620007aa816200078b565b8114620007b657600080fd5b50565b600081519050620007ca816200079f565b92915050565b6000819050919050565b620007e581620007d0565b8114620007f157600080fd5b50565b6000815190506200080581620007da565b92915050565b600080600080600080600080610100898b0312156200082f576200082e620006e6565b5b60006200083f8b828c0162000739565b9850506020620008528b828c0162000774565b9750506040620008658b828c0162000774565b9650506060620008788b828c0162000774565b95505060806200088b8b828c01620007b9565b94505060a06200089e8b828c0162000774565b93505060c0620008b18b828c01620007f4565b92505060e0620008c48b828c01620007b9565b9150509295985092959890939650565b600082825260208201905092915050565b7f43616e6e6f7420736574206f776e657220746f207a65726f0000000000000000600082015250565b60006200091d601883620008d4565b91506200092a82620008e5565b602082019050919050565b6000602082019050818103600083015262000950816200090e565b9050919050565b7f4665652077616c6c65742063616e6e6f74206265207a65726f2061646472657360008201527f7300000000000000000000000000000000000000000000000000000000000000602082015250565b6000620009b5602183620008d4565b9150620009c28262000957565b604082019050919050565b60006020820190508181036000830152620009e881620009a6565b9050919050565b7f4665652070657263656e746167652063616e6e6f74206578636565642031303060008201527f303020626173697320706f696e74732028313030252900000000000000000000602082015250565b600062000a4d603683620008d4565b915062000a5a82620009ef565b604082019050919050565b6000602082019050818103600083015262000a808162000a3e565b9050919050565b7f4d696e207761676572206d7573742062652067726561746572207468616e2030600082015250565b600062000abf602083620008d4565b915062000acc8262000a87565b602082019050919050565b6000602082019050818103600083015262000af28162000ab0565b9050919050565b7f4d6178207761676572206d7573742062652067726561746572207468616e206f60008201527f7220657175616c20746f206d696e207761676572000000000000000000000000602082015250565b600062000b57603483620008d4565b915062000b648262000af9565b604082019050919050565b6000602082019050818103600083015262000b8a8162000b48565b9050919050565b7f56524620436f6f7264696e61746f7220616464726573732063616e6e6f74206260008201527f65207a65726f0000000000000000000000000000000000000000000000000000602082015250565b600062000bef602683620008d4565b915062000bfc8262000b91565b604082019050919050565b6000602082019050818103600083015262000c228162000be0565b9050919050565b7f537562736372697074696f6e2049442063616e6e6f74206265207a65726f0000600082015250565b600062000c61601e83620008d4565b915062000c6e8262000c29565b602082019050919050565b6000602082019050818103600083015262000c948162000c52565b9050919050565b7f43616e6e6f74207472616e7366657220746f2073656c66000000000000000000600082015250565b600062000cd3601783620008d4565b915062000ce08262000c9b565b602082019050919050565b6000602082019050818103600083015262000d068162000cc4565b9050919050565b7f4f6e6c792063616c6c61626c65206279206f776e657200000000000000000000600082015250565b600062000d45601683620008d4565b915062000d528262000d0d565b602082019050919050565b6000602082019050818103600083015262000d788162000d36565b9050919050565b608051613c0062000d9b6000396000610cd40152613c006000f3fe6080604052600436106101d15760003560e01c80638ea98117116100f7578063bb9c3f2b11610095578063d15b48b911610064578063d15b48b914610606578063da7c0dc91461062f578063f25f4b561461066c578063f2fde38b14610697576101d8565b8063bb9c3f2b1461055e578063bd61f0a614610589578063bfab3db9146105b2578063d0d48574146105c9576101d8565b80639eccacf6116100d15780639eccacf6146104b4578063a001ecdd146104df578063a52ef3fa1461050a578063ae06c1b714610535576101d8565b80638ea981171461043957806390d49b9d146104625780639ae980a81461048b576101d8565b80635c975abb1161016f57806379ba50971161013e57806379ba5097146103b55780637f264076146103cc5780638456cb59146103f75780638da5cb5b1461040e576101d8565b80635c975abb1461031a578063638c06371461034557806370e5deb914610361578063785979171461038a576101d8565b80631fe543e3116101ab5780631fe543e3146102745780633f4ba83a1461029d5780634228487c146102b457806344e493fa146102dd576101d8565b80630c32ddab146101da578063117a5b90146102035780631bb412d614610249576101d8565b366101d857005b005b3480156101e657600080fd5b5061020160048036038101906101fc9190612475565b6106c0565b005b34801561020f57600080fd5b5061022a60048036038101906102259190612475565b61074c565b6040516102409a99989796959493929190612584565b60405180910390f35b34801561025557600080fd5b5061025e6107f4565b60405161026b9190612620565b60405180910390f35b34801561028057600080fd5b5061029b600480360381019061029691906126a0565b6107fa565b005b3480156102a957600080fd5b506102b26108c0565b005b3480156102c057600080fd5b506102db60048036038101906102d69190612772565b6108da565b005b3480156102e957600080fd5b5061030460048036038101906102ff9190612475565b6109f3565b6040516103119190612620565b60405180910390f35b34801561032657600080fd5b5061032f610a0b565b60405161033c91906127c5565b60405180910390f35b61035f600480360381019061035a9190612805565b610a21565b005b34801561036d57600080fd5b5061038860048036038101906103839190612475565b610df3565b005b34801561039657600080fd5b5061039f611125565b6040516103ac9190612620565b60405180910390f35b3480156103c157600080fd5b506103ca61112b565b005b3480156103d857600080fd5b506103e16112c2565b6040516103ee9190612620565b60405180910390f35b34801561040357600080fd5b5061040c6112c8565b005b34801561041a57600080fd5b506104236112e2565b6040516104309190612832565b60405180910390f35b34801561044557600080fd5b50610460600480360381019061045b9190612879565b61130c565b005b34801561046e57600080fd5b50610489600480360381019061048491906128e4565b6114ed565b005b34801561049757600080fd5b506104b260048036038101906104ad9190612475565b6115eb565b005b3480156104c057600080fd5b506104c96116bc565b6040516104d69190612970565b60405180910390f35b3480156104eb57600080fd5b506104f46116e2565b6040516105019190612620565b60405180910390f35b34801561051657600080fd5b5061051f6116e8565b60405161052c9190612620565b60405180910390f35b34801561054157600080fd5b5061055c60048036038101906105579190612475565b6116ee565b005b34801561056a57600080fd5b5061057361177c565b6040516105809190612620565b60405180910390f35b34801561059557600080fd5b506105b060048036038101906105ab919061298b565b611782565b005b3480156105be57600080fd5b506105c76118cd565b005b3480156105d557600080fd5b506105f060048036038101906105eb9190612879565b6119e4565b6040516105fd9190612620565b60405180910390f35b34801561061257600080fd5b5061062d60048036038101906106289190612475565b6119fc565b005b34801561063b57600080fd5b5061065660048036038101906106519190612475565b611a8a565b60405161066391906127c5565b60405180910390f35b34801561067857600080fd5b50610681611af4565b60405161068e91906129da565b60405180910390f35b3480156106a357600080fd5b506106be60048036038101906106b99190612879565b611b1a565b005b6106c8611b2e565b6000811161070b576040517f08c379a000000000000000000000000000000000000000000000000000000000815260040161070290612a78565b60405180910390fd5b80600b819055507fc4d51a6c1951412ad8a431f18b3ec5e22b9431935778db34362b15e3692c9522816040516107419190612620565b60405180910390a150565b600e6020528060005260406000206000915090508060000160009054906101000a900473ffffffffffffffffffffffffffffffffffffffff16908060000160149054906101000a900460ff16908060010154908060020154908060030154908060040160009054906101000a900460ff16908060040160019054906101000a900460ff16908060040160029054906101000a900460ff1690806005015490806006015490508a565b600d5481565b600460009054906101000a900473ffffffffffffffffffffffffffffffffffffffff1673ffffffffffffffffffffffffffffffffffffffff163373ffffffffffffffffffffffffffffffffffffffff16146108b05733600460009054906101000a900473ffffffffffffffffffffffffffffffffffffffff166040517f1cf993f40000000000000000000000000000000000000000000000000000000081526004016108a7929190612a98565b60405180910390fd5b6108bb838383611bc0565b505050565b6108c8611b2e565b6108d061216b565b6108d86121ab565b565b6108e2611b2e565b60008303610925576040517f08c379a000000000000000000000000000000000000000000000000000000000815260040161091c90612b0d565b60405180910390fd5b60008163ffffffff161161096e576040517f08c379a000000000000000000000000000000000000000000000000000000000815260040161096590612b9f565b60405180910390fd5b826005819055508160068190555080600760006101000a81548163ffffffff021916908363ffffffff1602179055507fb7217e99784358ecd33b535f3d43fb8f45c1f26724cba648d2843b3be82b5bb6600554600654600760009054906101000a900463ffffffff166040516109e693929190612bdd565b60405180910390a1505050565b600f6020528060005260406000206000915090505481565b60008060009054906101000a900460ff16905090565b610a2961220d565b610a3161224e565b600a54341015610a76576040517f08c379a0000000000000000000000000000000000000000000000000000000008152600401610a6d90612c60565b60405180910390fd5b600954341115610abb576040517f08c379a0000000000000000000000000000000000000000000000000000000008152600401610ab290612ccc565b60405180910390fd5b600b54600c60003373ffffffffffffffffffffffffffffffffffffffff1673ffffffffffffffffffffffffffffffffffffffff1681526020019081526020016000205410610b3e576040517f08c379a0000000000000000000000000000000000000000000000000000000008152600401610b3590612d5e565b60405180910390fd5b60003490506000600d6000815480929190610b5890612dad565b9190505590506000600e60008381526020019081526020016000209050338160000160006101000a81548173ffffffffffffffffffffffffffffffffffffffff021916908373ffffffffffffffffffffffffffffffffffffffff160217905550838160000160146101000a81548160ff02191690836001811115610bdf57610bde6124e3565b5b021790555082816001018190555060018160040160016101000a81548160ff021916908315150217905550428160060181905550600c60003373ffffffffffffffffffffffffffffffffffffffff1673ffffffffffffffffffffffffffffffffffffffff1681526020019081526020016000206000815480929190610c6390612dad565b919050555060006040518060c0016040528060065481526020016005548152602001600361ffff168152602001600760009054906101000a900463ffffffff1663ffffffff168152602001600163ffffffff16815260200160405180602001604052806000815250815250905060007f000000000000000000000000000000000000000000000000000000000000000073ffffffffffffffffffffffffffffffffffffffff16639b1c385e836040518263ffffffff1660e01b8152600401610d2b9190612f58565b6020604051808303816000875af1158015610d4a573d6000803e3d6000fd5b505050506040513d601f19601f82011682018060405250810190610d6e9190612f8f565b905080836005018190555083600f600083815260200190815260200160002081905550803373ffffffffffffffffffffffffffffffffffffffff16857ff997d823f48f374dcf320abcfb4c14d035a288d7cc3e31d98a18d02b41bc56f78989604051610ddb929190612fbc565b60405180910390a45050505050610df0612294565b50565b610dfb611b2e565b610e0361224e565b6000600e600083815260200190815260200160002090508060040160019054906101000a900460ff16610e6b576040517f08c379a0000000000000000000000000000000000000000000000000000000008152600401610e6290613031565b60405180910390fd5b8060040160029054906101000a900460ff1615610ebd576040517f08c379a0000000000000000000000000000000000000000000000000000000008152600401610eb49061309d565b60405180910390fd5b610e108160060154610ecf91906130bd565b421015610f11576040517f08c379a0000000000000000000000000000000000000000000000000000000008152600401610f0890613163565b60405180910390fd5b60008160000160009054906101000a900473ffffffffffffffffffffffffffffffffffffffff16905060008260010154905060018360040160026101000a81548160ff02191690831515021790555060008360040160016101000a81548160ff0219169083151502179055506000600c60008473ffffffffffffffffffffffffffffffffffffffff1673ffffffffffffffffffffffffffffffffffffffff16815260200190815260200160002054111561101b57600c60008373ffffffffffffffffffffffffffffffffffffffff1673ffffffffffffffffffffffffffffffffffffffff168152602001908152602001600020600081548092919061101590613183565b91905055505b60008273ffffffffffffffffffffffffffffffffffffffff1682604051611041906131dd565b60006040518083038185875af1925050503d806000811461107e576040519150601f19603f3d011682016040523d82523d6000602084013e611083565b606091505b50509050806110c7576040517f08c379a00000000000000000000000000000000000000000000000000000000081526004016110be9061323e565b60405180910390fd5b8273ffffffffffffffffffffffffffffffffffffffff16857fbd634c7bdf536d4ef89dad94ea8933d03e5fbb8be4f85fc7699f5859497d793f8460405161110e9190612620565b60405180910390a350505050611122612294565b50565b600b5481565b600360009054906101000a900473ffffffffffffffffffffffffffffffffffffffff1673ffffffffffffffffffffffffffffffffffffffff163373ffffffffffffffffffffffffffffffffffffffff16146111bb576040517f08c379a00000000000000000000000000000000000000000000000000000000081526004016111b2906132aa565b60405180910390fd5b6000600260009054906101000a900473ffffffffffffffffffffffffffffffffffffffff16905033600260006101000a81548173ffffffffffffffffffffffffffffffffffffffff021916908373ffffffffffffffffffffffffffffffffffffffff1602179055506000600360006101000a81548173ffffffffffffffffffffffffffffffffffffffff021916908373ffffffffffffffffffffffffffffffffffffffff1602179055503373ffffffffffffffffffffffffffffffffffffffff168173ffffffffffffffffffffffffffffffffffffffff167f8be0079c531659141344cd1fd0a4f28419497f9722a3daafe3b4186f6b6457e060405160405180910390a350565b610e1081565b6112d0611b2e565b6112d861220d565b6112e061229d565b565b6000600260009054906101000a900473ffffffffffffffffffffffffffffffffffffffff16905090565b6113146112e2565b73ffffffffffffffffffffffffffffffffffffffff163373ffffffffffffffffffffffffffffffffffffffff161415801561139d5750600460009054906101000a900473ffffffffffffffffffffffffffffffffffffffff1673ffffffffffffffffffffffffffffffffffffffff163373ffffffffffffffffffffffffffffffffffffffff1614155b1561140c57336113ab6112e2565b600460009054906101000a900473ffffffffffffffffffffffffffffffffffffffff166040517f061db9c1000000000000000000000000000000000000000000000000000000008152600401611403939291906132ca565b60405180910390fd5b600073ffffffffffffffffffffffffffffffffffffffff168173ffffffffffffffffffffffffffffffffffffffff1603611472576040517fd92e233d00000000000000000000000000000000000000000000000000000000815260040160405180910390fd5b80600460006101000a81548173ffffffffffffffffffffffffffffffffffffffff021916908373ffffffffffffffffffffffffffffffffffffffff1602179055507fd1a6a14209a385a964d036e404cb5cfb71f4000cdb03c9366292430787261be6816040516114e29190612832565b60405180910390a150565b6114f5611b2e565b600073ffffffffffffffffffffffffffffffffffffffff168173ffffffffffffffffffffffffffffffffffffffff1603611564576040517f08c379a000000000000000000000000000000000000000000000000000000000815260040161155b90613373565b60405180910390fd5b80600760046101000a81548173ffffffffffffffffffffffffffffffffffffffff021916908373ffffffffffffffffffffffffffffffffffffffff1602179055508073ffffffffffffffffffffffffffffffffffffffff167f29acee77dafcfa0143d74a7ea236018f3a6e1fa71e27fc59bbfbc6b8ca8edccd60405160405180910390a250565b6115f3611b2e565b60008111611636576040517f08c379a000000000000000000000000000000000000000000000000000000000815260040161162d906133df565b60405180910390fd5b80600954101561167b576040517f08c379a000000000000000000000000000000000000000000000000000000000815260040161167290613471565b60405180910390fd5b80600a819055507f6802a03dd8e2f6a4dc2ab8cf753936dc2aeced88bcd60edfa3d49faba6bc1ade816040516116b19190612620565b60405180910390a150565b600460009054906101000a900473ffffffffffffffffffffffffffffffffffffffff1681565b60085481565b60095481565b6116f6611b2e565b61271081111561173b576040517f08c379a000000000000000000000000000000000000000000000000000000000815260040161173290613503565b60405180910390fd5b806008819055507f74516f05eb4bd2461d57aa1e935ee553f86a3e02bfed7759f2f772915de3d9be816040516117719190612620565b60405180910390a150565b600a5481565b61178a611b2e565b600073ffffffffffffffffffffffffffffffffffffffff168273ffffffffffffffffffffffffffffffffffffffff16036117f9576040517f08c379a00000000000000000000000000000000000000000000000000000000081526004016117f09061356f565b60405180910390fd5b600082905060008173ffffffffffffffffffffffffffffffffffffffff1663a9059cbb6118246112e2565b856040518363ffffffff1660e01b815260040161184292919061358f565b6020604051808303816000875af1158015611861573d6000803e3d6000fd5b505050506040513d601f19601f8201168201806040525081019061188591906135e4565b9050806118c7576040517f08c379a00000000000000000000000000000000000000000000000000000000081526004016118be9061365d565b60405180910390fd5b50505050565b6118d5611b2e565b6118dd61224e565b600047905060008111611925576040517f08c379a000000000000000000000000000000000000000000000000000000000815260040161191c906136c9565b60405180910390fd5b600061192f6112e2565b73ffffffffffffffffffffffffffffffffffffffff1682604051611952906131dd565b60006040518083038185875af1925050503d806000811461198f576040519150601f19603f3d011682016040523d82523d6000602084013e611994565b606091505b50509050806119d8576040517f08c379a00000000000000000000000000000000000000000000000000000000081526004016119cf9061375b565b60405180910390fd5b50506119e2612294565b565b600c6020528060005260406000206000915090505481565b611a04611b2e565b600a54811015611a49576040517f08c379a0000000000000000000000000000000000000000000000000000000008152600401611a40906137ed565b60405180910390fd5b806009819055507f2842cf99332cf44653926376c4c0f5d0f91b749469ac9999bb1c6c9d728b1ba881604051611a7f9190612620565b60405180910390a150565b600080600e600084815260200190815260200160002090508060040160019054906101000a900460ff168015611acf57508060040160029054906101000a900460ff16155b8015611aec5750610e108160060154611ae891906130bd565b4210155b915050919050565b600760049054906101000a900473ffffffffffffffffffffffffffffffffffffffff1681565b611b22611b2e565b611b2b816122ff565b50565b600260009054906101000a900473ffffffffffffffffffffffffffffffffffffffff1673ffffffffffffffffffffffffffffffffffffffff163373ffffffffffffffffffffffffffffffffffffffff1614611bbe576040517f08c379a0000000000000000000000000000000000000000000000000000000008152600401611bb590613859565b60405180910390fd5b565b6000600f60008581526020019081526020016000205490506000600e6000838152602001908152602001600020905084827f720b522b8e74026e68a96b8bffa25a22f6710cddecf55c275acd7f88c4a3a8e486866000818110611c2657611c25613879565b5b90506020020135604051611c3a9190612620565b60405180910390a38060040160019054906101000a900460ff16611c93576040517f08c379a0000000000000000000000000000000000000000000000000000000008152600401611c8a90613031565b60405180910390fd5b8060040160029054906101000a900460ff1615611ce5576040517f08c379a0000000000000000000000000000000000000000000000000000000008152600401611cdc9061309d565b60405180910390fd5b60008160040160016101000a81548160ff0219169083151502179055506000600285856000818110611d1a57611d19613879565b5b90506020020135611d2b91906138d7565b14611d37576001611d3a565b60005b8160040160006101000a81548160ff02191690836001811115611d6057611d5f6124e3565b5b021790555060008160010154905060008260000160149054906101000a900460ff166001811115611d9457611d936124e3565b5b8360040160009054906101000a900460ff166001811115611db857611db76124e3565b5b14905060008360000160009054906101000a900473ffffffffffffffffffffffffffffffffffffffff16905060018460040160026101000a81548160ff0219169083151502179055506000600c60008373ffffffffffffffffffffffffffffffffffffffff1673ffffffffffffffffffffffffffffffffffffffff168152602001908152602001600020541115611e9f57600c60008273ffffffffffffffffffffffffffffffffffffffff1673ffffffffffffffffffffffffffffffffffffffff1681526020019081526020016000206000815480929190611e9990613183565b91905055505b81156120dd57600061271060085485611eb89190613908565b611ec2919061394a565b90508085600201819055506000600285611edc9190613908565b905060008282611eec919061397b565b90508087600301819055508281611f0391906130bd565b471015611f45576040517f08c379a0000000000000000000000000000000000000000000000000000000008152600401611f3c90613a21565b60405180910390fd5b6000811115611ffc5760008473ffffffffffffffffffffffffffffffffffffffff1682604051611f74906131dd565b60006040518083038185875af1925050503d8060008114611fb1576040519150601f19603f3d011682016040523d82523d6000602084013e611fb6565b606091505b5050905080611ffa576040517f08c379a0000000000000000000000000000000000000000000000000000000008152600401611ff190613a8d565b60405180910390fd5b505b60008311156120d5576000600760049054906101000a900473ffffffffffffffffffffffffffffffffffffffff1673ffffffffffffffffffffffffffffffffffffffff168460405161204d906131dd565b60006040518083038185875af1925050503d806000811461208a576040519150601f19603f3d011682016040523d82523d6000602084013e61208f565b606091505b50509050806120d3576040517f08c379a00000000000000000000000000000000000000000000000000000000081526004016120ca90613af9565b60405180910390fd5b505b5050506120f2565b60008460030181905550600084600201819055505b878173ffffffffffffffffffffffffffffffffffffffff16867fb9b0d56d8b79fead8cfe0b73d900409c9b889face7f95238017408f22d1d2c978760040160009054906101000a900460ff1688600301548960020154886040516121599493929190613b19565b60405180910390a45050505050505050565b612173610a0b565b6121a9576040517f8dfc202b00000000000000000000000000000000000000000000000000000000815260040160405180910390fd5b565b6121b361216b565b60008060006101000a81548160ff0219169083151502179055507f5db9ee0a495bf2e6ff9c91a7834c1ba4fdd244a5e8aa4e537bd38aeae4b073aa6121f661242d565b6040516122039190612832565b60405180910390a1565b612215610a0b565b1561224c576040517fd93c066500000000000000000000000000000000000000000000000000000000815260040160405180910390fd5b565b60026001540361228a576040517f3ee5aeb500000000000000000000000000000000000000000000000000000000815260040160405180910390fd5b6002600181905550565b60018081905550565b6122a561220d565b60016000806101000a81548160ff0219169083151502179055507f62e78cea01bee320cd4e420270b5ea74000d11b0c9f74754ebdbfc544b05a2586122e861242d565b6040516122f59190612832565b60405180910390a1565b3373ffffffffffffffffffffffffffffffffffffffff168173ffffffffffffffffffffffffffffffffffffffff160361236d576040517f08c379a000000000000000000000000000000000000000000000000000000000815260040161236490613baa565b60405180910390fd5b80600360006101000a81548173ffffffffffffffffffffffffffffffffffffffff021916908373ffffffffffffffffffffffffffffffffffffffff1602179055508073ffffffffffffffffffffffffffffffffffffffff16600260009054906101000a900473ffffffffffffffffffffffffffffffffffffffff1673ffffffffffffffffffffffffffffffffffffffff167fed8889f560326eb138920d842192f0eb3dd22b4f139c87a2c57538e05bae127860405160405180910390a350565b600033905090565b600080fd5b600080fd5b6000819050919050565b6124528161243f565b811461245d57600080fd5b50565b60008135905061246f81612449565b92915050565b60006020828403121561248b5761248a612435565b5b600061249984828501612460565b91505092915050565b600073ffffffffffffffffffffffffffffffffffffffff82169050919050565b60006124cd826124a2565b9050919050565b6124dd816124c2565b82525050565b7f4e487b7100000000000000000000000000000000000000000000000000000000600052602160045260246000fd5b60028110612523576125226124e3565b5b50565b600081905061253482612512565b919050565b600061254482612526565b9050919050565b61255481612539565b82525050565b6125638161243f565b82525050565b60008115159050919050565b61257e81612569565b82525050565b60006101408201905061259a600083018d6124d4565b6125a7602083018c61254b565b6125b4604083018b61255a565b6125c1606083018a61255a565b6125ce608083018961255a565b6125db60a083018861254b565b6125e860c0830187612575565b6125f560e0830186612575565b61260361010083018561255a565b61261161012083018461255a565b9b9a5050505050505050505050565b6000602082019050612635600083018461255a565b92915050565b600080fd5b600080fd5b600080fd5b60008083601f8401126126605761265f61263b565b5b8235905067ffffffffffffffff81111561267d5761267c612640565b5b60208301915083602082028301111561269957612698612645565b5b9250929050565b6000806000604084860312156126b9576126b8612435565b5b60006126c786828701612460565b935050602084013567ffffffffffffffff8111156126e8576126e761243a565b5b6126f48682870161264a565b92509250509250925092565b6000819050919050565b61271381612700565b811461271e57600080fd5b50565b6000813590506127308161270a565b92915050565b600063ffffffff82169050919050565b61274f81612736565b811461275a57600080fd5b50565b60008135905061276c81612746565b92915050565b60008060006060848603121561278b5761278a612435565b5b600061279986828701612460565b93505060206127aa86828701612721565b92505060406127bb8682870161275d565b9150509250925092565b60006020820190506127da6000830184612575565b92915050565b600281106127ed57600080fd5b50565b6000813590506127ff816127e0565b92915050565b60006020828403121561281b5761281a612435565b5b6000612829848285016127f0565b91505092915050565b600060208201905061284760008301846124d4565b92915050565b612856816124c2565b811461286157600080fd5b50565b6000813590506128738161284d565b92915050565b60006020828403121561288f5761288e612435565b5b600061289d84828501612864565b91505092915050565b60006128b1826124a2565b9050919050565b6128c1816128a6565b81146128cc57600080fd5b50565b6000813590506128de816128b8565b92915050565b6000602082840312156128fa576128f9612435565b5b6000612908848285016128cf565b91505092915050565b6000819050919050565b600061293661293161292c846124a2565b612911565b6124a2565b9050919050565b60006129488261291b565b9050919050565b600061295a8261293d565b9050919050565b61296a8161294f565b82525050565b60006020820190506129856000830184612961565b92915050565b600080604083850312156129a2576129a1612435565b5b60006129b085828601612864565b92505060206129c185828601612460565b9150509250929050565b6129d4816128a6565b82525050565b60006020820190506129ef60008301846129cb565b92915050565b600082825260208201905092915050565b7f4d61782070656e64696e672067616d6573206d7573742062652067726561746560008201527f72207468616e2030000000000000000000000000000000000000000000000000602082015250565b6000612a626028836129f5565b9150612a6d82612a06565b604082019050919050565b60006020820190508181036000830152612a9181612a55565b9050919050565b6000604082019050612aad60008301856124d4565b612aba60208301846124d4565b9392505050565b7f537562736372697074696f6e2049442063616e6e6f74206265207a65726f0000600082015250565b6000612af7601e836129f5565b9150612b0282612ac1565b602082019050919050565b60006020820190508181036000830152612b2681612aea565b9050919050565b7f43616c6c6261636b20676173206c696d6974206d75737420626520677265617460008201527f6572207468616e20300000000000000000000000000000000000000000000000602082015250565b6000612b896029836129f5565b9150612b9482612b2d565b604082019050919050565b60006020820190508181036000830152612bb881612b7c565b9050919050565b612bc881612700565b82525050565b612bd781612736565b82525050565b6000606082019050612bf2600083018661255a565b612bff6020830185612bbf565b612c0c6040830184612bce565b949350505050565b7f57616765722069732062656c6f77206d696e696d756d206c696d697400000000600082015250565b6000612c4a601c836129f5565b9150612c5582612c14565b602082019050919050565b60006020820190508181036000830152612c7981612c3d565b9050919050565b7f57616765722069732061626f7665206d6178696d756d206c696d697400000000600082015250565b6000612cb6601c836129f5565b9150612cc182612c80565b602082019050919050565b60006020820190508181036000830152612ce581612ca9565b9050919050565b7f546f6f206d616e792070656e64696e672067616d657320666f7220746869732060008201527f706c617965720000000000000000000000000000000000000000000000000000602082015250565b6000612d486026836129f5565b9150612d5382612cec565b604082019050919050565b60006020820190508181036000830152612d7781612d3b565b9050919050565b7f4e487b7100000000000000000000000000000000000000000000000000000000600052601160045260246000fd5b6000612db88261243f565b91507fffffffffffffffffffffffffffffffffffffffffffffffffffffffffffffffff8203612dea57612de9612d7e565b5b600182019050919050565b612dfe81612700565b82525050565b612e0d8161243f565b82525050565b600061ffff82169050919050565b612e2a81612e13565b82525050565b612e3981612736565b82525050565b600081519050919050565b600082825260208201905092915050565b60005b83811015612e79578082015181840152602081019050612e5e565b60008484015250505050565b6000601f19601f8301169050919050565b6000612ea182612e3f565b612eab8185612e4a565b9350612ebb818560208601612e5b565b612ec481612e85565b840191505092915050565b600060c083016000830151612ee76000860182612df5565b506020830151612efa6020860182612e04565b506040830151612f0d6040860182612e21565b506060830151612f206060860182612e30565b506080830151612f336080860182612e30565b5060a083015184820360a0860152612f4b8282612e96565b9150508091505092915050565b60006020820190508181036000830152612f728184612ecf565b905092915050565b600081519050612f8981612449565b92915050565b600060208284031215612fa557612fa4612435565b5b6000612fb384828501612f7a565b91505092915050565b6000604082019050612fd1600083018561254b565b612fde602083018461255a565b9392505050565b7f47616d65206e6f7420696e207265717565737465642073746174650000000000600082015250565b600061301b601b836129f5565b915061302682612fe5565b602082019050919050565b6000602082019050818103600083015261304a8161300e565b9050919050565b7f47616d6520616c726561647920736574746c6564000000000000000000000000600082015250565b60006130876014836129f5565b915061309282613051565b602082019050919050565b600060208201905081810360008301526130b68161307a565b9050919050565b60006130c88261243f565b91506130d38361243f565b92508282019050808211156130eb576130ea612d7e565b5b92915050565b7f456d657267656e63792074696d656f757420706572696f64206e6f7420656c6160008201527f7073656400000000000000000000000000000000000000000000000000000000602082015250565b600061314d6024836129f5565b9150613158826130f1565b604082019050919050565b6000602082019050818103600083015261317c81613140565b9050919050565b600061318e8261243f565b9150600082036131a1576131a0612d7e565b5b600182039050919050565b600081905092915050565b50565b60006131c76000836131ac565b91506131d2826131b7565b600082019050919050565b60006131e8826131ba565b9150819050919050565b7f456d657267656e637920726566756e64207472616e73666572206661696c6564600082015250565b60006132286020836129f5565b9150613233826131f2565b602082019050919050565b600060208201905081810360008301526132578161321b565b9050919050565b7f4d7573742062652070726f706f736564206f776e657200000000000000000000600082015250565b60006132946016836129f5565b915061329f8261325e565b602082019050919050565b600060208201905081810360008301526132c381613287565b9050919050565b60006060820190506132df60008301866124d4565b6132ec60208301856124d4565b6132f960408301846124d4565b949350505050565b7f4e6577206665652077616c6c65742063616e6e6f74206265207a65726f20616460008201527f6472657373000000000000000000000000000000000000000000000000000000602082015250565b600061335d6025836129f5565b915061336882613301565b604082019050919050565b6000602082019050818103600083015261338c81613350565b9050919050565b7f4d696e207761676572206d7573742062652067726561746572207468616e2030600082015250565b60006133c96020836129f5565b91506133d482613393565b602082019050919050565b600060208201905081810360008301526133f8816133bc565b9050919050565b7f4d6178207761676572206d7573742062652067726561746572207468616e206f60008201527f7220657175616c20746f206e6577206d696e2077616765720000000000000000602082015250565b600061345b6038836129f5565b9150613466826133ff565b604082019050919050565b6000602082019050818103600083015261348a8161344e565b9050919050565b7f4665652070657263656e746167652063616e6e6f74206578636565642031303060008201527f303020626173697320706f696e74732028313030252900000000000000000000602082015250565b60006134ed6036836129f5565b91506134f882613491565b604082019050919050565b6000602082019050818103600083015261351c816134e0565b9050919050565b7f546f6b656e20616464726573732063616e6e6f74206265207a65726f00000000600082015250565b6000613559601c836129f5565b915061356482613523565b602082019050919050565b600060208201905081810360008301526135888161354c565b9050919050565b60006040820190506135a460008301856124d4565b6135b1602083018461255a565b9392505050565b6135c181612569565b81146135cc57600080fd5b50565b6000815190506135de816135b8565b92915050565b6000602082840312156135fa576135f9612435565b5b6000613608848285016135cf565b91505092915050565b7f455243323020746f6b656e207769746864726177616c206661696c6564000000600082015250565b6000613647601d836129f5565b915061365282613611565b602082019050919050565b600060208201905081810360008301526136768161363a565b9050919050565b7f4e6f2062616c616e636520746f20776974686472617700000000000000000000600082015250565b60006136b36016836129f5565b91506136be8261367d565b602082019050919050565b600060208201905081810360008301526136e2816136a6565b9050919050565b7f436f6e7472616374204554482062616c616e6365207769746864726177616c2060008201527f6661696c65640000000000000000000000000000000000000000000000000000602082015250565b60006137456026836129f5565b9150613750826136e9565b604082019050919050565b6000602082019050818103600083015261377481613738565b9050919050565b7f4d6178207761676572206d7573742062652067726561746572207468616e206f60008201527f7220657175616c20746f206d696e207761676572000000000000000000000000602082015250565b60006137d76034836129f5565b91506137e28261377b565b604082019050919050565b60006020820190508181036000830152613806816137ca565b9050919050565b7f4f6e6c792063616c6c61626c65206279206f776e657200000000000000000000600082015250565b60006138436016836129f5565b915061384e8261380d565b602082019050919050565b6000602082019050818103600083015261387281613836565b9050919050565b7f4e487b7100000000000000000000000000000000000000000000000000000000600052603260045260246000fd5b7f4e487b7100000000000000000000000000000000000000000000000000000000600052601260045260246000fd5b60006138e28261243f565b91506138ed8361243f565b9250826138fd576138fc6138a8565b5b828206905092915050565b60006139138261243f565b915061391e8361243f565b925082820261392c8161243f565b9150828204841483151761394357613942612d7e565b5b5092915050565b60006139558261243f565b91506139608361243f565b9250826139705761396f6138a8565b5b828204905092915050565b60006139868261243f565b91506139918361243f565b92508282039050818111156139a9576139a8612d7e565b5b92915050565b7f436f6e74726163742068617320696e73756666696369656e742062616c616e6360008201527f6520666f722077696e207061796f757420616e64206665650000000000000000602082015250565b6000613a0b6038836129f5565b9150613a16826139af565b604082019050919050565b60006020820190508181036000830152613a3a816139fe565b9050919050565b7f506c61796572207061796f7574207472616e73666572206661696c6564000000600082015250565b6000613a77601d836129f5565b9150613a8282613a41565b602082019050919050565b60006020820190508181036000830152613aa681613a6a565b9050919050565b7f466565207472616e7366657220746f2066656557616c6c6574206661696c6564600082015250565b6000613ae36020836129f5565b9150613aee82613aad565b602082019050919050565b60006020820190508181036000830152613b1281613ad6565b9050919050565b6000608082019050613b2e600083018761254b565b613b3b602083018661255a565b613b48604083018561255a565b613b556060830184612575565b95945050505050565b7f43616e6e6f74207472616e7366657220746f2073656c66000000000000000000600082015250565b6000613b946017836129f5565b9150613b9f82613b5e565b602082019050919050565b60006020820190508181036000830152613bc381613b87565b905091905056fea2646970667358221220b66a25040a8603e4b4fc8bfd447595303392d3365058e00f6375f91d5010ec9764736f6c63430008180033",
  "linkReferences": {},
  "deployedLinkReferences": {}
}