{
  "_format": "hh-sol-artifact-1",
  "contractName": "CoinFlipETH",
  "sourceName": "contracts/CoinFlipETH.sol",
  "abi": [
    {
      "inputs": [
        {
          "internalType": "address payable",
          "name": "_initialFeeWallet",
          "type": "address"
        },
        {
          "internalType": "uint256",
          "name": "_initialFeePercentage",
          "type": "uint256"
        },
        {
          "internalType": "uint256",
          "name": "_initialMaxWager",
          "type": "uint256"
        },
        {
          "internalType": "uint256",
          "name": "_initialMinWager",
          "type": "uint256"
        }
      ],
      "stateMutability": "nonpayable",
      "type": "constructor"
    },
    {
      "inputs": [],
      "name": "EnforcedPause",
      "type": "error"
    },
    {
      "inputs": [],
      "name": "ExpectedPause",
      "type": "error"
    },
    {
      "inputs": [
        {
          "internalType": "address",
          "name": "owner",
          "type": "address"
        }
      ],
      "name": "OwnableInvalidOwner",
      "type": "error"
    },
    {
      "inputs": [
        {
          "internalType": "address",
          "name": "account",
          "type": "address"
        }
      ],
      "name": "OwnableUnauthorizedAccount",
      "type": "error"
    },
    {
      "inputs": [],
      "name": "ReentrancyGuardReentrantCall",
      "type": "error"
    },
    {
      "anonymous": false,
      "inputs": [
        {
          "indexed": false,
          "internalType": "uint256",
          "name": "newFeePercentage",
          "type": "uint256"
        }
      ],
      "name": "FeePercentageUpdated",
      "type": "event"
    },
    {
      "anonymous": false,
      "inputs": [
        {
          "indexed": true,
          "internalType": "address",
          "name": "newFeeWallet",
          "type": "address"
        }
      ],
      "name": "FeeWalletUpdated",
      "type": "event"
    },
    {
      "anonymous": false,
      "inputs": [
        {
          "indexed": true,
          "internalType": "uint256",
          "name": "gameId",
          "type": "uint256"
        },
        {
          "indexed": true,
          "internalType": "address",
          "name": "player",
          "type": "address"
        },
        {
          "indexed": false,
          "internalType": "enum CoinFlipETH.CoinSide",
          "name": "choice",
          "type": "uint8"
        },
        {
          "indexed": false,
          "internalType": "uint256",
          "name": "wagerAmount",
          "type": "uint256"
        }
      ],
      "name": "GameCreated",
      "type": "event"
    },
    {
      "anonymous": false,
      "inputs": [
        {
          "indexed": true,
          "internalType": "uint256",
          "name": "gameId",
          "type": "uint256"
        },
        {
          "indexed": true,
          "internalType": "address",
          "name": "player",
          "type": "address"
        },
        {
          "indexed": false,
          "internalType": "enum CoinFlipETH.CoinSide",
          "name": "result",
          "type": "uint8"
        },
        {
          "indexed": false,
          "internalType": "uint256",
          "name": "payoutAmount",
          "type": "uint256"
        },
        {
          "indexed": false,
          "internalType": "uint256",
          "name": "feeAmount",
          "type": "uint256"
        }
      ],
      "name": "GameSettled",
      "type": "event"
    },
    {
      "anonymous": false,
      "inputs": [
        {
          "indexed": false,
          "internalType": "uint256",
          "name": "newMaxWager",
          "type": "uint256"
        }
      ],
      "name": "MaxWagerUpdated",
      "type": "event"
    },
    {
      "anonymous": false,
      "inputs": [
        {
          "indexed": false,
          "internalType": "uint256",
          "name": "newMinWager",
          "type": "uint256"
        }
      ],
      "name": "MinWagerUpdated",
      "type": "event"
    },
    {
      "anonymous": false,
      "inputs": [
        {
          "indexed": true,
          "internalType": "address",
          "name": "previousOwner",
          "type": "address"
        },
        {
          "indexed": true,
          "internalType": "address",
          "name": "newOwner",
          "type": "address"
        }
      ],
      "name": "OwnershipTransferred",
      "type": "event"
    },
    {
      "anonymous": false,
      "inputs": [
        {
          "indexed": false,
          "internalType": "address",
          "name": "account",
          "type": "address"
        }
      ],
      "name": "Paused",
      "type": "event"
    },
    {
      "anonymous": false,
      "inputs": [
        {
          "indexed": false,
          "internalType": "address",
          "name": "account",
          "type": "address"
        }
      ],
      "name": "Unpaused",
      "type": "event"
    },
    {
      "stateMutability": "payable",
      "type": "fallback"
    },
    {
      "inputs": [],
      "name": "feePercentage",
      "outputs": [
        {
          "internalType": "uint256",
          "name": "",
          "type": "uint256"
        }
      ],
      "stateMutability": "view",
      "type": "function"
    },
    {
      "inputs": [],
      "name": "feeWallet",
      "outputs": [
        {
          "internalType": "address payable",
          "name": "",
          "type": "address"
        }
      ],
      "stateMutability": "view",
      "type": "function"
    },
    {
      "inputs": [
        {
          "internalType": "enum CoinFlipETH.CoinSide",
          "name": "_choice",
          "type": "uint8"
        }
      ],
      "name": "flip",
      "outputs": [],
      "stateMutability": "payable",
      "type": "function"
    },
    {
      "inputs": [],
      "name": "gameIdCounter",
      "outputs": [
        {
          "internalType": "uint256",
          "name": "",
          "type": "uint256"
        }
      ],
      "stateMutability": "view",
      "type": "function"
    },
    {
      "inputs": [
        {
          "internalType": "uint256",
          "name": "",
          "type": "uint256"
        }
      ],
      "name": "games",
      "outputs": [
        {
          "internalType": "address",
          "name": "player",
          "type": "address"
        },
        {
          "internalType": "enum CoinFlipETH.CoinSide",
          "name": "choice",
          "type": "uint8"
        },
        {
          "internalType": "uint256",
          "name": "wagerAmount",
          "type": "uint256"
        },
        {
          "internalType": "uint256",
          "name": "feeAmount",
          "type": "uint256"
        },
        {
          "internalType": "uint256",
          "name": "payoutAmount",
          "type": "uint256"
        },
        {
          "internalType": "enum CoinFlipETH.CoinSide",
          "name": "result",
          "type": "uint8"
        },
        {
          "internalType": "bool",
          "name": "settled",
          "type": "bool"
        }
      ],
      "stateMutability": "view",
      "type": "function"
    },
    {
      "inputs": [],
      "name": "maxWager",
      "outputs": [
        {
          "internalType": "uint256",
          "name": "",
          "type": "uint256"
        }
      ],
      "stateMutability": "view",
      "type": "function"
    },
    {
      "inputs": [],
      "name": "minWager",
      "outputs": [
        {
          "internalType": "uint256",
          "name": "",
          "type": "uint256"
        }
      ],
      "stateMutability": "view",
      "type": "function"
    },
    {
      "inputs": [],
      "name": "owner",
      "outputs": [
        {
          "internalType": "address",
          "name": "",
          "type": "address"
        }
      ],
      "stateMutability": "view",
      "type": "function"
    },
    {
      "inputs": [],
      "name": "pause",
      "outputs": [],
      "stateMutability": "nonpayable",
      "type": "function"
    },
    {
      "inputs": [],
      "name": "paused",
      "outputs": [
        {
          "internalType": "bool",
          "name": "",
          "type": "bool"
        }
      ],
      "stateMutability": "view",
      "type": "function"
    },
    {
      "inputs": [],
      "name": "renounceOwnership",
      "outputs": [],
      "stateMutability": "nonpayable",
      "type": "function"
    },
    {
      "inputs": [
        {
          "internalType": "uint256",
          "name": "_newFeePercentage",
          "type": "uint256"
        }
      ],
      "name": "setFeePercentage",
      "outputs": [],
      "stateMutability": "nonpayable",
      "type": "function"
    },
    {
      "inputs": [
        {
          "internalType": "address payable",
          "name": "_newFeeWallet",
          "type": "address"
        }
      ],
      "name": "setFeeWallet",
      "outputs": [],
      "stateMutability": "nonpayable",
      "type": "function"
    },
    {
      "inputs": [
        {
          "internalType": "uint256",
          "name": "_newMaxWager",
          "type": "uint256"
        }
      ],
      "name": "setMaxWager",
      "outputs": [],
      "stateMutability": "nonpayable",
      "type": "function"
    },
    {
      "inputs": [
        {
          "internalType": "uint256",
          "name": "_newMinWager",
          "type": "uint256"
        }
      ],
      "name": "setMinWager",
      "outputs": [],
      "stateMutability": "nonpayable",
      "type": "function"
    },
    {
      "inputs": [
        {
          "internalType": "address",
          "name": "newOwner",
          "type": "address"
        }
      ],
      "name": "transferOwnership",
      "outputs": [],
      "stateMutability": "nonpayable",
      "type": "function"
    },
    {
      "inputs": [],
      "name": "unpause",
      "outputs": [],
      "stateMutability": "nonpayable",
      "type": "function"
    },
    {
      "inputs": [],
      "name": "withdrawContractBalance",
      "outputs": [],
      "stateMutability": "nonpayable",
      "type": "function"
    },
    {
      "inputs": [
        {
          "internalType": "address",
          "name": "_tokenAddress",
          "type": "address"
        },
        {
          "internalType": "uint256",
          "name": "_amount",
          "type": "uint256"
        }
      ],
      "name": "withdrawStuckTokens",
      "outputs": [],
      "stateMutability": "nonpayable",
      "type": "function"
    },
    {
      "stateMutability": "payable",
      "type": "receive"
    }
  ],
  "bytecode": "0x60806040523480156200001157600080fd5b506040516200271c3803806200271c8339818101604052810190620000379190620003d5565b33600073ffffffffffffffffffffffffffffffffffffffff168173ffffffffffffffffffffffffffffffffffffffff1603620000ad5760006040517f1e4fbdf7000000000000000000000000000000000000000000000000000000008152600401620000a491906200046c565b60405180910390fd5b620000be816200026c60201b60201c565b5060018081905550600073ffffffffffffffffffffffffffffffffffffffff168473ffffffffffffffffffffffffffffffffffffffff160362000138576040517f08c379a00000000000000000000000000000000000000000000000000000000081526004016200012f9062000510565b60405180910390fd5b61271083111562000180576040517f08c379a00000000000000000000000000000000000000000000000000000000081526004016200017790620005a8565b60405180910390fd5b60008111620001c6576040517f08c379a0000000000000000000000000000000000000000000000000000000008152600401620001bd906200061a565b60405180910390fd5b808210156200020c576040517f08c379a000000000000000000000000000000000000000000000000000000000815260040162000203906200068c565b60405180910390fd5b83600260006101000a81548173ffffffffffffffffffffffffffffffffffffffff021916908373ffffffffffffffffffffffffffffffffffffffff16021790555082600381905550816004819055508060058190555050505050620006ae565b60008060009054906101000a900473ffffffffffffffffffffffffffffffffffffffff169050816000806101000a81548173ffffffffffffffffffffffffffffffffffffffff021916908373ffffffffffffffffffffffffffffffffffffffff1602179055508173ffffffffffffffffffffffffffffffffffffffff168173ffffffffffffffffffffffffffffffffffffffff167f8be0079c531659141344cd1fd0a4f28419497f9722a3daafe3b4186f6b6457e060405160405180910390a35050565b600080fd5b600073ffffffffffffffffffffffffffffffffffffffff82169050919050565b6000620003628262000335565b9050919050565b620003748162000355565b81146200038057600080fd5b50565b600081519050620003948162000369565b92915050565b6000819050919050565b620003af816200039a565b8114620003bb57600080fd5b50565b600081519050620003cf81620003a4565b92915050565b60008060008060808587031215620003f257620003f162000330565b5b6000620004028782880162000383565b94505060206200041587828801620003be565b93505060406200042887828801620003be565b92505060606200043b87828801620003be565b91505092959194509250565b6000620004548262000335565b9050919050565b620004668162000447565b82525050565b60006020820190506200048360008301846200045b565b92915050565b600082825260208201905092915050565b7f4665652077616c6c65742063616e6e6f74206265207a65726f2061646472657360008201527f7300000000000000000000000000000000000000000000000000000000000000602082015250565b6000620004f860218362000489565b915062000505826200049a565b604082019050919050565b600060208201905081810360008301526200052b81620004e9565b9050919050565b7f4665652070657263656e746167652063616e6e6f74206578636565642031303060008201527f2500000000000000000000000000000000000000000000000000000000000000602082015250565b60006200059060218362000489565b91506200059d8262000532565b604082019050919050565b60006020820190508181036000830152620005c38162000581565b9050919050565b7f4d696e207761676572206d7573742062652067726561746572207468616e2030600082015250565b60006200060260208362000489565b91506200060f82620005ca565b602082019050919050565b600060208201905081810360008301526200063581620005f3565b9050919050565b7f4d6178207761676572206d757374206265203e3d206d696e2077616765720000600082015250565b600062000674601e8362000489565b915062000681826200063c565b602082019050919050565b60006020820190508181036000830152620006a78162000665565b9050919050565b61205e80620006be6000396000f3fe6080604052600436106101185760003560e01c80639ae980a8116100a0578063bd61f0a611610064578063bd61f0a614610342578063bfab3db91461036b578063d15b48b914610382578063f25f4b56146103ab578063f2fde38b146103d65761011f565b80639ae980a81461026f578063a001ecdd14610298578063a52ef3fa146102c3578063ae06c1b7146102ee578063bb9c3f2b146103175761011f565b8063638c0637116100e7578063638c0637146101d1578063715018a6146101ed5780638456cb59146102045780638da5cb5b1461021b57806390d49b9d146102465761011f565b8063117a5b90146101215780631bb412d6146101645780633f4ba83a1461018f5780635c975abb146101a65761011f565b3661011f57005b005b34801561012d57600080fd5b50610148600480360381019061014391906112ec565b6103ff565b60405161015b97969594939291906113fb565b60405180910390f35b34801561017057600080fd5b50610179610488565b604051610186919061146a565b60405180910390f35b34801561019b57600080fd5b506101a461048e565b005b3480156101b257600080fd5b506101bb6104a8565b6040516101c89190611485565b60405180910390f35b6101eb60048036038101906101e691906114c5565b6104be565b005b3480156101f957600080fd5b506102026109c7565b005b34801561021057600080fd5b506102196109db565b005b34801561022757600080fd5b506102306109f5565b60405161023d91906114f2565b60405180910390f35b34801561025257600080fd5b5061026d6004803603810190610268919061154b565b610a1e565b005b34801561027b57600080fd5b50610296600480360381019061029191906112ec565b610b1c565b005b3480156102a457600080fd5b506102ad610bed565b6040516102ba919061146a565b60405180910390f35b3480156102cf57600080fd5b506102d8610bf3565b6040516102e5919061146a565b60405180910390f35b3480156102fa57600080fd5b50610315600480360381019061031091906112ec565b610bf9565b005b34801561032357600080fd5b5061032c610c87565b604051610339919061146a565b60405180910390f35b34801561034e57600080fd5b50610369600480360381019061036491906115a4565b610c8d565b005b34801561037757600080fd5b50610380610dd8565b005b34801561038e57600080fd5b506103a960048036038101906103a491906112ec565b610e30565b005b3480156103b757600080fd5b506103c0610ebe565b6040516103cd91906115f3565b60405180910390f35b3480156103e257600080fd5b506103fd60048036038101906103f8919061160e565b610ee4565b005b60076020528060005260406000206000915090508060000160009054906101000a900473ffffffffffffffffffffffffffffffffffffffff16908060000160149054906101000a900460ff16908060010154908060020154908060030154908060040160009054906101000a900460ff16908060040160019054906101000a900460ff16905087565b60065481565b610496610f6a565b61049e610ff1565b6104a6611031565b565b60008060149054906101000a900460ff16905090565b6104c6611093565b6104ce6110d4565b600554341015610513576040517f08c379a000000000000000000000000000000000000000000000000000000000815260040161050a90611698565b60405180910390fd5b600454341115610558576040517f08c379a000000000000000000000000000000000000000000000000000000000815260040161054f90611704565b60405180910390fd5b600034905060006006600081548092919061057290611753565b9190505590506000600760008381526020019081526020016000209050338160000160006101000a81548173ffffffffffffffffffffffffffffffffffffffff021916908373ffffffffffffffffffffffffffffffffffffffff160217905550838160000160146101000a81548160ff021916908360018111156105f9576105f861135a565b5b0217905550828160010181905550600061061483334261111a565b9050808260040160006101000a81548160ff0219169083600181111561063d5761063c61135a565b5b0217905550600061271060035486610655919061179b565b61065f919061180c565b905080836002018190555085600181111561067d5761067c61135a565b5b8260018111156106905761068f61135a565b5b036107cb5760006002866106a4919061179b565b9050600082826106b4919061183d565b905080856003018190555082816106cb9190611871565b47101561070d576040517f08c379a000000000000000000000000000000000000000000000000000000000815260040161070490611917565b60405180910390fd5b60008111156107c45760003373ffffffffffffffffffffffffffffffffffffffff168260405161073c90611968565b60006040518083038185875af1925050503d8060008114610779576040519150601f19603f3d011682016040523d82523d6000602084013e61077e565b606091505b50509050806107c2576040517f08c379a00000000000000000000000000000000000000000000000000000000081526004016107b9906119c9565b60405180910390fd5b505b5050610819565b6000836003018190555080471015610818576040517f08c379a000000000000000000000000000000000000000000000000000000000815260040161080f90611a5b565b60405180910390fd5b5b60008111156108f2576000600260009054906101000a900473ffffffffffffffffffffffffffffffffffffffff1673ffffffffffffffffffffffffffffffffffffffff168260405161086a90611968565b60006040518083038185875af1925050503d80600081146108a7576040519150601f19603f3d011682016040523d82523d6000602084013e6108ac565b606091505b50509050806108f0576040517f08c379a00000000000000000000000000000000000000000000000000000000081526004016108e790611ac7565b60405180910390fd5b505b60018360040160016101000a81548160ff0219169083151502179055503373ffffffffffffffffffffffffffffffffffffffff16847fce7afad46ab3446a50492edf65c62119da1a4def9df32e797c96b27a9470f4118888604051610958929190611ae7565b60405180910390a33373ffffffffffffffffffffffffffffffffffffffff16847f049f79970ecd416d6c5bfb4b92a6ddea43448c64d71bf6193fd821acbeb20043848660030154856040516109af93929190611b10565b60405180910390a350505050506109c4611179565b50565b6109cf610f6a565b6109d96000611182565b565b6109e3610f6a565b6109eb611093565b6109f3611246565b565b60008060009054906101000a900473ffffffffffffffffffffffffffffffffffffffff16905090565b610a26610f6a565b600073ffffffffffffffffffffffffffffffffffffffff168173ffffffffffffffffffffffffffffffffffffffff1603610a95576040517f08c379a0000000000000000000000000000000000000000000000000000000008152600401610a8c90611bb9565b60405180910390fd5b80600260006101000a81548173ffffffffffffffffffffffffffffffffffffffff021916908373ffffffffffffffffffffffffffffffffffffffff1602179055508073ffffffffffffffffffffffffffffffffffffffff167f29acee77dafcfa0143d74a7ea236018f3a6e1fa71e27fc59bbfbc6b8ca8edccd60405160405180910390a250565b610b24610f6a565b60008111610b67576040517f08c379a0000000000000000000000000000000000000000000000000000000008152600401610b5e90611c25565b60405180910390fd5b806004541015610bac576040517f08c379a0000000000000000000000000000000000000000000000000000000008152600401610ba390611cb7565b60405180910390fd5b806005819055507f6802a03dd8e2f6a4dc2ab8cf753936dc2aeced88bcd60edfa3d49faba6bc1ade81604051610be2919061146a565b60405180910390a150565b60035481565b60045481565b610c01610f6a565b612710811115610c46576040517f08c379a0000000000000000000000000000000000000000000000000000000008152600401610c3d90611d49565b60405180910390fd5b806003819055507f74516f05eb4bd2461d57aa1e935ee553f86a3e02bfed7759f2f772915de3d9be81604051610c7c919061146a565b60405180910390a150565b60055481565b610c95610f6a565b600073ffffffffffffffffffffffffffffffffffffffff168273ffffffffffffffffffffffffffffffffffffffff1603610d04576040517f08c379a0000000000000000000000000000000000000000000000000000000008152600401610cfb90611db5565b60405180910390fd5b600082905060008173ffffffffffffffffffffffffffffffffffffffff1663a9059cbb610d2f6109f5565b856040518363ffffffff1660e01b8152600401610d4d929190611dd5565b6020604051808303816000875af1158015610d6c573d6000803e3d6000fd5b505050506040513d601f19601f82011682018060405250810190610d909190611e2a565b905080610dd2576040517f08c379a0000000000000000000000000000000000000000000000000000000008152600401610dc990611ea3565b60405180910390fd5b50505050565b610de0610f6a565b610de86109f5565b73ffffffffffffffffffffffffffffffffffffffff166108fc479081150290604051600060405180830381858888f19350505050158015610e2d573d6000803e3d6000fd5b50565b610e38610f6a565b600554811015610e7d576040517f08c379a0000000000000000000000000000000000000000000000000000000008152600401610e7490611f0f565b60405180910390fd5b806004819055507f2842cf99332cf44653926376c4c0f5d0f91b749469ac9999bb1c6c9d728b1ba881604051610eb3919061146a565b60405180910390a150565b600260009054906101000a900473ffffffffffffffffffffffffffffffffffffffff1681565b610eec610f6a565b600073ffffffffffffffffffffffffffffffffffffffff168173ffffffffffffffffffffffffffffffffffffffff1603610f5e5760006040517f1e4fbdf7000000000000000000000000000000000000000000000000000000008152600401610f5591906114f2565b60405180910390fd5b610f6781611182565b50565b610f726112a9565b73ffffffffffffffffffffffffffffffffffffffff16610f906109f5565b73ffffffffffffffffffffffffffffffffffffffff1614610fef57610fb36112a9565b6040517f118cdaa7000000000000000000000000000000000000000000000000000000008152600401610fe691906114f2565b60405180910390fd5b565b610ff96104a8565b61102f576040517f8dfc202b00000000000000000000000000000000000000000000000000000000815260040160405180910390fd5b565b611039610ff1565b60008060146101000a81548160ff0219169083151502179055507f5db9ee0a495bf2e6ff9c91a7834c1ba4fdd244a5e8aa4e537bd38aeae4b073aa61107c6112a9565b60405161108991906114f2565b60405180910390a1565b61109b6104a8565b156110d2576040517fd93c066500000000000000000000000000000000000000000000000000000000815260040160405180910390fd5b565b600260015403611110576040517f3ee5aeb500000000000000000000000000000000000000000000000000000000815260040160405180910390fd5b6002600181905550565b6000808484844430604051602001611136959493929190611f98565b6040516020818303038152906040528051906020012060001c905060006002826111609190611ff7565b1461116c57600161116f565b60005b9150509392505050565b60018081905550565b60008060009054906101000a900473ffffffffffffffffffffffffffffffffffffffff169050816000806101000a81548173ffffffffffffffffffffffffffffffffffffffff021916908373ffffffffffffffffffffffffffffffffffffffff1602179055508173ffffffffffffffffffffffffffffffffffffffff168173ffffffffffffffffffffffffffffffffffffffff167f8be0079c531659141344cd1fd0a4f28419497f9722a3daafe3b4186f6b6457e060405160405180910390a35050565b61124e611093565b6001600060146101000a81548160ff0219169083151502179055507f62e78cea01bee320cd4e420270b5ea74000d11b0c9f74754ebdbfc544b05a2586112926112a9565b60405161129f91906114f2565b60405180910390a1565b600033905090565b600080fd5b6000819050919050565b6112c9816112b6565b81146112d457600080fd5b50565b6000813590506112e6816112c0565b92915050565b600060208284031215611302576113016112b1565b5b6000611310848285016112d7565b91505092915050565b600073ffffffffffffffffffffffffffffffffffffffff82169050919050565b600061134482611319565b9050919050565b61135481611339565b82525050565b7f4e487b7100000000000000000000000000000000000000000000000000000000600052602160045260246000fd5b6002811061139a5761139961135a565b5b50565b60008190506113ab82611389565b919050565b60006113bb8261139d565b9050919050565b6113cb816113b0565b82525050565b6113da816112b6565b82525050565b60008115159050919050565b6113f5816113e0565b82525050565b600060e082019050611410600083018a61134b565b61141d60208301896113c2565b61142a60408301886113d1565b61143760608301876113d1565b61144460808301866113d1565b61145160a08301856113c2565b61145e60c08301846113ec565b98975050505050505050565b600060208201905061147f60008301846113d1565b92915050565b600060208201905061149a60008301846113ec565b92915050565b600281106114ad57600080fd5b50565b6000813590506114bf816114a0565b92915050565b6000602082840312156114db576114da6112b1565b5b60006114e9848285016114b0565b91505092915050565b6000602082019050611507600083018461134b565b92915050565b600061151882611319565b9050919050565b6115288161150d565b811461153357600080fd5b50565b6000813590506115458161151f565b92915050565b600060208284031215611561576115606112b1565b5b600061156f84828501611536565b91505092915050565b61158181611339565b811461158c57600080fd5b50565b60008135905061159e81611578565b92915050565b600080604083850312156115bb576115ba6112b1565b5b60006115c98582860161158f565b92505060206115da858286016112d7565b9150509250929050565b6115ed8161150d565b82525050565b600060208201905061160860008301846115e4565b92915050565b600060208284031215611624576116236112b1565b5b60006116328482850161158f565b91505092915050565b600082825260208201905092915050565b7f57616765722069732062656c6f77206d696e696d756d206c696d697400000000600082015250565b6000611682601c8361163b565b915061168d8261164c565b602082019050919050565b600060208201905081810360008301526116b181611675565b9050919050565b7f57616765722069732061626f7665206d6178696d756d206c696d697400000000600082015250565b60006116ee601c8361163b565b91506116f9826116b8565b602082019050919050565b6000602082019050818103600083015261171d816116e1565b9050919050565b7f4e487b7100000000000000000000000000000000000000000000000000000000600052601160045260246000fd5b600061175e826112b6565b91507fffffffffffffffffffffffffffffffffffffffffffffffffffffffffffffffff82036117905761178f611724565b5b600182019050919050565b60006117a6826112b6565b91506117b1836112b6565b92508282026117bf816112b6565b915082820484148315176117d6576117d5611724565b5b5092915050565b7f4e487b7100000000000000000000000000000000000000000000000000000000600052601260045260246000fd5b6000611817826112b6565b9150611822836112b6565b925082611832576118316117dd565b5b828204905092915050565b6000611848826112b6565b9150611853836112b6565b925082820390508181111561186b5761186a611724565b5b92915050565b600061187c826112b6565b9150611887836112b6565b925082820190508082111561189f5761189e611724565b5b92915050565b7f436f6e747261637420696e73756666696369656e742062616c616e636520666f60008201527f72207061796f757420616e642066656500000000000000000000000000000000602082015250565b600061190160308361163b565b915061190c826118a5565b604082019050919050565b60006020820190508181036000830152611930816118f4565b9050919050565b600081905092915050565b50565b6000611952600083611937565b915061195d82611942565b600082019050919050565b600061197382611945565b9150819050919050565b7f5061796f7574207472616e73666572206661696c656400000000000000000000600082015250565b60006119b360168361163b565b91506119be8261197d565b602082019050919050565b600060208201905081810360008301526119e2816119a6565b9050919050565b7f436f6e747261637420696e73756666696369656e742062616c616e636520666f60008201527f7220666565207472616e73666572000000000000000000000000000000000000602082015250565b6000611a45602e8361163b565b9150611a50826119e9565b604082019050919050565b60006020820190508181036000830152611a7481611a38565b9050919050565b7f466565207472616e73666572206661696c656400000000000000000000000000600082015250565b6000611ab160138361163b565b9150611abc82611a7b565b602082019050919050565b60006020820190508181036000830152611ae081611aa4565b9050919050565b6000604082019050611afc60008301856113c2565b611b0960208301846113d1565b9392505050565b6000606082019050611b2560008301866113c2565b611b3260208301856113d1565b611b3f60408301846113d1565b949350505050565b7f4e6577206665652077616c6c65742063616e6e6f74206265207a65726f20616460008201527f6472657373000000000000000000000000000000000000000000000000000000602082015250565b6000611ba360258361163b565b9150611bae82611b47565b604082019050919050565b60006020820190508181036000830152611bd281611b96565b9050919050565b7f4d696e207761676572206d7573742062652067726561746572207468616e2030600082015250565b6000611c0f60208361163b565b9150611c1a82611bd9565b602082019050919050565b60006020820190508181036000830152611c3e81611c02565b9050919050565b7f4d6178207761676572206d757374206265203e3d206e6577206d696e2077616760008201527f6572000000000000000000000000000000000000000000000000000000000000602082015250565b6000611ca160228361163b565b9150611cac82611c45565b604082019050919050565b60006020820190508181036000830152611cd081611c94565b9050919050565b7f4665652070657263656e746167652063616e6e6f74206578636565642031303060008201527f2500000000000000000000000000000000000000000000000000000000000000602082015250565b6000611d3360218361163b565b9150611d3e82611cd7565b604082019050919050565b60006020820190508181036000830152611d6281611d26565b9050919050565b7f546f6b656e20616464726573732063616e6e6f74206265207a65726f00000000600082015250565b6000611d9f601c8361163b565b9150611daa82611d69565b602082019050919050565b60006020820190508181036000830152611dce81611d92565b9050919050565b6000604082019050611dea600083018561134b565b611df760208301846113d1565b9392505050565b611e07816113e0565b8114611e1257600080fd5b50565b600081519050611e2481611dfe565b92915050565b600060208284031215611e4057611e3f6112b1565b5b6000611e4e84828501611e15565b91505092915050565b7f546f6b656e207769746864726177616c206661696c6564000000000000000000600082015250565b6000611e8d60178361163b565b9150611e9882611e57565b602082019050919050565b60006020820190508181036000830152611ebc81611e80565b9050919050565b7f4d6178207761676572206d757374206265203e3d206d696e2077616765720000600082015250565b6000611ef9601e8361163b565b9150611f0482611ec3565b602082019050919050565b60006020820190508181036000830152611f2881611eec565b9050919050565b6000819050919050565b611f4a611f45826112b6565b611f2f565b82525050565b60008160601b9050919050565b6000611f6882611f50565b9050919050565b6000611f7a82611f5d565b9050919050565b611f92611f8d82611339565b611f6f565b82525050565b6000611fa48288611f39565b602082019150611fb48287611f81565b601482019150611fc48286611f39565b602082019150611fd48285611f39565b602082019150611fe48284611f81565b6014820191508190509695505050505050565b6000612002826112b6565b915061200d836112b6565b92508261201d5761201c6117dd565b5b82820690509291505056fea2646970667358221220de411b70afbc60acdab52e5328a835d376a2f2a81f9a7a6520f23b4ce1c9416464736f6c63430008180033",
  "linkReferences": {},
  "deployedLinkReferences": {}
}