{
  "_format": "hh-sol-artifact-1",
  "contractName": "FlipSkiBaseVRF",
  "sourceName": "contracts/FlipSkiBaseVRF.sol",
  "abi": [
    {
      "inputs": [
        {
          "internalType": "address payable",
          "name": "_initialFeeWallet",
          "type": "address"
        },
        {
          "internalType": "uint256",
          "name": "_initialFeePercentage",
          "type": "uint256"
        },
        {
          "internalType": "uint256",
          "name": "_initialMaxWager",
          "type": "uint256"
        },
        {
          "internalType": "uint256",
          "name": "_initialMinWager",
          "type": "uint256"
        },
        {
          "internalType": "address",
          "name": "_vrfCoordinator",
          "type": "address"
        },
        {
          "internalType": "uint256",
          "name": "_subscriptionId",
          "type": "uint256"
        },
        {
          "internalType": "bytes32",
          "name": "_keyHash",
          "type": "bytes32"
        }
      ],
      "stateMutability": "nonpayable",
      "type": "constructor"
    },
    {
      "inputs": [],
      "name": "EnforcedPause",
      "type": "error"
    },
    {
      "inputs": [],
      "name": "ExpectedPause",
      "type": "error"
    },
    {
      "inputs": [
        {
          "internalType": "address",
          "name": "have",
          "type": "address"
        },
        {
          "internalType": "address",
          "name": "want",
          "type": "address"
        }
      ],
      "name": "OnlyCoordinatorCanFulfill",
      "type": "error"
    },
    {
      "inputs": [
        {
          "internalType": "address",
          "name": "have",
          "type": "address"
        },
        {
          "internalType": "address",
          "name": "owner",
          "type": "address"
        },
        {
          "internalType": "address",
          "name": "coordinator",
          "type": "address"
        }
      ],
      "name": "OnlyOwnerOrCoordinator",
      "type": "error"
    },
    {
      "inputs": [],
      "name": "ReentrancyGuardReentrantCall",
      "type": "error"
    },
    {
      "inputs": [],
      "name": "ZeroAddress",
      "type": "error"
    },
    {
      "anonymous": false,
      "inputs": [
        {
          "indexed": false,
          "internalType": "address",
          "name": "vrfCoordinator",
          "type": "address"
        }
      ],
      "name": "CoordinatorSet",
      "type": "event"
    },
    {
      "anonymous": false,
      "inputs": [
        {
          "indexed": false,
          "internalType": "uint256",
          "name": "newFeePercentage",
          "type": "uint256"
        }
      ],
      "name": "FeePercentageUpdated",
      "type": "event"
    },
    {
      "anonymous": false,
      "inputs": [
        {
          "indexed": true,
          "internalType": "address",
          "name": "newFeeWallet",
          "type": "address"
        }
      ],
      "name": "FeeWalletUpdated",
      "type": "event"
    },
    {
      "anonymous": false,
      "inputs": [
        {
          "indexed": true,
          "internalType": "uint256",
          "name": "gameId",
          "type": "uint256"
        },
        {
          "indexed": true,
          "internalType": "address",
          "name": "player",
          "type": "address"
        },
        {
          "indexed": false,
          "internalType": "enum FlipSkiBaseVRF.CoinSide",
          "name": "choice",
          "type": "uint8"
        },
        {
          "indexed": false,
          "internalType": "uint256",
          "name": "wagerAmount",
          "type": "uint256"
        },
        {
          "indexed": true,
          "internalType": "uint256",
          "name": "vrfRequestId",
          "type": "uint256"
        }
      ],
      "name": "GameRequested",
      "type": "event"
    },
    {
      "anonymous": false,
      "inputs": [
        {
          "indexed": true,
          "internalType": "uint256",
          "name": "gameId",
          "type": "uint256"
        },
        {
          "indexed": true,
          "internalType": "address",
          "name": "player",
          "type": "address"
        },
        {
          "indexed": false,
          "internalType": "enum FlipSkiBaseVRF.CoinSide",
          "name": "result",
          "type": "uint8"
        },
        {
          "indexed": false,
          "internalType": "uint256",
          "name": "payoutAmount",
          "type": "uint256"
        },
        {
          "indexed": false,
          "internalType": "uint256",
          "name": "feeAmount",
          "type": "uint256"
        },
        {
          "indexed": true,
          "internalType": "uint256",
          "name": "vrfRequestId",
          "type": "uint256"
        },
        {
          "indexed": false,
          "internalType": "bool",
          "name": "playerWon",
          "type": "bool"
        }
      ],
      "name": "GameSettled",
      "type": "event"
    },
    {
      "anonymous": false,
      "inputs": [
        {
          "indexed": false,
          "internalType": "uint256",
          "name": "newMaxWager",
          "type": "uint256"
        }
      ],
      "name": "MaxWagerUpdated",
      "type": "event"
    },
    {
      "anonymous": false,
      "inputs": [
        {
          "indexed": false,
          "internalType": "uint256",
          "name": "newMinWager",
          "type": "uint256"
        }
      ],
      "name": "MinWagerUpdated",
      "type": "event"
    },
    {
      "anonymous": false,
      "inputs": [
        {
          "indexed": true,
          "internalType": "address",
          "name": "from",
          "type": "address"
        },
        {
          "indexed": true,
          "internalType": "address",
          "name": "to",
          "type": "address"
        }
      ],
      "name": "OwnershipTransferRequested",
      "type": "event"
    },
    {
      "anonymous": false,
      "inputs": [
        {
          "indexed": true,
          "internalType": "address",
          "name": "from",
          "type": "address"
        },
        {
          "indexed": true,
          "internalType": "address",
          "name": "to",
          "type": "address"
        }
      ],
      "name": "OwnershipTransferred",
      "type": "event"
    },
    {
      "anonymous": false,
      "inputs": [
        {
          "indexed": false,
          "internalType": "address",
          "name": "account",
          "type": "address"
        }
      ],
      "name": "Paused",
      "type": "event"
    },
    {
      "anonymous": false,
      "inputs": [
        {
          "indexed": false,
          "internalType": "address",
          "name": "account",
          "type": "address"
        }
      ],
      "name": "Unpaused",
      "type": "event"
    },
    {
      "anonymous": false,
      "inputs": [
        {
          "indexed": false,
          "internalType": "uint256",
          "name": "newSubscriptionId",
          "type": "uint256"
        },
        {
          "indexed": false,
          "internalType": "bytes32",
          "name": "newKeyHash",
          "type": "bytes32"
        },
        {
          "indexed": false,
          "internalType": "uint32",
          "name": "newCallbackGasLimit",
          "type": "uint32"
        }
      ],
      "name": "VRFParametersUpdated",
      "type": "event"
    },
    {
      "stateMutability": "payable",
      "type": "fallback"
    },
    {
      "inputs": [],
      "name": "acceptOwnership",
      "outputs": [],
      "stateMutability": "nonpayable",
      "type": "function"
    },
    {
      "inputs": [],
      "name": "feePercentage",
      "outputs": [
        {
          "internalType": "uint256",
          "name": "",
          "type": "uint256"
        }
      ],
      "stateMutability": "view",
      "type": "function"
    },
    {
      "inputs": [],
      "name": "feeWallet",
      "outputs": [
        {
          "internalType": "address payable",
          "name": "",
          "type": "address"
        }
      ],
      "stateMutability": "view",
      "type": "function"
    },
    {
      "inputs": [
        {
          "internalType": "enum FlipSkiBaseVRF.CoinSide",
          "name": "_choice",
          "type": "uint8"
        }
      ],
      "name": "flip",
      "outputs": [],
      "stateMutability": "payable",
      "type": "function"
    },
    {
      "inputs": [],
      "name": "gameIdCounter",
      "outputs": [
        {
          "internalType": "uint256",
          "name": "",
          "type": "uint256"
        }
      ],
      "stateMutability": "view",
      "type": "function"
    },
    {
      "inputs": [
        {
          "internalType": "uint256",
          "name": "",
          "type": "uint256"
        }
      ],
      "name": "games",
      "outputs": [
        {
          "internalType": "address",
          "name": "player",
          "type": "address"
        },
        {
          "internalType": "enum FlipSkiBaseVRF.CoinSide",
          "name": "choice",
          "type": "uint8"
        },
        {
          "internalType": "uint256",
          "name": "wagerAmount",
          "type": "uint256"
        },
        {
          "internalType": "uint256",
          "name": "feeAmount",
          "type": "uint256"
        },
        {
          "internalType": "uint256",
          "name": "payoutAmount",
          "type": "uint256"
        },
        {
          "internalType": "enum FlipSkiBaseVRF.CoinSide",
          "name": "result",
          "type": "uint8"
        },
        {
          "internalType": "bool",
          "name": "requested",
          "type": "bool"
        },
        {
          "internalType": "bool",
          "name": "settled",
          "type": "bool"
        },
        {
          "internalType": "uint256",
          "name": "vrfRequestId",
          "type": "uint256"
        }
      ],
      "stateMutability": "view",
      "type": "function"
    },
    {
      "inputs": [],
      "name": "maxWager",
      "outputs": [
        {
          "internalType": "uint256",
          "name": "",
          "type": "uint256"
        }
      ],
      "stateMutability": "view",
      "type": "function"
    },
    {
      "inputs": [],
      "name": "minWager",
      "outputs": [
        {
          "internalType": "uint256",
          "name": "",
          "type": "uint256"
        }
      ],
      "stateMutability": "view",
      "type": "function"
    },
    {
      "inputs": [],
      "name": "owner",
      "outputs": [
        {
          "internalType": "address",
          "name": "",
          "type": "address"
        }
      ],
      "stateMutability": "view",
      "type": "function"
    },
    {
      "inputs": [],
      "name": "pause",
      "outputs": [],
      "stateMutability": "nonpayable",
      "type": "function"
    },
    {
      "inputs": [],
      "name": "paused",
      "outputs": [
        {
          "internalType": "bool",
          "name": "",
          "type": "bool"
        }
      ],
      "stateMutability": "view",
      "type": "function"
    },
    {
      "inputs": [
        {
          "internalType": "uint256",
          "name": "requestId",
          "type": "uint256"
        },
        {
          "internalType": "uint256[]",
          "name": "randomWords",
          "type": "uint256[]"
        }
      ],
      "name": "rawFulfillRandomWords",
      "outputs": [],
      "stateMutability": "nonpayable",
      "type": "function"
    },
    {
      "inputs": [],
      "name": "s_vrfCoordinator",
      "outputs": [
        {
          "internalType": "contract IVRFCoordinatorV2Plus",
          "name": "",
          "type": "address"
        }
      ],
      "stateMutability": "view",
      "type": "function"
    },
    {
      "inputs": [
        {
          "internalType": "address",
          "name": "_vrfCoordinator",
          "type": "address"
        }
      ],
      "name": "setCoordinator",
      "outputs": [],
      "stateMutability": "nonpayable",
      "type": "function"
    },
    {
      "inputs": [
        {
          "internalType": "uint256",
          "name": "_newFeePercentage",
          "type": "uint256"
        }
      ],
      "name": "setFeePercentage",
      "outputs": [],
      "stateMutability": "nonpayable",
      "type": "function"
    },
    {
      "inputs": [
        {
          "internalType": "address payable",
          "name": "_newFeeWallet",
          "type": "address"
        }
      ],
      "name": "setFeeWallet",
      "outputs": [],
      "stateMutability": "nonpayable",
      "type": "function"
    },
    {
      "inputs": [
        {
          "internalType": "uint256",
          "name": "_newMaxWager",
          "type": "uint256"
        }
      ],
      "name": "setMaxWager",
      "outputs": [],
      "stateMutability": "nonpayable",
      "type": "function"
    },
    {
      "inputs": [
        {
          "internalType": "uint256",
          "name": "_newMinWager",
          "type": "uint256"
        }
      ],
      "name": "setMinWager",
      "outputs": [],
      "stateMutability": "nonpayable",
      "type": "function"
    },
    {
      "inputs": [
        {
          "internalType": "uint256",
          "name": "_newSubscriptionId",
          "type": "uint256"
        },
        {
          "internalType": "bytes32",
          "name": "_newKeyHash",
          "type": "bytes32"
        },
        {
          "internalType": "uint32",
          "name": "_newCallbackGasLimit",
          "type": "uint32"
        }
      ],
      "name": "setVRFParameters",
      "outputs": [],
      "stateMutability": "nonpayable",
      "type": "function"
    },
    {
      "inputs": [
        {
          "internalType": "address",
          "name": "to",
          "type": "address"
        }
      ],
      "name": "transferOwnership",
      "outputs": [],
      "stateMutability": "nonpayable",
      "type": "function"
    },
    {
      "inputs": [],
      "name": "unpause",
      "outputs": [],
      "stateMutability": "nonpayable",
      "type": "function"
    },
    {
      "inputs": [
        {
          "internalType": "uint256",
          "name": "",
          "type": "uint256"
        }
      ],
      "name": "vrfRequestToGameId",
      "outputs": [
        {
          "internalType": "uint256",
          "name": "",
          "type": "uint256"
        }
      ],
      "stateMutability": "view",
      "type": "function"
    },
    {
      "inputs": [],
      "name": "withdrawContractBalance",
      "outputs": [],
      "stateMutability": "nonpayable",
      "type": "function"
    },
    {
      "inputs": [
        {
          "internalType": "address",
          "name": "_tokenAddress",
          "type": "address"
        },
        {
          "internalType": "uint256",
          "name": "_amount",
          "type": "uint256"
        }
      ],
      "name": "withdrawStuckTokens",
      "outputs": [],
      "stateMutability": "nonpayable",
      "type": "function"
    },
    {
      "stateMutability": "payable",
      "type": "receive"
    }
  ],
  "bytecode": "0x60a0604052620493e0600760006101000a81548163ffffffff021916908363ffffffff1602179055503480156200003557600080fd5b5060405162003ed038038062003ed083398181016040528101906200005b919062000706565b823380600060018081905550600073ffffffffffffffffffffffffffffffffffffffff168273ffffffffffffffffffffffffffffffffffffffff1603620000d9576040517f08c379a0000000000000000000000000000000000000000000000000000000008152600401620000d0906200081a565b60405180910390fd5b81600260006101000a81548173ffffffffffffffffffffffffffffffffffffffff021916908373ffffffffffffffffffffffffffffffffffffffff160217905550600073ffffffffffffffffffffffffffffffffffffffff168173ffffffffffffffffffffffffffffffffffffffff161462000161576200016081620004b060201b60201c565b5b505050600073ffffffffffffffffffffffffffffffffffffffff168173ffffffffffffffffffffffffffffffffffffffff1603620001cb576040517fd92e233d00000000000000000000000000000000000000000000000000000000815260040160405180910390fd5b80600460006101000a81548173ffffffffffffffffffffffffffffffffffffffff021916908373ffffffffffffffffffffffffffffffffffffffff16021790555050600073ffffffffffffffffffffffffffffffffffffffff168773ffffffffffffffffffffffffffffffffffffffff16036200027f576040517f08c379a00000000000000000000000000000000000000000000000000000000081526004016200027690620008b2565b60405180910390fd5b612710861115620002c7576040517f08c379a0000000000000000000000000000000000000000000000000000000008152600401620002be906200094a565b60405180910390fd5b600084116200030d576040517f08c379a00000000000000000000000000000000000000000000000000000000081526004016200030490620009bc565b60405180910390fd5b8385101562000353576040517f08c379a00000000000000000000000000000000000000000000000000000000081526004016200034a9062000a54565b60405180910390fd5b600073ffffffffffffffffffffffffffffffffffffffff168373ffffffffffffffffffffffffffffffffffffffff1603620003c5576040517f08c379a0000000000000000000000000000000000000000000000000000000008152600401620003bc9062000aec565b60405180910390fd5b600082036200040b576040517f08c379a0000000000000000000000000000000000000000000000000000000008152600401620004029062000b5e565b60405180910390fd5b86600760046101000a81548173ffffffffffffffffffffffffffffffffffffffff021916908373ffffffffffffffffffffffffffffffffffffffff160217905550856008819055508460098190555083600a819055508273ffffffffffffffffffffffffffffffffffffffff1660808173ffffffffffffffffffffffffffffffffffffffff168152505081600581905550806006819055505050505050505062000bf2565b3373ffffffffffffffffffffffffffffffffffffffff168173ffffffffffffffffffffffffffffffffffffffff160362000521576040517f08c379a0000000000000000000000000000000000000000000000000000000008152600401620005189062000bd0565b60405180910390fd5b80600360006101000a81548173ffffffffffffffffffffffffffffffffffffffff021916908373ffffffffffffffffffffffffffffffffffffffff1602179055508073ffffffffffffffffffffffffffffffffffffffff16600260009054906101000a900473ffffffffffffffffffffffffffffffffffffffff1673ffffffffffffffffffffffffffffffffffffffff167fed8889f560326eb138920d842192f0eb3dd22b4f139c87a2c57538e05bae127860405160405180910390a350565b600080fd5b600073ffffffffffffffffffffffffffffffffffffffff82169050919050565b60006200061382620005e6565b9050919050565b620006258162000606565b81146200063157600080fd5b50565b60008151905062000645816200061a565b92915050565b6000819050919050565b62000660816200064b565b81146200066c57600080fd5b50565b600081519050620006808162000655565b92915050565b60006200069382620005e6565b9050919050565b620006a58162000686565b8114620006b157600080fd5b50565b600081519050620006c5816200069a565b92915050565b6000819050919050565b620006e081620006cb565b8114620006ec57600080fd5b50565b6000815190506200070081620006d5565b92915050565b600080600080600080600060e0888a031215620007285762000727620005e1565b5b6000620007388a828b0162000634565b97505060206200074b8a828b016200066f565b96505060406200075e8a828b016200066f565b9550506060620007718a828b016200066f565b9450506080620007848a828b01620006b4565b93505060a0620007978a828b016200066f565b92505060c0620007aa8a828b01620006ef565b91505092959891949750929550565b600082825260208201905092915050565b7f43616e6e6f7420736574206f776e657220746f207a65726f0000000000000000600082015250565b600062000802601883620007b9565b91506200080f82620007ca565b602082019050919050565b600060208201905081810360008301526200083581620007f3565b9050919050565b7f4665652077616c6c65742063616e6e6f74206265207a65726f2061646472657360008201527f7300000000000000000000000000000000000000000000000000000000000000602082015250565b60006200089a602183620007b9565b9150620008a7826200083c565b604082019050919050565b60006020820190508181036000830152620008cd816200088b565b9050919050565b7f4665652070657263656e746167652063616e6e6f74206578636565642031303060008201527f303020626173697320706f696e74732028313030252900000000000000000000602082015250565b600062000932603683620007b9565b91506200093f82620008d4565b604082019050919050565b60006020820190508181036000830152620009658162000923565b9050919050565b7f4d696e207761676572206d7573742062652067726561746572207468616e2030600082015250565b6000620009a4602083620007b9565b9150620009b1826200096c565b602082019050919050565b60006020820190508181036000830152620009d78162000995565b9050919050565b7f4d6178207761676572206d7573742062652067726561746572207468616e206f60008201527f7220657175616c20746f206d696e207761676572000000000000000000000000602082015250565b600062000a3c603483620007b9565b915062000a4982620009de565b604082019050919050565b6000602082019050818103600083015262000a6f8162000a2d565b9050919050565b7f56524620436f6f7264696e61746f7220616464726573732063616e6e6f74206260008201527f65207a65726f0000000000000000000000000000000000000000000000000000602082015250565b600062000ad4602683620007b9565b915062000ae18262000a76565b604082019050919050565b6000602082019050818103600083015262000b078162000ac5565b9050919050565b7f537562736372697074696f6e2049442063616e6e6f74206265207a65726f0000600082015250565b600062000b46601e83620007b9565b915062000b538262000b0e565b602082019050919050565b6000602082019050818103600083015262000b798162000b37565b9050919050565b7f43616e6e6f74207472616e7366657220746f2073656c66000000000000000000600082015250565b600062000bb8601783620007b9565b915062000bc58262000b80565b602082019050919050565b6000602082019050818103600083015262000beb8162000ba9565b9050919050565b6080516132c262000c0e60003960006109bc01526132c26000f3fe60806040526004361061014f5760003560e01c806390d49b9d116100b6578063bb9c3f2b1161006f578063bb9c3f2b14610433578063bd61f0a61461045e578063bfab3db914610487578063d15b48b91461049e578063f25f4b56146104c7578063f2fde38b146104f257610156565b806390d49b9d146103375780639ae980a8146103605780639eccacf614610389578063a001ecdd146103b4578063a52ef3fa146103df578063ae06c1b71461040a57610156565b80635c975abb116101085780635c975abb1461026e578063638c06371461029957806379ba5097146102b55780638456cb59146102cc5780638da5cb5b146102e35780638ea981171461030e57610156565b8063117a5b90146101585780631bb412d61461019d5780631fe543e3146101c85780633f4ba83a146101f15780634228487c1461020857806344e493fa1461023157610156565b3661015657005b005b34801561016457600080fd5b5061017f600480360381019061017a9190611cff565b61051b565b60405161019499989796959493929190611e0e565b60405180910390f35b3480156101a957600080fd5b506101b26105bd565b6040516101bf9190611e9b565b60405180910390f35b3480156101d457600080fd5b506101ef60048036038101906101ea9190611f1b565b6105c3565b005b3480156101fd57600080fd5b50610206610689565b005b34801561021457600080fd5b5061022f600480360381019061022a9190611fed565b6106a3565b005b34801561023d57600080fd5b5061025860048036038101906102539190611cff565b6107bc565b6040516102659190611e9b565b60405180910390f35b34801561027a57600080fd5b506102836107d4565b6040516102909190612040565b60405180910390f35b6102b360048036038101906102ae9190612080565b6107ea565b005b3480156102c157600080fd5b506102ca610adb565b005b3480156102d857600080fd5b506102e1610c72565b005b3480156102ef57600080fd5b506102f8610c8c565b60405161030591906120ad565b60405180910390f35b34801561031a57600080fd5b50610335600480360381019061033091906120f4565b610cb6565b005b34801561034357600080fd5b5061035e6004803603810190610359919061215f565b610e97565b005b34801561036c57600080fd5b5061038760048036038101906103829190611cff565b610f95565b005b34801561039557600080fd5b5061039e611066565b6040516103ab91906121eb565b60405180910390f35b3480156103c057600080fd5b506103c961108c565b6040516103d69190611e9b565b60405180910390f35b3480156103eb57600080fd5b506103f4611092565b6040516104019190611e9b565b60405180910390f35b34801561041657600080fd5b50610431600480360381019061042c9190611cff565b611098565b005b34801561043f57600080fd5b50610448611126565b6040516104559190611e9b565b60405180910390f35b34801561046a57600080fd5b5061048560048036038101906104809190612206565b61112c565b005b34801561049357600080fd5b5061049c611277565b005b3480156104aa57600080fd5b506104c560048036038101906104c09190611cff565b61138e565b005b3480156104d357600080fd5b506104dc61141c565b6040516104e99190612255565b60405180910390f35b3480156104fe57600080fd5b50610519600480360381019061051491906120f4565b611442565b005b600c6020528060005260406000206000915090508060000160009054906101000a900473ffffffffffffffffffffffffffffffffffffffff16908060000160149054906101000a900460ff16908060010154908060020154908060030154908060040160009054906101000a900460ff16908060040160019054906101000a900460ff16908060040160029054906101000a900460ff16908060050154905089565b600b5481565b600460009054906101000a900473ffffffffffffffffffffffffffffffffffffffff1673ffffffffffffffffffffffffffffffffffffffff163373ffffffffffffffffffffffffffffffffffffffff16146106795733600460009054906101000a900473ffffffffffffffffffffffffffffffffffffffff166040517f1cf993f4000000000000000000000000000000000000000000000000000000008152600401610670929190612270565b60405180910390fd5b610684838383611456565b505050565b610691611963565b6106996119f5565b6106a1611a35565b565b6106ab611963565b600083036106ee576040517f08c379a00000000000000000000000000000000000000000000000000000000081526004016106e5906122f6565b60405180910390fd5b60008163ffffffff1611610737576040517f08c379a000000000000000000000000000000000000000000000000000000000815260040161072e90612388565b60405180910390fd5b826005819055508160068190555080600760006101000a81548163ffffffff021916908363ffffffff1602179055507fb7217e99784358ecd33b535f3d43fb8f45c1f26724cba648d2843b3be82b5bb6600554600654600760009054906101000a900463ffffffff166040516107af939291906123c6565b60405180910390a1505050565b600d6020528060005260406000206000915090505481565b60008060009054906101000a900460ff16905090565b6107f2611a97565b6107fa611ad8565b600a5434101561083f576040517f08c379a000000000000000000000000000000000000000000000000000000000815260040161083690612449565b60405180910390fd5b600954341115610884576040517f08c379a000000000000000000000000000000000000000000000000000000000815260040161087b906124b5565b60405180910390fd5b60003490506000600b600081548092919061089e90612504565b9190505590506000600c60008381526020019081526020016000209050338160000160006101000a81548173ffffffffffffffffffffffffffffffffffffffff021916908373ffffffffffffffffffffffffffffffffffffffff160217905550838160000160146101000a81548160ff0219169083600181111561092557610924611d6d565b5b021790555082816001018190555060018160040160016101000a81548160ff02191690831515021790555060006040518060c0016040528060065481526020016005548152602001600361ffff168152602001600760009054906101000a900463ffffffff1663ffffffff168152602001600163ffffffff16815260200160405180602001604052806000815250815250905060007f000000000000000000000000000000000000000000000000000000000000000073ffffffffffffffffffffffffffffffffffffffff16639b1c385e836040518263ffffffff1660e01b8152600401610a1391906126af565b6020604051808303816000875af1158015610a32573d6000803e3d6000fd5b505050506040513d601f19601f82011682018060405250810190610a5691906126e6565b905080836005018190555083600d600083815260200190815260200160002081905550803373ffffffffffffffffffffffffffffffffffffffff16857ff997d823f48f374dcf320abcfb4c14d035a288d7cc3e31d98a18d02b41bc56f78989604051610ac3929190612713565b60405180910390a45050505050610ad8611b1e565b50565b600360009054906101000a900473ffffffffffffffffffffffffffffffffffffffff1673ffffffffffffffffffffffffffffffffffffffff163373ffffffffffffffffffffffffffffffffffffffff1614610b6b576040517f08c379a0000000000000000000000000000000000000000000000000000000008152600401610b6290612788565b60405180910390fd5b6000600260009054906101000a900473ffffffffffffffffffffffffffffffffffffffff16905033600260006101000a81548173ffffffffffffffffffffffffffffffffffffffff021916908373ffffffffffffffffffffffffffffffffffffffff1602179055506000600360006101000a81548173ffffffffffffffffffffffffffffffffffffffff021916908373ffffffffffffffffffffffffffffffffffffffff1602179055503373ffffffffffffffffffffffffffffffffffffffff168173ffffffffffffffffffffffffffffffffffffffff167f8be0079c531659141344cd1fd0a4f28419497f9722a3daafe3b4186f6b6457e060405160405180910390a350565b610c7a611963565b610c82611a97565b610c8a611b27565b565b6000600260009054906101000a900473ffffffffffffffffffffffffffffffffffffffff16905090565b610cbe610c8c565b73ffffffffffffffffffffffffffffffffffffffff163373ffffffffffffffffffffffffffffffffffffffff1614158015610d475750600460009054906101000a900473ffffffffffffffffffffffffffffffffffffffff1673ffffffffffffffffffffffffffffffffffffffff163373ffffffffffffffffffffffffffffffffffffffff1614155b15610db65733610d55610c8c565b600460009054906101000a900473ffffffffffffffffffffffffffffffffffffffff166040517f061db9c1000000000000000000000000000000000000000000000000000000008152600401610dad939291906127a8565b60405180910390fd5b600073ffffffffffffffffffffffffffffffffffffffff168173ffffffffffffffffffffffffffffffffffffffff1603610e1c576040517fd92e233d00000000000000000000000000000000000000000000000000000000815260040160405180910390fd5b80600460006101000a81548173ffffffffffffffffffffffffffffffffffffffff021916908373ffffffffffffffffffffffffffffffffffffffff1602179055507fd1a6a14209a385a964d036e404cb5cfb71f4000cdb03c9366292430787261be681604051610e8c91906120ad565b60405180910390a150565b610e9f611963565b600073ffffffffffffffffffffffffffffffffffffffff168173ffffffffffffffffffffffffffffffffffffffff1603610f0e576040517f08c379a0000000000000000000000000000000000000000000000000000000008152600401610f0590612851565b60405180910390fd5b80600760046101000a81548173ffffffffffffffffffffffffffffffffffffffff021916908373ffffffffffffffffffffffffffffffffffffffff1602179055508073ffffffffffffffffffffffffffffffffffffffff167f29acee77dafcfa0143d74a7ea236018f3a6e1fa71e27fc59bbfbc6b8ca8edccd60405160405180910390a250565b610f9d611963565b60008111610fe0576040517f08c379a0000000000000000000000000000000000000000000000000000000008152600401610fd7906128bd565b60405180910390fd5b806009541015611025576040517f08c379a000000000000000000000000000000000000000000000000000000000815260040161101c9061294f565b60405180910390fd5b80600a819055507f6802a03dd8e2f6a4dc2ab8cf753936dc2aeced88bcd60edfa3d49faba6bc1ade8160405161105b9190611e9b565b60405180910390a150565b600460009054906101000a900473ffffffffffffffffffffffffffffffffffffffff1681565b60085481565b60095481565b6110a0611963565b6127108111156110e5576040517f08c379a00000000000000000000000000000000000000000000000000000000081526004016110dc906129e1565b60405180910390fd5b806008819055507f74516f05eb4bd2461d57aa1e935ee553f86a3e02bfed7759f2f772915de3d9be8160405161111b9190611e9b565b60405180910390a150565b600a5481565b611134611963565b600073ffffffffffffffffffffffffffffffffffffffff168273ffffffffffffffffffffffffffffffffffffffff16036111a3576040517f08c379a000000000000000000000000000000000000000000000000000000000815260040161119a90612a4d565b60405180910390fd5b600082905060008173ffffffffffffffffffffffffffffffffffffffff1663a9059cbb6111ce610c8c565b856040518363ffffffff1660e01b81526004016111ec929190612a6d565b6020604051808303816000875af115801561120b573d6000803e3d6000fd5b505050506040513d601f19601f8201168201806040525081019061122f9190612ac2565b905080611271576040517f08c379a000000000000000000000000000000000000000000000000000000000815260040161126890612b3b565b60405180910390fd5b50505050565b61127f611963565b611287611ad8565b6000479050600081116112cf576040517f08c379a00000000000000000000000000000000000000000000000000000000081526004016112c690612ba7565b60405180910390fd5b60006112d9610c8c565b73ffffffffffffffffffffffffffffffffffffffff16826040516112fc90612bf8565b60006040518083038185875af1925050503d8060008114611339576040519150601f19603f3d011682016040523d82523d6000602084013e61133e565b606091505b5050905080611382576040517f08c379a000000000000000000000000000000000000000000000000000000000815260040161137990612c7f565b60405180910390fd5b505061138c611b1e565b565b611396611963565b600a548110156113db576040517f08c379a00000000000000000000000000000000000000000000000000000000081526004016113d290612d11565b60405180910390fd5b806009819055507f2842cf99332cf44653926376c4c0f5d0f91b749469ac9999bb1c6c9d728b1ba8816040516114119190611e9b565b60405180910390a150565b600760049054906101000a900473ffffffffffffffffffffffffffffffffffffffff1681565b61144a611963565b61145381611b89565b50565b6000600d60008581526020019081526020016000205490506000600c600083815260200190815260200160002090508060040160019054906101000a900460ff166114d6576040517f08c379a00000000000000000000000000000000000000000000000000000000081526004016114cd90612d7d565b60405180910390fd5b8060040160029054906101000a900460ff1615611528576040517f08c379a000000000000000000000000000000000000000000000000000000000815260040161151f90612de9565b60405180910390fd5b60008160040160016101000a81548160ff021916908315150217905550600060028585600081811061155d5761155c612e09565b5b9050602002013561156e9190612e67565b1461157a57600161157d565b60005b8160040160006101000a81548160ff021916908360018111156115a3576115a2611d6d565b5b02179055506000816001015490506000612710600854836115c49190612e98565b6115ce9190612eda565b905080836002018190555060008360000160149054906101000a900460ff1660018111156115ff576115fe611d6d565b5b8460040160009054906101000a900460ff16600181111561162357611622611d6d565b5b1490506000811561178557600060028561163d9190612e98565b9050838161164b9190612f0b565b915081866003018190555083826116629190612f3f565b4710156116a4576040517f08c379a000000000000000000000000000000000000000000000000000000000815260040161169b90612fe5565b60405180910390fd5b600082111561177f5760008660000160009054906101000a900473ffffffffffffffffffffffffffffffffffffffff1673ffffffffffffffffffffffffffffffffffffffff16836040516116f790612bf8565b60006040518083038185875af1925050503d8060008114611734576040519150601f19603f3d011682016040523d82523d6000602084013e611739565b606091505b505090508061177d576040517f08c379a000000000000000000000000000000000000000000000000000000000815260040161177490613051565b60405180910390fd5b505b506117d3565b60008560030181905550824710156117d2576040517f08c379a00000000000000000000000000000000000000000000000000000000081526004016117c9906130e3565b60405180910390fd5b5b60008311156118ac576000600760049054906101000a900473ffffffffffffffffffffffffffffffffffffffff1673ffffffffffffffffffffffffffffffffffffffff168460405161182490612bf8565b60006040518083038185875af1925050503d8060008114611861576040519150601f19603f3d011682016040523d82523d6000602084013e611866565b606091505b50509050806118aa576040517f08c379a00000000000000000000000000000000000000000000000000000000081526004016118a19061314f565b60405180910390fd5b505b60018560040160026101000a81548160ff021916908315150217905550888560000160009054906101000a900473ffffffffffffffffffffffffffffffffffffffff1673ffffffffffffffffffffffffffffffffffffffff16877fb9b0d56d8b79fead8cfe0b73d900409c9b889face7f95238017408f22d1d2c978860040160009054906101000a900460ff1689600301548888604051611950949392919061316f565b60405180910390a4505050505050505050565b600260009054906101000a900473ffffffffffffffffffffffffffffffffffffffff1673ffffffffffffffffffffffffffffffffffffffff163373ffffffffffffffffffffffffffffffffffffffff16146119f3576040517f08c379a00000000000000000000000000000000000000000000000000000000081526004016119ea90613200565b60405180910390fd5b565b6119fd6107d4565b611a33576040517f8dfc202b00000000000000000000000000000000000000000000000000000000815260040160405180910390fd5b565b611a3d6119f5565b60008060006101000a81548160ff0219169083151502179055507f5db9ee0a495bf2e6ff9c91a7834c1ba4fdd244a5e8aa4e537bd38aeae4b073aa611a80611cb7565b604051611a8d91906120ad565b60405180910390a1565b611a9f6107d4565b15611ad6576040517fd93c066500000000000000000000000000000000000000000000000000000000815260040160405180910390fd5b565b600260015403611b14576040517f3ee5aeb500000000000000000000000000000000000000000000000000000000815260040160405180910390fd5b6002600181905550565b60018081905550565b611b2f611a97565b60016000806101000a81548160ff0219169083151502179055507f62e78cea01bee320cd4e420270b5ea74000d11b0c9f74754ebdbfc544b05a258611b72611cb7565b604051611b7f91906120ad565b60405180910390a1565b3373ffffffffffffffffffffffffffffffffffffffff168173ffffffffffffffffffffffffffffffffffffffff1603611bf7576040517f08c379a0000000000000000000000000000000000000000000000000000000008152600401611bee9061326c565b60405180910390fd5b80600360006101000a81548173ffffffffffffffffffffffffffffffffffffffff021916908373ffffffffffffffffffffffffffffffffffffffff1602179055508073ffffffffffffffffffffffffffffffffffffffff16600260009054906101000a900473ffffffffffffffffffffffffffffffffffffffff1673ffffffffffffffffffffffffffffffffffffffff167fed8889f560326eb138920d842192f0eb3dd22b4f139c87a2c57538e05bae127860405160405180910390a350565b600033905090565b600080fd5b600080fd5b6000819050919050565b611cdc81611cc9565b8114611ce757600080fd5b50565b600081359050611cf981611cd3565b92915050565b600060208284031215611d1557611d14611cbf565b5b6000611d2384828501611cea565b91505092915050565b600073ffffffffffffffffffffffffffffffffffffffff82169050919050565b6000611d5782611d2c565b9050919050565b611d6781611d4c565b82525050565b7f4e487b7100000000000000000000000000000000000000000000000000000000600052602160045260246000fd5b60028110611dad57611dac611d6d565b5b50565b6000819050611dbe82611d9c565b919050565b6000611dce82611db0565b9050919050565b611dde81611dc3565b82525050565b611ded81611cc9565b82525050565b60008115159050919050565b611e0881611df3565b82525050565b600061012082019050611e24600083018c611d5e565b611e31602083018b611dd5565b611e3e604083018a611de4565b611e4b6060830189611de4565b611e586080830188611de4565b611e6560a0830187611dd5565b611e7260c0830186611dff565b611e7f60e0830185611dff565b611e8d610100830184611de4565b9a9950505050505050505050565b6000602082019050611eb06000830184611de4565b92915050565b600080fd5b600080fd5b600080fd5b60008083601f840112611edb57611eda611eb6565b5b8235905067ffffffffffffffff811115611ef857611ef7611ebb565b5b602083019150836020820283011115611f1457611f13611ec0565b5b9250929050565b600080600060408486031215611f3457611f33611cbf565b5b6000611f4286828701611cea565b935050602084013567ffffffffffffffff811115611f6357611f62611cc4565b5b611f6f86828701611ec5565b92509250509250925092565b6000819050919050565b611f8e81611f7b565b8114611f9957600080fd5b50565b600081359050611fab81611f85565b92915050565b600063ffffffff82169050919050565b611fca81611fb1565b8114611fd557600080fd5b50565b600081359050611fe781611fc1565b92915050565b60008060006060848603121561200657612005611cbf565b5b600061201486828701611cea565b935050602061202586828701611f9c565b925050604061203686828701611fd8565b9150509250925092565b60006020820190506120556000830184611dff565b92915050565b6002811061206857600080fd5b50565b60008135905061207a8161205b565b92915050565b60006020828403121561209657612095611cbf565b5b60006120a48482850161206b565b91505092915050565b60006020820190506120c26000830184611d5e565b92915050565b6120d181611d4c565b81146120dc57600080fd5b50565b6000813590506120ee816120c8565b92915050565b60006020828403121561210a57612109611cbf565b5b6000612118848285016120df565b91505092915050565b600061212c82611d2c565b9050919050565b61213c81612121565b811461214757600080fd5b50565b60008135905061215981612133565b92915050565b60006020828403121561217557612174611cbf565b5b60006121838482850161214a565b91505092915050565b6000819050919050565b60006121b16121ac6121a784611d2c565b61218c565b611d2c565b9050919050565b60006121c382612196565b9050919050565b60006121d5826121b8565b9050919050565b6121e5816121ca565b82525050565b600060208201905061220060008301846121dc565b92915050565b6000806040838503121561221d5761221c611cbf565b5b600061222b858286016120df565b925050602061223c85828601611cea565b9150509250929050565b61224f81612121565b82525050565b600060208201905061226a6000830184612246565b92915050565b60006040820190506122856000830185611d5e565b6122926020830184611d5e565b9392505050565b600082825260208201905092915050565b7f537562736372697074696f6e2049442063616e6e6f74206265207a65726f0000600082015250565b60006122e0601e83612299565b91506122eb826122aa565b602082019050919050565b6000602082019050818103600083015261230f816122d3565b9050919050565b7f43616c6c6261636b20676173206c696d6974206d75737420626520677265617460008201527f6572207468616e20300000000000000000000000000000000000000000000000602082015250565b6000612372602983612299565b915061237d82612316565b604082019050919050565b600060208201905081810360008301526123a181612365565b9050919050565b6123b181611f7b565b82525050565b6123c081611fb1565b82525050565b60006060820190506123db6000830186611de4565b6123e860208301856123a8565b6123f560408301846123b7565b949350505050565b7f57616765722069732062656c6f77206d696e696d756d206c696d697400000000600082015250565b6000612433601c83612299565b915061243e826123fd565b602082019050919050565b6000602082019050818103600083015261246281612426565b9050919050565b7f57616765722069732061626f7665206d6178696d756d206c696d697400000000600082015250565b600061249f601c83612299565b91506124aa82612469565b602082019050919050565b600060208201905081810360008301526124ce81612492565b9050919050565b7f4e487b7100000000000000000000000000000000000000000000000000000000600052601160045260246000fd5b600061250f82611cc9565b91507fffffffffffffffffffffffffffffffffffffffffffffffffffffffffffffffff8203612541576125406124d5565b5b600182019050919050565b61255581611f7b565b82525050565b61256481611cc9565b82525050565b600061ffff82169050919050565b6125818161256a565b82525050565b61259081611fb1565b82525050565b600081519050919050565b600082825260208201905092915050565b60005b838110156125d05780820151818401526020810190506125b5565b60008484015250505050565b6000601f19601f8301169050919050565b60006125f882612596565b61260281856125a1565b93506126128185602086016125b2565b61261b816125dc565b840191505092915050565b600060c08301600083015161263e600086018261254c565b506020830151612651602086018261255b565b5060408301516126646040860182612578565b5060608301516126776060860182612587565b50608083015161268a6080860182612587565b5060a083015184820360a08601526126a282826125ed565b9150508091505092915050565b600060208201905081810360008301526126c98184612626565b905092915050565b6000815190506126e081611cd3565b92915050565b6000602082840312156126fc576126fb611cbf565b5b600061270a848285016126d1565b91505092915050565b60006040820190506127286000830185611dd5565b6127356020830184611de4565b9392505050565b7f4d7573742062652070726f706f736564206f776e657200000000000000000000600082015250565b6000612772601683612299565b915061277d8261273c565b602082019050919050565b600060208201905081810360008301526127a181612765565b9050919050565b60006060820190506127bd6000830186611d5e565b6127ca6020830185611d5e565b6127d76040830184611d5e565b949350505050565b7f4e6577206665652077616c6c65742063616e6e6f74206265207a65726f20616460008201527f6472657373000000000000000000000000000000000000000000000000000000602082015250565b600061283b602583612299565b9150612846826127df565b604082019050919050565b6000602082019050818103600083015261286a8161282e565b9050919050565b7f4d696e207761676572206d7573742062652067726561746572207468616e2030600082015250565b60006128a7602083612299565b91506128b282612871565b602082019050919050565b600060208201905081810360008301526128d68161289a565b9050919050565b7f4d6178207761676572206d7573742062652067726561746572207468616e206f60008201527f7220657175616c20746f206e6577206d696e2077616765720000000000000000602082015250565b6000612939603883612299565b9150612944826128dd565b604082019050919050565b600060208201905081810360008301526129688161292c565b9050919050565b7f4665652070657263656e746167652063616e6e6f74206578636565642031303060008201527f303020626173697320706f696e74732028313030252900000000000000000000602082015250565b60006129cb603683612299565b91506129d68261296f565b604082019050919050565b600060208201905081810360008301526129fa816129be565b9050919050565b7f546f6b656e20616464726573732063616e6e6f74206265207a65726f00000000600082015250565b6000612a37601c83612299565b9150612a4282612a01565b602082019050919050565b60006020820190508181036000830152612a6681612a2a565b9050919050565b6000604082019050612a826000830185611d5e565b612a8f6020830184611de4565b9392505050565b612a9f81611df3565b8114612aaa57600080fd5b50565b600081519050612abc81612a96565b92915050565b600060208284031215612ad857612ad7611cbf565b5b6000612ae684828501612aad565b91505092915050565b7f455243323020746f6b656e207769746864726177616c206661696c6564000000600082015250565b6000612b25601d83612299565b9150612b3082612aef565b602082019050919050565b60006020820190508181036000830152612b5481612b18565b9050919050565b7f4e6f2062616c616e636520746f20776974686472617700000000000000000000600082015250565b6000612b91601683612299565b9150612b9c82612b5b565b602082019050919050565b60006020820190508181036000830152612bc081612b84565b9050919050565b600081905092915050565b50565b6000612be2600083612bc7565b9150612bed82612bd2565b600082019050919050565b6000612c0382612bd5565b9150819050919050565b7f436f6e7472616374204554482062616c616e6365207769746864726177616c2060008201527f6661696c65640000000000000000000000000000000000000000000000000000602082015250565b6000612c69602683612299565b9150612c7482612c0d565b604082019050919050565b60006020820190508181036000830152612c9881612c5c565b9050919050565b7f4d6178207761676572206d7573742062652067726561746572207468616e206f60008201527f7220657175616c20746f206d696e207761676572000000000000000000000000602082015250565b6000612cfb603483612299565b9150612d0682612c9f565b604082019050919050565b60006020820190508181036000830152612d2a81612cee565b9050919050565b7f47616d65206e6f7420696e207265717565737465642073746174650000000000600082015250565b6000612d67601b83612299565b9150612d7282612d31565b602082019050919050565b60006020820190508181036000830152612d9681612d5a565b9050919050565b7f47616d6520616c726561647920736574746c6564000000000000000000000000600082015250565b6000612dd3601483612299565b9150612dde82612d9d565b602082019050919050565b60006020820190508181036000830152612e0281612dc6565b9050919050565b7f4e487b7100000000000000000000000000000000000000000000000000000000600052603260045260246000fd5b7f4e487b7100000000000000000000000000000000000000000000000000000000600052601260045260246000fd5b6000612e7282611cc9565b9150612e7d83611cc9565b925082612e8d57612e8c612e38565b5b828206905092915050565b6000612ea382611cc9565b9150612eae83611cc9565b9250828202612ebc81611cc9565b91508282048414831517612ed357612ed26124d5565b5b5092915050565b6000612ee582611cc9565b9150612ef083611cc9565b925082612f0057612eff612e38565b5b828204905092915050565b6000612f1682611cc9565b9150612f2183611cc9565b9250828203905081811115612f3957612f386124d5565b5b92915050565b6000612f4a82611cc9565b9150612f5583611cc9565b9250828201905080821115612f6d57612f6c6124d5565b5b92915050565b7f436f6e74726163742068617320696e73756666696369656e742062616c616e6360008201527f6520666f722077696e207061796f757420616e64206665650000000000000000602082015250565b6000612fcf603883612299565b9150612fda82612f73565b604082019050919050565b60006020820190508181036000830152612ffe81612fc2565b9050919050565b7f506c61796572207061796f7574207472616e73666572206661696c6564000000600082015250565b600061303b601d83612299565b915061304682613005565b602082019050919050565b6000602082019050818103600083015261306a8161302e565b9050919050565b7f436f6e74726163742068617320696e73756666696369656e742062616c616e6360008201527f6520666f7220666565207472616e73666572206f6e206c6f7373000000000000602082015250565b60006130cd603a83612299565b91506130d882613071565b604082019050919050565b600060208201905081810360008301526130fc816130c0565b9050919050565b7f466565207472616e7366657220746f2066656557616c6c6574206661696c6564600082015250565b6000613139602083612299565b915061314482613103565b602082019050919050565b600060208201905081810360008301526131688161312c565b9050919050565b60006080820190506131846000830187611dd5565b6131916020830186611de4565b61319e6040830185611de4565b6131ab6060830184611dff565b95945050505050565b7f4f6e6c792063616c6c61626c65206279206f776e657200000000000000000000600082015250565b60006131ea601683612299565b91506131f5826131b4565b602082019050919050565b60006020820190508181036000830152613219816131dd565b9050919050565b7f43616e6e6f74207472616e7366657220746f2073656c66000000000000000000600082015250565b6000613256601783612299565b915061326182613220565b602082019050919050565b6000602082019050818103600083015261328581613249565b905091905056fea264697066735822122081e0569056c5b2a59e88eeb62bb97a54c06bc86db27764ca726e16d24709871264736f6c63430008180033",
  "linkReferences": {},
  "deployedLinkReferences": {}
}