{
  "_format": "hh-sol-artifact-1",
  "contractName": "FlipSkiBaseVRF",
  "sourceName": "contracts/FlipSkiBase_VRF.sol",
  "abi": [
    {
      "inputs": [
        {
          "internalType": "address payable",
          "name": "_initialFeeWallet",
          "type": "address"
        },
        {
          "internalType": "uint256",
          "name": "_initialFeePercentage",
          "type": "uint256"
        },
        {
          "internalType": "uint256",
          "name": "_initialMaxWager",
          "type": "uint256"
        },
        {
          "internalType": "uint256",
          "name": "_initialMinWager",
          "type": "uint256"
        },
        {
          "internalType": "address",
          "name": "_vrfCoordinator",
          "type": "address"
        },
        {
          "internalType": "uint64",
          "name": "_subscriptionId",
          "type": "uint64"
        },
        {
          "internalType": "bytes32",
          "name": "_keyHash",
          "type": "bytes32"
        }
      ],
      "stateMutability": "nonpayable",
      "type": "constructor"
    },
    {
      "inputs": [],
      "name": "EnforcedPause",
      "type": "error"
    },
    {
      "inputs": [],
      "name": "ExpectedPause",
      "type": "error"
    },
    {
      "inputs": [
        {
          "internalType": "address",
          "name": "have",
          "type": "address"
        },
        {
          "internalType": "address",
          "name": "want",
          "type": "address"
        }
      ],
      "name": "OnlyCoordinatorCanFulfill",
      "type": "error"
    },
    {
      "inputs": [
        {
          "internalType": "address",
          "name": "have",
          "type": "address"
        },
        {
          "internalType": "address",
          "name": "owner",
          "type": "address"
        },
        {
          "internalType": "address",
          "name": "coordinator",
          "type": "address"
        }
      ],
      "name": "OnlyOwnerOrCoordinator",
      "type": "error"
    },
    {
      "inputs": [],
      "name": "ReentrancyGuardReentrantCall",
      "type": "error"
    },
    {
      "inputs": [],
      "name": "ZeroAddress",
      "type": "error"
    },
    {
      "anonymous": false,
      "inputs": [
        {
          "indexed": false,
          "internalType": "address",
          "name": "vrfCoordinator",
          "type": "address"
        }
      ],
      "name": "CoordinatorSet",
      "type": "event"
    },
    {
      "anonymous": false,
      "inputs": [
        {
          "indexed": false,
          "internalType": "uint256",
          "name": "newFeePercentage",
          "type": "uint256"
        }
      ],
      "name": "FeePercentageUpdated",
      "type": "event"
    },
    {
      "anonymous": false,
      "inputs": [
        {
          "indexed": true,
          "internalType": "address",
          "name": "newFeeWallet",
          "type": "address"
        }
      ],
      "name": "FeeWalletUpdated",
      "type": "event"
    },
    {
      "anonymous": false,
      "inputs": [
        {
          "indexed": true,
          "internalType": "uint256",
          "name": "gameId",
          "type": "uint256"
        },
        {
          "indexed": true,
          "internalType": "address",
          "name": "player",
          "type": "address"
        },
        {
          "indexed": false,
          "internalType": "enum FlipSkiBaseVRF.CoinSide",
          "name": "choice",
          "type": "uint8"
        },
        {
          "indexed": false,
          "internalType": "uint256",
          "name": "wagerAmount",
          "type": "uint256"
        },
        {
          "indexed": true,
          "internalType": "uint256",
          "name": "vrfRequestId",
          "type": "uint256"
        }
      ],
      "name": "GameRequested",
      "type": "event"
    },
    {
      "anonymous": false,
      "inputs": [
        {
          "indexed": true,
          "internalType": "uint256",
          "name": "gameId",
          "type": "uint256"
        },
        {
          "indexed": true,
          "internalType": "address",
          "name": "player",
          "type": "address"
        },
        {
          "indexed": false,
          "internalType": "enum FlipSkiBaseVRF.CoinSide",
          "name": "result",
          "type": "uint8"
        },
        {
          "indexed": false,
          "internalType": "uint256",
          "name": "payoutAmount",
          "type": "uint256"
        },
        {
          "indexed": false,
          "internalType": "uint256",
          "name": "feeAmount",
          "type": "uint256"
        },
        {
          "indexed": true,
          "internalType": "uint256",
          "name": "vrfRequestId",
          "type": "uint256"
        },
        {
          "indexed": false,
          "internalType": "bool",
          "name": "playerWon",
          "type": "bool"
        }
      ],
      "name": "GameSettled",
      "type": "event"
    },
    {
      "anonymous": false,
      "inputs": [
        {
          "indexed": false,
          "internalType": "uint256",
          "name": "newMaxWager",
          "type": "uint256"
        }
      ],
      "name": "MaxWagerUpdated",
      "type": "event"
    },
    {
      "anonymous": false,
      "inputs": [
        {
          "indexed": false,
          "internalType": "uint256",
          "name": "newMinWager",
          "type": "uint256"
        }
      ],
      "name": "MinWagerUpdated",
      "type": "event"
    },
    {
      "anonymous": false,
      "inputs": [
        {
          "indexed": true,
          "internalType": "address",
          "name": "from",
          "type": "address"
        },
        {
          "indexed": true,
          "internalType": "address",
          "name": "to",
          "type": "address"
        }
      ],
      "name": "OwnershipTransferRequested",
      "type": "event"
    },
    {
      "anonymous": false,
      "inputs": [
        {
          "indexed": true,
          "internalType": "address",
          "name": "from",
          "type": "address"
        },
        {
          "indexed": true,
          "internalType": "address",
          "name": "to",
          "type": "address"
        }
      ],
      "name": "OwnershipTransferred",
      "type": "event"
    },
    {
      "anonymous": false,
      "inputs": [
        {
          "indexed": false,
          "internalType": "address",
          "name": "account",
          "type": "address"
        }
      ],
      "name": "Paused",
      "type": "event"
    },
    {
      "anonymous": false,
      "inputs": [
        {
          "indexed": false,
          "internalType": "address",
          "name": "account",
          "type": "address"
        }
      ],
      "name": "Unpaused",
      "type": "event"
    },
    {
      "anonymous": false,
      "inputs": [
        {
          "indexed": false,
          "internalType": "uint64",
          "name": "newSubscriptionId",
          "type": "uint64"
        },
        {
          "indexed": false,
          "internalType": "bytes32",
          "name": "newKeyHash",
          "type": "bytes32"
        },
        {
          "indexed": false,
          "internalType": "uint32",
          "name": "newCallbackGasLimit",
          "type": "uint32"
        }
      ],
      "name": "VRFParametersUpdated",
      "type": "event"
    },
    {
      "stateMutability": "payable",
      "type": "fallback"
    },
    {
      "inputs": [],
      "name": "acceptOwnership",
      "outputs": [],
      "stateMutability": "nonpayable",
      "type": "function"
    },
    {
      "inputs": [],
      "name": "feePercentage",
      "outputs": [
        {
          "internalType": "uint256",
          "name": "",
          "type": "uint256"
        }
      ],
      "stateMutability": "view",
      "type": "function"
    },
    {
      "inputs": [],
      "name": "feeWallet",
      "outputs": [
        {
          "internalType": "address payable",
          "name": "",
          "type": "address"
        }
      ],
      "stateMutability": "view",
      "type": "function"
    },
    {
      "inputs": [
        {
          "internalType": "enum FlipSkiBaseVRF.CoinSide",
          "name": "_choice",
          "type": "uint8"
        }
      ],
      "name": "flip",
      "outputs": [],
      "stateMutability": "payable",
      "type": "function"
    },
    {
      "inputs": [],
      "name": "gameIdCounter",
      "outputs": [
        {
          "internalType": "uint256",
          "name": "",
          "type": "uint256"
        }
      ],
      "stateMutability": "view",
      "type": "function"
    },
    {
      "inputs": [
        {
          "internalType": "uint256",
          "name": "",
          "type": "uint256"
        }
      ],
      "name": "games",
      "outputs": [
        {
          "internalType": "address",
          "name": "player",
          "type": "address"
        },
        {
          "internalType": "enum FlipSkiBaseVRF.CoinSide",
          "name": "choice",
          "type": "uint8"
        },
        {
          "internalType": "uint256",
          "name": "wagerAmount",
          "type": "uint256"
        },
        {
          "internalType": "uint256",
          "name": "feeAmount",
          "type": "uint256"
        },
        {
          "internalType": "uint256",
          "name": "payoutAmount",
          "type": "uint256"
        },
        {
          "internalType": "enum FlipSkiBaseVRF.CoinSide",
          "name": "result",
          "type": "uint8"
        },
        {
          "internalType": "bool",
          "name": "requested",
          "type": "bool"
        },
        {
          "internalType": "bool",
          "name": "settled",
          "type": "bool"
        },
        {
          "internalType": "uint256",
          "name": "vrfRequestId",
          "type": "uint256"
        }
      ],
      "stateMutability": "view",
      "type": "function"
    },
    {
      "inputs": [],
      "name": "maxWager",
      "outputs": [
        {
          "internalType": "uint256",
          "name": "",
          "type": "uint256"
        }
      ],
      "stateMutability": "view",
      "type": "function"
    },
    {
      "inputs": [],
      "name": "minWager",
      "outputs": [
        {
          "internalType": "uint256",
          "name": "",
          "type": "uint256"
        }
      ],
      "stateMutability": "view",
      "type": "function"
    },
    {
      "inputs": [],
      "name": "owner",
      "outputs": [
        {
          "internalType": "address",
          "name": "",
          "type": "address"
        }
      ],
      "stateMutability": "view",
      "type": "function"
    },
    {
      "inputs": [],
      "name": "pause",
      "outputs": [],
      "stateMutability": "nonpayable",
      "type": "function"
    },
    {
      "inputs": [],
      "name": "paused",
      "outputs": [
        {
          "internalType": "bool",
          "name": "",
          "type": "bool"
        }
      ],
      "stateMutability": "view",
      "type": "function"
    },
    {
      "inputs": [
        {
          "internalType": "uint256",
          "name": "requestId",
          "type": "uint256"
        },
        {
          "internalType": "uint256[]",
          "name": "randomWords",
          "type": "uint256[]"
        }
      ],
      "name": "rawFulfillRandomWords",
      "outputs": [],
      "stateMutability": "nonpayable",
      "type": "function"
    },
    {
      "inputs": [],
      "name": "s_vrfCoordinator",
      "outputs": [
        {
          "internalType": "contract IVRFCoordinatorV2Plus",
          "name": "",
          "type": "address"
        }
      ],
      "stateMutability": "view",
      "type": "function"
    },
    {
      "inputs": [
        {
          "internalType": "address",
          "name": "_vrfCoordinator",
          "type": "address"
        }
      ],
      "name": "setCoordinator",
      "outputs": [],
      "stateMutability": "nonpayable",
      "type": "function"
    },
    {
      "inputs": [
        {
          "internalType": "uint256",
          "name": "_newFeePercentage",
          "type": "uint256"
        }
      ],
      "name": "setFeePercentage",
      "outputs": [],
      "stateMutability": "nonpayable",
      "type": "function"
    },
    {
      "inputs": [
        {
          "internalType": "address payable",
          "name": "_newFeeWallet",
          "type": "address"
        }
      ],
      "name": "setFeeWallet",
      "outputs": [],
      "stateMutability": "nonpayable",
      "type": "function"
    },
    {
      "inputs": [
        {
          "internalType": "uint256",
          "name": "_newMaxWager",
          "type": "uint256"
        }
      ],
      "name": "setMaxWager",
      "outputs": [],
      "stateMutability": "nonpayable",
      "type": "function"
    },
    {
      "inputs": [
        {
          "internalType": "uint256",
          "name": "_newMinWager",
          "type": "uint256"
        }
      ],
      "name": "setMinWager",
      "outputs": [],
      "stateMutability": "nonpayable",
      "type": "function"
    },
    {
      "inputs": [
        {
          "internalType": "uint64",
          "name": "_newSubscriptionId",
          "type": "uint64"
        },
        {
          "internalType": "bytes32",
          "name": "_newKeyHash",
          "type": "bytes32"
        },
        {
          "internalType": "uint32",
          "name": "_newCallbackGasLimit",
          "type": "uint32"
        }
      ],
      "name": "setVRFParameters",
      "outputs": [],
      "stateMutability": "nonpayable",
      "type": "function"
    },
    {
      "inputs": [
        {
          "internalType": "address",
          "name": "to",
          "type": "address"
        }
      ],
      "name": "transferOwnership",
      "outputs": [],
      "stateMutability": "nonpayable",
      "type": "function"
    },
    {
      "inputs": [],
      "name": "unpause",
      "outputs": [],
      "stateMutability": "nonpayable",
      "type": "function"
    },
    {
      "inputs": [
        {
          "internalType": "uint256",
          "name": "",
          "type": "uint256"
        }
      ],
      "name": "vrfRequestToGameId",
      "outputs": [
        {
          "internalType": "uint256",
          "name": "",
          "type": "uint256"
        }
      ],
      "stateMutability": "view",
      "type": "function"
    },
    {
      "inputs": [],
      "name": "withdrawContractBalance",
      "outputs": [],
      "stateMutability": "nonpayable",
      "type": "function"
    },
    {
      "inputs": [
        {
          "internalType": "address",
          "name": "_tokenAddress",
          "type": "address"
        },
        {
          "internalType": "uint256",
          "name": "_amount",
          "type": "uint256"
        }
      ],
      "name": "withdrawStuckTokens",
      "outputs": [],
      "stateMutability": "nonpayable",
      "type": "function"
    },
    {
      "stateMutability": "payable",
      "type": "receive"
    }
  ],
  "bytecode": "0x60a0604052620493e0600660006101000a81548163ffffffff021916908363ffffffff16021790555034801561003457600080fd5b50604051613f67380380613f6783398181016040528101906100569190610738565b823380600060018081905550600073ffffffffffffffffffffffffffffffffffffffff168273ffffffffffffffffffffffffffffffffffffffff16036100d1576040517f08c379a00000000000000000000000000000000000000000000000000000000081526004016100c890610837565b60405180910390fd5b81600260006101000a81548173ffffffffffffffffffffffffffffffffffffffff021916908373ffffffffffffffffffffffffffffffffffffffff160217905550600073ffffffffffffffffffffffffffffffffffffffff168173ffffffffffffffffffffffffffffffffffffffff161461015657610155816104bd60201b60201c565b5b505050600073ffffffffffffffffffffffffffffffffffffffff168173ffffffffffffffffffffffffffffffffffffffff16036101bf576040517fd92e233d00000000000000000000000000000000000000000000000000000000815260040160405180910390fd5b80600460006101000a81548173ffffffffffffffffffffffffffffffffffffffff021916908373ffffffffffffffffffffffffffffffffffffffff16021790555050600073ffffffffffffffffffffffffffffffffffffffff168773ffffffffffffffffffffffffffffffffffffffff1603610270576040517f08c379a0000000000000000000000000000000000000000000000000000000008152600401610267906108c9565b60405180910390fd5b6127108611156102b5576040517f08c379a00000000000000000000000000000000000000000000000000000000081526004016102ac9061095b565b60405180910390fd5b600084116102f8576040517f08c379a00000000000000000000000000000000000000000000000000000000081526004016102ef906109c7565b60405180910390fd5b8385101561033b576040517f08c379a000000000000000000000000000000000000000000000000000000000815260040161033290610a59565b60405180910390fd5b600073ffffffffffffffffffffffffffffffffffffffff168373ffffffffffffffffffffffffffffffffffffffff16036103aa576040517f08c379a00000000000000000000000000000000000000000000000000000000081526004016103a190610aeb565b60405180910390fd5b60008267ffffffffffffffff16036103f7576040517f08c379a00000000000000000000000000000000000000000000000000000000081526004016103ee90610b57565b60405180910390fd5b86600660046101000a81548173ffffffffffffffffffffffffffffffffffffffff021916908373ffffffffffffffffffffffffffffffffffffffff1602179055508560078190555084600881905550836009819055508273ffffffffffffffffffffffffffffffffffffffff1660808173ffffffffffffffffffffffffffffffffffffffff168152505081600460146101000a81548167ffffffffffffffff021916908367ffffffffffffffff1602179055508060058190555050505050505050610be3565b3373ffffffffffffffffffffffffffffffffffffffff168173ffffffffffffffffffffffffffffffffffffffff160361052b576040517f08c379a000000000000000000000000000000000000000000000000000000000815260040161052290610bc3565b60405180910390fd5b80600360006101000a81548173ffffffffffffffffffffffffffffffffffffffff021916908373ffffffffffffffffffffffffffffffffffffffff1602179055508073ffffffffffffffffffffffffffffffffffffffff16600260009054906101000a900473ffffffffffffffffffffffffffffffffffffffff1673ffffffffffffffffffffffffffffffffffffffff167fed8889f560326eb138920d842192f0eb3dd22b4f139c87a2c57538e05bae127860405160405180910390a350565b600080fd5b600073ffffffffffffffffffffffffffffffffffffffff82169050919050565b600061061b826105f0565b9050919050565b61062b81610610565b811461063657600080fd5b50565b60008151905061064881610622565b92915050565b6000819050919050565b6106618161064e565b811461066c57600080fd5b50565b60008151905061067e81610658565b92915050565b600061068f826105f0565b9050919050565b61069f81610684565b81146106aa57600080fd5b50565b6000815190506106bc81610696565b92915050565b600067ffffffffffffffff82169050919050565b6106df816106c2565b81146106ea57600080fd5b50565b6000815190506106fc816106d6565b92915050565b6000819050919050565b61071581610702565b811461072057600080fd5b50565b6000815190506107328161070c565b92915050565b600080600080600080600060e0888a031215610757576107566105eb565b5b60006107658a828b01610639565b97505060206107768a828b0161066f565b96505060406107878a828b0161066f565b95505060606107988a828b0161066f565b94505060806107a98a828b016106ad565b93505060a06107ba8a828b016106ed565b92505060c06107cb8a828b01610723565b91505092959891949750929550565b600082825260208201905092915050565b7f43616e6e6f7420736574206f776e657220746f207a65726f0000000000000000600082015250565b60006108216018836107da565b915061082c826107eb565b602082019050919050565b6000602082019050818103600083015261085081610814565b9050919050565b7f4665652077616c6c65742063616e6e6f74206265207a65726f2061646472657360008201527f7300000000000000000000000000000000000000000000000000000000000000602082015250565b60006108b36021836107da565b91506108be82610857565b604082019050919050565b600060208201905081810360008301526108e2816108a6565b9050919050565b7f4665652070657263656e746167652063616e6e6f74206578636565642031303060008201527f303020626173697320706f696e74732028313030252900000000000000000000602082015250565b60006109456036836107da565b9150610950826108e9565b604082019050919050565b6000602082019050818103600083015261097481610938565b9050919050565b7f4d696e207761676572206d7573742062652067726561746572207468616e2030600082015250565b60006109b16020836107da565b91506109bc8261097b565b602082019050919050565b600060208201905081810360008301526109e0816109a4565b9050919050565b7f4d6178207761676572206d7573742062652067726561746572207468616e206f60008201527f7220657175616c20746f206d696e207761676572000000000000000000000000602082015250565b6000610a436034836107da565b9150610a4e826109e7565b604082019050919050565b60006020820190508181036000830152610a7281610a36565b9050919050565b7f56524620436f6f7264696e61746f7220616464726573732063616e6e6f74206260008201527f65207a65726f0000000000000000000000000000000000000000000000000000602082015250565b6000610ad56026836107da565b9150610ae082610a79565b604082019050919050565b60006020820190508181036000830152610b0481610ac8565b9050919050565b7f537562736372697074696f6e2049442063616e6e6f74206265207a65726f0000600082015250565b6000610b41601e836107da565b9150610b4c82610b0b565b602082019050919050565b60006020820190508181036000830152610b7081610b34565b9050919050565b7f43616e6e6f74207472616e7366657220746f2073656c66000000000000000000600082015250565b6000610bad6017836107da565b9150610bb882610b77565b602082019050919050565b60006020820190508181036000830152610bdc81610ba0565b9050919050565b608051613369610bfe60003960006108bb01526133696000f3fe60806040526004361061014f5760003560e01c80639ae980a8116100b6578063bb9c3f2b1161006f578063bb9c3f2b1461042d578063bd61f0a614610458578063bfab3db914610481578063d15b48b914610498578063f25f4b56146104c1578063f2fde38b146104ec57610150565b80639ae980a8146103315780639eccacf61461035a578063a001ecdd14610385578063a52ef3fa146103b0578063a792da6b146103db578063ae06c1b71461040457610150565b8063638c063711610108578063638c06371461026a57806379ba5097146102865780638456cb591461029d5780638da5cb5b146102b45780638ea98117146102df57806390d49b9d1461030857610150565b8063117a5b90146101525780631bb412d6146101975780631fe543e3146101c25780633f4ba83a146101eb57806344e493fa146102025780635c975abb1461023f57610150565b5b005b34801561015e57600080fd5b5061017960048036038101906101749190611d57565b610515565b60405161018e99989796959493929190611e66565b60405180910390f35b3480156101a357600080fd5b506101ac6105b7565b6040516101b99190611ef3565b60405180910390f35b3480156101ce57600080fd5b506101e960048036038101906101e49190611f73565b6105bd565b005b3480156101f757600080fd5b50610200610683565b005b34801561020e57600080fd5b5061022960048036038101906102249190611d57565b61069d565b6040516102369190611ef3565b60405180910390f35b34801561024b57600080fd5b506102546106b5565b6040516102619190611fd3565b60405180910390f35b610284600480360381019061027f9190612013565b6106cb565b005b34801561029257600080fd5b5061029b6109da565b005b3480156102a957600080fd5b506102b2610b71565b005b3480156102c057600080fd5b506102c9610b8b565b6040516102d69190612040565b60405180910390f35b3480156102eb57600080fd5b5061030660048036038101906103019190612087565b610bb5565b005b34801561031457600080fd5b5061032f600480360381019061032a91906120f2565b610d96565b005b34801561033d57600080fd5b5061035860048036038101906103539190611d57565b610e94565b005b34801561036657600080fd5b5061036f610f65565b60405161037c919061217e565b60405180910390f35b34801561039157600080fd5b5061039a610f8b565b6040516103a79190611ef3565b60405180910390f35b3480156103bc57600080fd5b506103c5610f91565b6040516103d29190611ef3565b60405180910390f35b3480156103e757600080fd5b5061040260048036038101906103fd919061224b565b610f97565b005b34801561041057600080fd5b5061042b60048036038101906104269190611d57565b6110f0565b005b34801561043957600080fd5b5061044261117e565b60405161044f9190611ef3565b60405180910390f35b34801561046457600080fd5b5061047f600480360381019061047a919061229e565b611184565b005b34801561048d57600080fd5b506104966112cf565b005b3480156104a457600080fd5b506104bf60048036038101906104ba9190611d57565b6113e6565b005b3480156104cd57600080fd5b506104d6611474565b6040516104e391906122ed565b60405180910390f35b3480156104f857600080fd5b50610513600480360381019061050e9190612087565b61149a565b005b600b6020528060005260406000206000915090508060000160009054906101000a900473ffffffffffffffffffffffffffffffffffffffff16908060000160149054906101000a900460ff16908060010154908060020154908060030154908060040160009054906101000a900460ff16908060040160019054906101000a900460ff16908060040160029054906101000a900460ff16908060050154905089565b600a5481565b600460009054906101000a900473ffffffffffffffffffffffffffffffffffffffff1673ffffffffffffffffffffffffffffffffffffffff163373ffffffffffffffffffffffffffffffffffffffff16146106735733600460009054906101000a900473ffffffffffffffffffffffffffffffffffffffff166040517f1cf993f400000000000000000000000000000000000000000000000000000000815260040161066a929190612308565b60405180910390fd5b61067e8383836114ae565b505050565b61068b6119bb565b610693611a4d565b61069b611a8d565b565b600c6020528060005260406000206000915090505481565b60008060009054906101000a900460ff16905090565b6106d3611aef565b6106db611b30565b600954341015610720576040517f08c379a00000000000000000000000000000000000000000000000000000000081526004016107179061238e565b60405180910390fd5b600854341115610765576040517f08c379a000000000000000000000000000000000000000000000000000000000815260040161075c906123fa565b60405180910390fd5b60003490506000600a600081548092919061077f90612449565b9190505590506000600b60008381526020019081526020016000209050338160000160006101000a81548173ffffffffffffffffffffffffffffffffffffffff021916908373ffffffffffffffffffffffffffffffffffffffff160217905550838160000160146101000a81548160ff0219169083600181111561080657610805611dc5565b5b021790555082816001018190555060018160040160016101000a81548160ff02191690831515021790555060006040518060c001604052806005548152602001600460149054906101000a900467ffffffffffffffff1667ffffffffffffffff168152602001600361ffff168152602001600660009054906101000a900463ffffffff1663ffffffff168152602001600163ffffffff16815260200160405180602001604052806000815250815250905060007f000000000000000000000000000000000000000000000000000000000000000073ffffffffffffffffffffffffffffffffffffffff16639b1c385e836040518263ffffffff1660e01b815260040161091291906125f4565b6020604051808303816000875af1158015610931573d6000803e3d6000fd5b505050506040513d601f19601f82011682018060405250810190610955919061262b565b905080836005018190555083600c600083815260200190815260200160002081905550803373ffffffffffffffffffffffffffffffffffffffff16857ff997d823f48f374dcf320abcfb4c14d035a288d7cc3e31d98a18d02b41bc56f789896040516109c2929190612658565b60405180910390a450505050506109d7611b76565b50565b600360009054906101000a900473ffffffffffffffffffffffffffffffffffffffff1673ffffffffffffffffffffffffffffffffffffffff163373ffffffffffffffffffffffffffffffffffffffff1614610a6a576040517f08c379a0000000000000000000000000000000000000000000000000000000008152600401610a61906126cd565b60405180910390fd5b6000600260009054906101000a900473ffffffffffffffffffffffffffffffffffffffff16905033600260006101000a81548173ffffffffffffffffffffffffffffffffffffffff021916908373ffffffffffffffffffffffffffffffffffffffff1602179055506000600360006101000a81548173ffffffffffffffffffffffffffffffffffffffff021916908373ffffffffffffffffffffffffffffffffffffffff1602179055503373ffffffffffffffffffffffffffffffffffffffff168173ffffffffffffffffffffffffffffffffffffffff167f8be0079c531659141344cd1fd0a4f28419497f9722a3daafe3b4186f6b6457e060405160405180910390a350565b610b796119bb565b610b81611aef565b610b89611b7f565b565b6000600260009054906101000a900473ffffffffffffffffffffffffffffffffffffffff16905090565b610bbd610b8b565b73ffffffffffffffffffffffffffffffffffffffff163373ffffffffffffffffffffffffffffffffffffffff1614158015610c465750600460009054906101000a900473ffffffffffffffffffffffffffffffffffffffff1673ffffffffffffffffffffffffffffffffffffffff163373ffffffffffffffffffffffffffffffffffffffff1614155b15610cb55733610c54610b8b565b600460009054906101000a900473ffffffffffffffffffffffffffffffffffffffff166040517f061db9c1000000000000000000000000000000000000000000000000000000008152600401610cac939291906126ed565b60405180910390fd5b600073ffffffffffffffffffffffffffffffffffffffff168173ffffffffffffffffffffffffffffffffffffffff1603610d1b576040517fd92e233d00000000000000000000000000000000000000000000000000000000815260040160405180910390fd5b80600460006101000a81548173ffffffffffffffffffffffffffffffffffffffff021916908373ffffffffffffffffffffffffffffffffffffffff1602179055507fd1a6a14209a385a964d036e404cb5cfb71f4000cdb03c9366292430787261be681604051610d8b9190612040565b60405180910390a150565b610d9e6119bb565b600073ffffffffffffffffffffffffffffffffffffffff168173ffffffffffffffffffffffffffffffffffffffff1603610e0d576040517f08c379a0000000000000000000000000000000000000000000000000000000008152600401610e0490612796565b60405180910390fd5b80600660046101000a81548173ffffffffffffffffffffffffffffffffffffffff021916908373ffffffffffffffffffffffffffffffffffffffff1602179055508073ffffffffffffffffffffffffffffffffffffffff167f29acee77dafcfa0143d74a7ea236018f3a6e1fa71e27fc59bbfbc6b8ca8edccd60405160405180910390a250565b610e9c6119bb565b60008111610edf576040517f08c379a0000000000000000000000000000000000000000000000000000000008152600401610ed690612802565b60405180910390fd5b806008541015610f24576040517f08c379a0000000000000000000000000000000000000000000000000000000008152600401610f1b90612894565b60405180910390fd5b806009819055507f6802a03dd8e2f6a4dc2ab8cf753936dc2aeced88bcd60edfa3d49faba6bc1ade81604051610f5a9190611ef3565b60405180910390a150565b600460009054906101000a900473ffffffffffffffffffffffffffffffffffffffff1681565b60075481565b60085481565b610f9f6119bb565b60008367ffffffffffffffff1603610fec576040517f08c379a0000000000000000000000000000000000000000000000000000000008152600401610fe390612900565b60405180910390fd5b60008163ffffffff1611611035576040517f08c379a000000000000000000000000000000000000000000000000000000000815260040161102c90612992565b60405180910390fd5b82600460146101000a81548167ffffffffffffffff021916908367ffffffffffffffff1602179055508160058190555080600660006101000a81548163ffffffff021916908363ffffffff1602179055507fd2d827f84acfa4effc549b0036d39cccab74a335d1eb334cfdc3c7a57d44f217600460149054906101000a900467ffffffffffffffff16600554600660009054906101000a900463ffffffff166040516110e3939291906129df565b60405180910390a1505050565b6110f86119bb565b61271081111561113d576040517f08c379a000000000000000000000000000000000000000000000000000000000815260040161113490612a88565b60405180910390fd5b806007819055507f74516f05eb4bd2461d57aa1e935ee553f86a3e02bfed7759f2f772915de3d9be816040516111739190611ef3565b60405180910390a150565b60095481565b61118c6119bb565b600073ffffffffffffffffffffffffffffffffffffffff168273ffffffffffffffffffffffffffffffffffffffff16036111fb576040517f08c379a00000000000000000000000000000000000000000000000000000000081526004016111f290612af4565b60405180910390fd5b600082905060008173ffffffffffffffffffffffffffffffffffffffff1663a9059cbb611226610b8b565b856040518363ffffffff1660e01b8152600401611244929190612b14565b6020604051808303816000875af1158015611263573d6000803e3d6000fd5b505050506040513d601f19601f820116820180604052508101906112879190612b69565b9050806112c9576040517f08c379a00000000000000000000000000000000000000000000000000000000081526004016112c090612be2565b60405180910390fd5b50505050565b6112d76119bb565b6112df611b30565b600047905060008111611327576040517f08c379a000000000000000000000000000000000000000000000000000000000815260040161131e90612c4e565b60405180910390fd5b6000611331610b8b565b73ffffffffffffffffffffffffffffffffffffffff168260405161135490612c9f565b60006040518083038185875af1925050503d8060008114611391576040519150601f19603f3d011682016040523d82523d6000602084013e611396565b606091505b50509050806113da576040517f08c379a00000000000000000000000000000000000000000000000000000000081526004016113d190612d26565b60405180910390fd5b50506113e4611b76565b565b6113ee6119bb565b600954811015611433576040517f08c379a000000000000000000000000000000000000000000000000000000000815260040161142a90612db8565b60405180910390fd5b806008819055507f2842cf99332cf44653926376c4c0f5d0f91b749469ac9999bb1c6c9d728b1ba8816040516114699190611ef3565b60405180910390a150565b600660049054906101000a900473ffffffffffffffffffffffffffffffffffffffff1681565b6114a26119bb565b6114ab81611be1565b50565b6000600c60008581526020019081526020016000205490506000600b600083815260200190815260200160002090508060040160019054906101000a900460ff1661152e576040517f08c379a000000000000000000000000000000000000000000000000000000000815260040161152590612e24565b60405180910390fd5b8060040160029054906101000a900460ff1615611580576040517f08c379a000000000000000000000000000000000000000000000000000000000815260040161157790612e90565b60405180910390fd5b60008160040160016101000a81548160ff02191690831515021790555060006002858560008181106115b5576115b4612eb0565b5b905060200201356115c69190612f0e565b146115d25760016115d5565b60005b8160040160006101000a81548160ff021916908360018111156115fb576115fa611dc5565b5b021790555060008160010154905060006127106007548361161c9190612f3f565b6116269190612f81565b905080836002018190555060008360000160149054906101000a900460ff16600181111561165757611656611dc5565b5b8460040160009054906101000a900460ff16600181111561167b5761167a611dc5565b5b149050600081156117dd5760006002856116959190612f3f565b905083816116a39190612fb2565b915081866003018190555083826116ba9190612fe6565b4710156116fc576040517f08c379a00000000000000000000000000000000000000000000000000000000081526004016116f39061308c565b60405180910390fd5b60008211156117d75760008660000160009054906101000a900473ffffffffffffffffffffffffffffffffffffffff1673ffffffffffffffffffffffffffffffffffffffff168360405161174f90612c9f565b60006040518083038185875af1925050503d806000811461178c576040519150601f19603f3d011682016040523d82523d6000602084013e611791565b606091505b50509050806117d5576040517f08c379a00000000000000000000000000000000000000000000000000000000081526004016117cc906130f8565b60405180910390fd5b505b5061182b565b600085600301819055508247101561182a576040517f08c379a00000000000000000000000000000000000000000000000000000000081526004016118219061318a565b60405180910390fd5b5b6000831115611904576000600660049054906101000a900473ffffffffffffffffffffffffffffffffffffffff1673ffffffffffffffffffffffffffffffffffffffff168460405161187c90612c9f565b60006040518083038185875af1925050503d80600081146118b9576040519150601f19603f3d011682016040523d82523d6000602084013e6118be565b606091505b5050905080611902576040517f08c379a00000000000000000000000000000000000000000000000000000000081526004016118f9906131f6565b60405180910390fd5b505b60018560040160026101000a81548160ff021916908315150217905550888560000160009054906101000a900473ffffffffffffffffffffffffffffffffffffffff1673ffffffffffffffffffffffffffffffffffffffff16877fb9b0d56d8b79fead8cfe0b73d900409c9b889face7f95238017408f22d1d2c978860040160009054906101000a900460ff16896003015488886040516119a89493929190613216565b60405180910390a4505050505050505050565b600260009054906101000a900473ffffffffffffffffffffffffffffffffffffffff1673ffffffffffffffffffffffffffffffffffffffff163373ffffffffffffffffffffffffffffffffffffffff1614611a4b576040517f08c379a0000000000000000000000000000000000000000000000000000000008152600401611a42906132a7565b60405180910390fd5b565b611a556106b5565b611a8b576040517f8dfc202b00000000000000000000000000000000000000000000000000000000815260040160405180910390fd5b565b611a95611a4d565b60008060006101000a81548160ff0219169083151502179055507f5db9ee0a495bf2e6ff9c91a7834c1ba4fdd244a5e8aa4e537bd38aeae4b073aa611ad8611d0f565b604051611ae59190612040565b60405180910390a1565b611af76106b5565b15611b2e576040517fd93c066500000000000000000000000000000000000000000000000000000000815260040160405180910390fd5b565b600260015403611b6c576040517f3ee5aeb500000000000000000000000000000000000000000000000000000000815260040160405180910390fd5b6002600181905550565b60018081905550565b611b87611aef565b60016000806101000a81548160ff0219169083151502179055507f62e78cea01bee320cd4e420270b5ea74000d11b0c9f74754ebdbfc544b05a258611bca611d0f565b604051611bd79190612040565b60405180910390a1565b3373ffffffffffffffffffffffffffffffffffffffff168173ffffffffffffffffffffffffffffffffffffffff1603611c4f576040517f08c379a0000000000000000000000000000000000000000000000000000000008152600401611c4690613313565b60405180910390fd5b80600360006101000a81548173ffffffffffffffffffffffffffffffffffffffff021916908373ffffffffffffffffffffffffffffffffffffffff1602179055508073ffffffffffffffffffffffffffffffffffffffff16600260009054906101000a900473ffffffffffffffffffffffffffffffffffffffff1673ffffffffffffffffffffffffffffffffffffffff167fed8889f560326eb138920d842192f0eb3dd22b4f139c87a2c57538e05bae127860405160405180910390a350565b600033905090565b600080fd5b600080fd5b6000819050919050565b611d3481611d21565b8114611d3f57600080fd5b50565b600081359050611d5181611d2b565b92915050565b600060208284031215611d6d57611d6c611d17565b5b6000611d7b84828501611d42565b91505092915050565b600073ffffffffffffffffffffffffffffffffffffffff82169050919050565b6000611daf82611d84565b9050919050565b611dbf81611da4565b82525050565b7f4e487b7100000000000000000000000000000000000000000000000000000000600052602160045260246000fd5b60028110611e0557611e04611dc5565b5b50565b6000819050611e1682611df4565b919050565b6000611e2682611e08565b9050919050565b611e3681611e1b565b82525050565b611e4581611d21565b82525050565b60008115159050919050565b611e6081611e4b565b82525050565b600061012082019050611e7c600083018c611db6565b611e89602083018b611e2d565b611e96604083018a611e3c565b611ea36060830189611e3c565b611eb06080830188611e3c565b611ebd60a0830187611e2d565b611eca60c0830186611e57565b611ed760e0830185611e57565b611ee5610100830184611e3c565b9a9950505050505050505050565b6000602082019050611f086000830184611e3c565b92915050565b600080fd5b600080fd5b600080fd5b60008083601f840112611f3357611f32611f0e565b5b8235905067ffffffffffffffff811115611f5057611f4f611f13565b5b602083019150836020820283011115611f6c57611f6b611f18565b5b9250929050565b600080600060408486031215611f8c57611f8b611d17565b5b6000611f9a86828701611d42565b935050602084013567ffffffffffffffff811115611fbb57611fba611d1c565b5b611fc786828701611f1d565b92509250509250925092565b6000602082019050611fe86000830184611e57565b92915050565b60028110611ffb57600080fd5b50565b60008135905061200d81611fee565b92915050565b60006020828403121561202957612028611d17565b5b600061203784828501611ffe565b91505092915050565b60006020820190506120556000830184611db6565b92915050565b61206481611da4565b811461206f57600080fd5b50565b6000813590506120818161205b565b92915050565b60006020828403121561209d5761209c611d17565b5b60006120ab84828501612072565b91505092915050565b60006120bf82611d84565b9050919050565b6120cf816120b4565b81146120da57600080fd5b50565b6000813590506120ec816120c6565b92915050565b60006020828403121561210857612107611d17565b5b6000612116848285016120dd565b91505092915050565b6000819050919050565b600061214461213f61213a84611d84565b61211f565b611d84565b9050919050565b600061215682612129565b9050919050565b60006121688261214b565b9050919050565b6121788161215d565b82525050565b6000602082019050612193600083018461216f565b92915050565b600067ffffffffffffffff82169050919050565b6121b681612199565b81146121c157600080fd5b50565b6000813590506121d3816121ad565b92915050565b6000819050919050565b6121ec816121d9565b81146121f757600080fd5b50565b600081359050612209816121e3565b92915050565b600063ffffffff82169050919050565b6122288161220f565b811461223357600080fd5b50565b6000813590506122458161221f565b92915050565b60008060006060848603121561226457612263611d17565b5b6000612272868287016121c4565b9350506020612283868287016121fa565b925050604061229486828701612236565b9150509250925092565b600080604083850312156122b5576122b4611d17565b5b60006122c385828601612072565b92505060206122d485828601611d42565b9150509250929050565b6122e7816120b4565b82525050565b600060208201905061230260008301846122de565b92915050565b600060408201905061231d6000830185611db6565b61232a6020830184611db6565b9392505050565b600082825260208201905092915050565b7f57616765722069732062656c6f77206d696e696d756d206c696d697400000000600082015250565b6000612378601c83612331565b915061238382612342565b602082019050919050565b600060208201905081810360008301526123a78161236b565b9050919050565b7f57616765722069732061626f7665206d6178696d756d206c696d697400000000600082015250565b60006123e4601c83612331565b91506123ef826123ae565b602082019050919050565b60006020820190508181036000830152612413816123d7565b9050919050565b7f4e487b7100000000000000000000000000000000000000000000000000000000600052601160045260246000fd5b600061245482611d21565b91507fffffffffffffffffffffffffffffffffffffffffffffffffffffffffffffffff82036124865761248561241a565b5b600182019050919050565b61249a816121d9565b82525050565b6124a981611d21565b82525050565b600061ffff82169050919050565b6124c6816124af565b82525050565b6124d58161220f565b82525050565b600081519050919050565b600082825260208201905092915050565b60005b838110156125155780820151818401526020810190506124fa565b60008484015250505050565b6000601f19601f8301169050919050565b600061253d826124db565b61254781856124e6565b93506125578185602086016124f7565b61256081612521565b840191505092915050565b600060c0830160008301516125836000860182612491565b50602083015161259660208601826124a0565b5060408301516125a960408601826124bd565b5060608301516125bc60608601826124cc565b5060808301516125cf60808601826124cc565b5060a083015184820360a08601526125e78282612532565b9150508091505092915050565b6000602082019050818103600083015261260e818461256b565b905092915050565b60008151905061262581611d2b565b92915050565b60006020828403121561264157612640611d17565b5b600061264f84828501612616565b91505092915050565b600060408201905061266d6000830185611e2d565b61267a6020830184611e3c565b9392505050565b7f4d7573742062652070726f706f736564206f776e657200000000000000000000600082015250565b60006126b7601683612331565b91506126c282612681565b602082019050919050565b600060208201905081810360008301526126e6816126aa565b9050919050565b60006060820190506127026000830186611db6565b61270f6020830185611db6565b61271c6040830184611db6565b949350505050565b7f4e6577206665652077616c6c65742063616e6e6f74206265207a65726f20616460008201527f6472657373000000000000000000000000000000000000000000000000000000602082015250565b6000612780602583612331565b915061278b82612724565b604082019050919050565b600060208201905081810360008301526127af81612773565b9050919050565b7f4d696e207761676572206d7573742062652067726561746572207468616e2030600082015250565b60006127ec602083612331565b91506127f7826127b6565b602082019050919050565b6000602082019050818103600083015261281b816127df565b9050919050565b7f4d6178207761676572206d7573742062652067726561746572207468616e206f60008201527f7220657175616c20746f206e6577206d696e2077616765720000000000000000602082015250565b600061287e603883612331565b915061288982612822565b604082019050919050565b600060208201905081810360008301526128ad81612871565b9050919050565b7f537562736372697074696f6e2049442063616e6e6f74206265207a65726f0000600082015250565b60006128ea601e83612331565b91506128f5826128b4565b602082019050919050565b60006020820190508181036000830152612919816128dd565b9050919050565b7f43616c6c6261636b20676173206c696d6974206d75737420626520677265617460008201527f6572207468616e20300000000000000000000000000000000000000000000000602082015250565b600061297c602983612331565b915061298782612920565b604082019050919050565b600060208201905081810360008301526129ab8161296f565b9050919050565b6129bb81612199565b82525050565b6129ca816121d9565b82525050565b6129d98161220f565b82525050565b60006060820190506129f460008301866129b2565b612a0160208301856129c1565b612a0e60408301846129d0565b949350505050565b7f4665652070657263656e746167652063616e6e6f74206578636565642031303060008201527f303020626173697320706f696e74732028313030252900000000000000000000602082015250565b6000612a72603683612331565b9150612a7d82612a16565b604082019050919050565b60006020820190508181036000830152612aa181612a65565b9050919050565b7f546f6b656e20616464726573732063616e6e6f74206265207a65726f00000000600082015250565b6000612ade601c83612331565b9150612ae982612aa8565b602082019050919050565b60006020820190508181036000830152612b0d81612ad1565b9050919050565b6000604082019050612b296000830185611db6565b612b366020830184611e3c565b9392505050565b612b4681611e4b565b8114612b5157600080fd5b50565b600081519050612b6381612b3d565b92915050565b600060208284031215612b7f57612b7e611d17565b5b6000612b8d84828501612b54565b91505092915050565b7f455243323020746f6b656e207769746864726177616c206661696c6564000000600082015250565b6000612bcc601d83612331565b9150612bd782612b96565b602082019050919050565b60006020820190508181036000830152612bfb81612bbf565b9050919050565b7f4e6f2062616c616e636520746f20776974686472617700000000000000000000600082015250565b6000612c38601683612331565b9150612c4382612c02565b602082019050919050565b60006020820190508181036000830152612c6781612c2b565b9050919050565b600081905092915050565b50565b6000612c89600083612c6e565b9150612c9482612c79565b600082019050919050565b6000612caa82612c7c565b9150819050919050565b7f436f6e7472616374204554482062616c616e6365207769746864726177616c2060008201527f6661696c65640000000000000000000000000000000000000000000000000000602082015250565b6000612d10602683612331565b9150612d1b82612cb4565b604082019050919050565b60006020820190508181036000830152612d3f81612d03565b9050919050565b7f4d6178207761676572206d7573742062652067726561746572207468616e206f60008201527f7220657175616c20746f206d696e207761676572000000000000000000000000602082015250565b6000612da2603483612331565b9150612dad82612d46565b604082019050919050565b60006020820190508181036000830152612dd181612d95565b9050919050565b7f47616d65206e6f7420696e207265717565737465642073746174650000000000600082015250565b6000612e0e601b83612331565b9150612e1982612dd8565b602082019050919050565b60006020820190508181036000830152612e3d81612e01565b9050919050565b7f47616d6520616c726561647920736574746c6564000000000000000000000000600082015250565b6000612e7a601483612331565b9150612e8582612e44565b602082019050919050565b60006020820190508181036000830152612ea981612e6d565b9050919050565b7f4e487b7100000000000000000000000000000000000000000000000000000000600052603260045260246000fd5b7f4e487b7100000000000000000000000000000000000000000000000000000000600052601260045260246000fd5b6000612f1982611d21565b9150612f2483611d21565b925082612f3457612f33612edf565b5b828206905092915050565b6000612f4a82611d21565b9150612f5583611d21565b9250828202612f6381611d21565b91508282048414831517612f7a57612f7961241a565b5b5092915050565b6000612f8c82611d21565b9150612f9783611d21565b925082612fa757612fa6612edf565b5b828204905092915050565b6000612fbd82611d21565b9150612fc883611d21565b9250828203905081811115612fe057612fdf61241a565b5b92915050565b6000612ff182611d21565b9150612ffc83611d21565b92508282019050808211156130145761301361241a565b5b92915050565b7f436f6e74726163742068617320696e73756666696369656e742062616c616e6360008201527f6520666f722077696e207061796f757420616e64206665650000000000000000602082015250565b6000613076603883612331565b91506130818261301a565b604082019050919050565b600060208201905081810360008301526130a581613069565b9050919050565b7f506c61796572207061796f7574207472616e73666572206661696c6564000000600082015250565b60006130e2601d83612331565b91506130ed826130ac565b602082019050919050565b60006020820190508181036000830152613111816130d5565b9050919050565b7f436f6e74726163742068617320696e73756666696369656e742062616c616e6360008201527f6520666f7220666565207472616e73666572206f6e206c6f7373000000000000602082015250565b6000613174603a83612331565b915061317f82613118565b604082019050919050565b600060208201905081810360008301526131a381613167565b9050919050565b7f466565207472616e7366657220746f2066656557616c6c6574206661696c6564600082015250565b60006131e0602083612331565b91506131eb826131aa565b602082019050919050565b6000602082019050818103600083015261320f816131d3565b9050919050565b600060808201905061322b6000830187611e2d565b6132386020830186611e3c565b6132456040830185611e3c565b6132526060830184611e57565b95945050505050565b7f4f6e6c792063616c6c61626c65206279206f776e657200000000000000000000600082015250565b6000613291601683612331565b915061329c8261325b565b602082019050919050565b600060208201905081810360008301526132c081613284565b9050919050565b7f43616e6e6f74207472616e7366657220746f2073656c66000000000000000000600082015250565b60006132fd601783612331565b9150613308826132c7565b602082019050919050565b6000602082019050818103600083015261332c816132f0565b905091905056fea26469706673582212200c732312d231a4a107cf002037f476ed16109e402352b770cf25db3a4ada361164736f6c634300081c0033",
  "linkReferences": {},
  "deployedLinkReferences": {}
}