{
  "_format": "hh-sol-artifact-1",
  "contractName": "FlipSkiBaseVRF",
  "sourceName": "contracts/FlipSkiBaseVRF.sol",
  "abi": [
    {
      "inputs": [
        {
          "internalType": "address payable",
          "name": "_initialFeeWallet",
          "type": "address"
        },
        {
          "internalType": "uint256",
          "name": "_initialFeePercentage",
          "type": "uint256"
        },
        {
          "internalType": "uint256",
          "name": "_initialMaxWager",
          "type": "uint256"
        },
        {
          "internalType": "uint256",
          "name": "_initialMinWager",
          "type": "uint256"
        },
        {
          "internalType": "address",
          "name": "_vrfCoordinator",
          "type": "address"
        },
        {
          "internalType": "uint256",
          "name": "_subscriptionId",
          "type": "uint256"
        },
        {
          "internalType": "bytes32",
          "name": "_keyHash",
          "type": "bytes32"
        }
      ],
      "stateMutability": "nonpayable",
      "type": "constructor"
    },
    {
      "inputs": [],
      "name": "EnforcedPause",
      "type": "error"
    },
    {
      "inputs": [],
      "name": "ExpectedPause",
      "type": "error"
    },
    {
      "inputs": [
        {
          "internalType": "address",
          "name": "have",
          "type": "address"
        },
        {
          "internalType": "address",
          "name": "want",
          "type": "address"
        }
      ],
      "name": "OnlyCoordinatorCanFulfill",
      "type": "error"
    },
    {
      "inputs": [
        {
          "internalType": "address",
          "name": "have",
          "type": "address"
        },
        {
          "internalType": "address",
          "name": "owner",
          "type": "address"
        },
        {
          "internalType": "address",
          "name": "coordinator",
          "type": "address"
        }
      ],
      "name": "OnlyOwnerOrCoordinator",
      "type": "error"
    },
    {
      "inputs": [],
      "name": "ReentrancyGuardReentrantCall",
      "type": "error"
    },
    {
      "inputs": [],
      "name": "ZeroAddress",
      "type": "error"
    },
    {
      "anonymous": false,
      "inputs": [
        {
          "indexed": false,
          "internalType": "address",
          "name": "vrfCoordinator",
          "type": "address"
        }
      ],
      "name": "CoordinatorSet",
      "type": "event"
    },
    {
      "anonymous": false,
      "inputs": [
        {
          "indexed": false,
          "internalType": "uint256",
          "name": "newFeePercentage",
          "type": "uint256"
        }
      ],
      "name": "FeePercentageUpdated",
      "type": "event"
    },
    {
      "anonymous": false,
      "inputs": [
        {
          "indexed": true,
          "internalType": "address",
          "name": "newFeeWallet",
          "type": "address"
        }
      ],
      "name": "FeeWalletUpdated",
      "type": "event"
    },
    {
      "anonymous": false,
      "inputs": [
        {
          "indexed": true,
          "internalType": "uint256",
          "name": "gameId",
          "type": "uint256"
        },
        {
          "indexed": true,
          "internalType": "address",
          "name": "player",
          "type": "address"
        },
        {
          "indexed": false,
          "internalType": "enum FlipSkiBaseVRF.CoinSide",
          "name": "choice",
          "type": "uint8"
        },
        {
          "indexed": false,
          "internalType": "uint256",
          "name": "wagerAmount",
          "type": "uint256"
        },
        {
          "indexed": true,
          "internalType": "uint256",
          "name": "vrfRequestId",
          "type": "uint256"
        }
      ],
      "name": "GameRequested",
      "type": "event"
    },
    {
      "anonymous": false,
      "inputs": [
        {
          "indexed": true,
          "internalType": "uint256",
          "name": "gameId",
          "type": "uint256"
        },
        {
          "indexed": true,
          "internalType": "address",
          "name": "player",
          "type": "address"
        },
        {
          "indexed": false,
          "internalType": "enum FlipSkiBaseVRF.CoinSide",
          "name": "result",
          "type": "uint8"
        },
        {
          "indexed": false,
          "internalType": "uint256",
          "name": "payoutAmount",
          "type": "uint256"
        },
        {
          "indexed": false,
          "internalType": "uint256",
          "name": "feeAmount",
          "type": "uint256"
        },
        {
          "indexed": true,
          "internalType": "uint256",
          "name": "vrfRequestId",
          "type": "uint256"
        },
        {
          "indexed": false,
          "internalType": "bool",
          "name": "playerWon",
          "type": "bool"
        }
      ],
      "name": "GameSettled",
      "type": "event"
    },
    {
      "anonymous": false,
      "inputs": [
        {
          "indexed": false,
          "internalType": "uint256",
          "name": "newMaxWager",
          "type": "uint256"
        }
      ],
      "name": "MaxWagerUpdated",
      "type": "event"
    },
    {
      "anonymous": false,
      "inputs": [
        {
          "indexed": false,
          "internalType": "uint256",
          "name": "newMinWager",
          "type": "uint256"
        }
      ],
      "name": "MinWagerUpdated",
      "type": "event"
    },
    {
      "anonymous": false,
      "inputs": [
        {
          "indexed": true,
          "internalType": "address",
          "name": "from",
          "type": "address"
        },
        {
          "indexed": true,
          "internalType": "address",
          "name": "to",
          "type": "address"
        }
      ],
      "name": "OwnershipTransferRequested",
      "type": "event"
    },
    {
      "anonymous": false,
      "inputs": [
        {
          "indexed": true,
          "internalType": "address",
          "name": "from",
          "type": "address"
        },
        {
          "indexed": true,
          "internalType": "address",
          "name": "to",
          "type": "address"
        }
      ],
      "name": "OwnershipTransferred",
      "type": "event"
    },
    {
      "anonymous": false,
      "inputs": [
        {
          "indexed": false,
          "internalType": "address",
          "name": "account",
          "type": "address"
        }
      ],
      "name": "Paused",
      "type": "event"
    },
    {
      "anonymous": false,
      "inputs": [
        {
          "indexed": false,
          "internalType": "address",
          "name": "account",
          "type": "address"
        }
      ],
      "name": "Unpaused",
      "type": "event"
    },
    {
      "anonymous": false,
      "inputs": [
        {
          "indexed": false,
          "internalType": "uint256",
          "name": "newSubscriptionId",
          "type": "uint256"
        },
        {
          "indexed": false,
          "internalType": "bytes32",
          "name": "newKeyHash",
          "type": "bytes32"
        },
        {
          "indexed": false,
          "internalType": "uint32",
          "name": "newCallbackGasLimit",
          "type": "uint32"
        }
      ],
      "name": "VRFParametersUpdated",
      "type": "event"
    },
    {
      "stateMutability": "payable",
      "type": "fallback"
    },
    {
      "inputs": [],
      "name": "acceptOwnership",
      "outputs": [],
      "stateMutability": "nonpayable",
      "type": "function"
    },
    {
      "inputs": [],
      "name": "feePercentage",
      "outputs": [
        {
          "internalType": "uint256",
          "name": "",
          "type": "uint256"
        }
      ],
      "stateMutability": "view",
      "type": "function"
    },
    {
      "inputs": [],
      "name": "feeWallet",
      "outputs": [
        {
          "internalType": "address payable",
          "name": "",
          "type": "address"
        }
      ],
      "stateMutability": "view",
      "type": "function"
    },
    {
      "inputs": [
        {
          "internalType": "enum FlipSkiBaseVRF.CoinSide",
          "name": "_choice",
          "type": "uint8"
        }
      ],
      "name": "flip",
      "outputs": [],
      "stateMutability": "payable",
      "type": "function"
    },
    {
      "inputs": [],
      "name": "gameIdCounter",
      "outputs": [
        {
          "internalType": "uint256",
          "name": "",
          "type": "uint256"
        }
      ],
      "stateMutability": "view",
      "type": "function"
    },
    {
      "inputs": [
        {
          "internalType": "uint256",
          "name": "",
          "type": "uint256"
        }
      ],
      "name": "games",
      "outputs": [
        {
          "internalType": "address",
          "name": "player",
          "type": "address"
        },
        {
          "internalType": "enum FlipSkiBaseVRF.CoinSide",
          "name": "choice",
          "type": "uint8"
        },
        {
          "internalType": "uint256",
          "name": "wagerAmount",
          "type": "uint256"
        },
        {
          "internalType": "uint256",
          "name": "feeAmount",
          "type": "uint256"
        },
        {
          "internalType": "uint256",
          "name": "payoutAmount",
          "type": "uint256"
        },
        {
          "internalType": "enum FlipSkiBaseVRF.CoinSide",
          "name": "result",
          "type": "uint8"
        },
        {
          "internalType": "bool",
          "name": "requested",
          "type": "bool"
        },
        {
          "internalType": "bool",
          "name": "settled",
          "type": "bool"
        },
        {
          "internalType": "uint256",
          "name": "vrfRequestId",
          "type": "uint256"
        }
      ],
      "stateMutability": "view",
      "type": "function"
    },
    {
      "inputs": [],
      "name": "maxWager",
      "outputs": [
        {
          "internalType": "uint256",
          "name": "",
          "type": "uint256"
        }
      ],
      "stateMutability": "view",
      "type": "function"
    },
    {
      "inputs": [],
      "name": "minWager",
      "outputs": [
        {
          "internalType": "uint256",
          "name": "",
          "type": "uint256"
        }
      ],
      "stateMutability": "view",
      "type": "function"
    },
    {
      "inputs": [],
      "name": "owner",
      "outputs": [
        {
          "internalType": "address",
          "name": "",
          "type": "address"
        }
      ],
      "stateMutability": "view",
      "type": "function"
    },
    {
      "inputs": [],
      "name": "pause",
      "outputs": [],
      "stateMutability": "nonpayable",
      "type": "function"
    },
    {
      "inputs": [],
      "name": "paused",
      "outputs": [
        {
          "internalType": "bool",
          "name": "",
          "type": "bool"
        }
      ],
      "stateMutability": "view",
      "type": "function"
    },
    {
      "inputs": [
        {
          "internalType": "uint256",
          "name": "requestId",
          "type": "uint256"
        },
        {
          "internalType": "uint256[]",
          "name": "randomWords",
          "type": "uint256[]"
        }
      ],
      "name": "rawFulfillRandomWords",
      "outputs": [],
      "stateMutability": "nonpayable",
      "type": "function"
    },
    {
      "inputs": [],
      "name": "s_vrfCoordinator",
      "outputs": [
        {
          "internalType": "contract IVRFCoordinatorV2Plus",
          "name": "",
          "type": "address"
        }
      ],
      "stateMutability": "view",
      "type": "function"
    },
    {
      "inputs": [
        {
          "internalType": "address",
          "name": "_vrfCoordinator",
          "type": "address"
        }
      ],
      "name": "setCoordinator",
      "outputs": [],
      "stateMutability": "nonpayable",
      "type": "function"
    },
    {
      "inputs": [
        {
          "internalType": "uint256",
          "name": "_newFeePercentage",
          "type": "uint256"
        }
      ],
      "name": "setFeePercentage",
      "outputs": [],
      "stateMutability": "nonpayable",
      "type": "function"
    },
    {
      "inputs": [
        {
          "internalType": "address payable",
          "name": "_newFeeWallet",
          "type": "address"
        }
      ],
      "name": "setFeeWallet",
      "outputs": [],
      "stateMutability": "nonpayable",
      "type": "function"
    },
    {
      "inputs": [
        {
          "internalType": "uint256",
          "name": "_newMaxWager",
          "type": "uint256"
        }
      ],
      "name": "setMaxWager",
      "outputs": [],
      "stateMutability": "nonpayable",
      "type": "function"
    },
    {
      "inputs": [
        {
          "internalType": "uint256",
          "name": "_newMinWager",
          "type": "uint256"
        }
      ],
      "name": "setMinWager",
      "outputs": [],
      "stateMutability": "nonpayable",
      "type": "function"
    },
    {
      "inputs": [
        {
          "internalType": "uint64",
          "name": "_newSubscriptionId",
          "type": "uint64"
        },
        {
          "internalType": "bytes32",
          "name": "_newKeyHash",
          "type": "bytes32"
        },
        {
          "internalType": "uint32",
          "name": "_newCallbackGasLimit",
          "type": "uint32"
        }
      ],
      "name": "setVRFParameters",
      "outputs": [],
      "stateMutability": "nonpayable",
      "type": "function"
    },
    {
      "inputs": [
        {
          "internalType": "address",
          "name": "to",
          "type": "address"
        }
      ],
      "name": "transferOwnership",
      "outputs": [],
      "stateMutability": "nonpayable",
      "type": "function"
    },
    {
      "inputs": [],
      "name": "unpause",
      "outputs": [],
      "stateMutability": "nonpayable",
      "type": "function"
    },
    {
      "inputs": [
        {
          "internalType": "uint256",
          "name": "",
          "type": "uint256"
        }
      ],
      "name": "vrfRequestToGameId",
      "outputs": [
        {
          "internalType": "uint256",
          "name": "",
          "type": "uint256"
        }
      ],
      "stateMutability": "view",
      "type": "function"
    },
    {
      "inputs": [],
      "name": "withdrawContractBalance",
      "outputs": [],
      "stateMutability": "nonpayable",
      "type": "function"
    },
    {
      "inputs": [
        {
          "internalType": "address",
          "name": "_tokenAddress",
          "type": "address"
        },
        {
          "internalType": "uint256",
          "name": "_amount",
          "type": "uint256"
        }
      ],
      "name": "withdrawStuckTokens",
      "outputs": [],
      "stateMutability": "nonpayable",
      "type": "function"
    },
    {
      "stateMutability": "payable",
      "type": "receive"
    }
  ],
  "bytecode": "0x60a0604052620493e0600760006101000a81548163ffffffff021916908363ffffffff1602179055503480156200003557600080fd5b5060405162003f2438038062003f2483398181016040528101906200005b919062000706565b823380600060018081905550600073ffffffffffffffffffffffffffffffffffffffff168273ffffffffffffffffffffffffffffffffffffffff1603620000d9576040517f08c379a0000000000000000000000000000000000000000000000000000000008152600401620000d0906200081a565b60405180910390fd5b81600260006101000a81548173ffffffffffffffffffffffffffffffffffffffff021916908373ffffffffffffffffffffffffffffffffffffffff160217905550600073ffffffffffffffffffffffffffffffffffffffff168173ffffffffffffffffffffffffffffffffffffffff161462000161576200016081620004b060201b60201c565b5b505050600073ffffffffffffffffffffffffffffffffffffffff168173ffffffffffffffffffffffffffffffffffffffff1603620001cb576040517fd92e233d00000000000000000000000000000000000000000000000000000000815260040160405180910390fd5b80600460006101000a81548173ffffffffffffffffffffffffffffffffffffffff021916908373ffffffffffffffffffffffffffffffffffffffff16021790555050600073ffffffffffffffffffffffffffffffffffffffff168773ffffffffffffffffffffffffffffffffffffffff16036200027f576040517f08c379a00000000000000000000000000000000000000000000000000000000081526004016200027690620008b2565b60405180910390fd5b612710861115620002c7576040517f08c379a0000000000000000000000000000000000000000000000000000000008152600401620002be906200094a565b60405180910390fd5b600084116200030d576040517f08c379a00000000000000000000000000000000000000000000000000000000081526004016200030490620009bc565b60405180910390fd5b8385101562000353576040517f08c379a00000000000000000000000000000000000000000000000000000000081526004016200034a9062000a54565b60405180910390fd5b600073ffffffffffffffffffffffffffffffffffffffff168373ffffffffffffffffffffffffffffffffffffffff1603620003c5576040517f08c379a0000000000000000000000000000000000000000000000000000000008152600401620003bc9062000aec565b60405180910390fd5b600082036200040b576040517f08c379a0000000000000000000000000000000000000000000000000000000008152600401620004029062000b5e565b60405180910390fd5b86600760046101000a81548173ffffffffffffffffffffffffffffffffffffffff021916908373ffffffffffffffffffffffffffffffffffffffff160217905550856008819055508460098190555083600a819055508273ffffffffffffffffffffffffffffffffffffffff1660808173ffffffffffffffffffffffffffffffffffffffff168152505081600581905550806006819055505050505050505062000bf2565b3373ffffffffffffffffffffffffffffffffffffffff168173ffffffffffffffffffffffffffffffffffffffff160362000521576040517f08c379a0000000000000000000000000000000000000000000000000000000008152600401620005189062000bd0565b60405180910390fd5b80600360006101000a81548173ffffffffffffffffffffffffffffffffffffffff021916908373ffffffffffffffffffffffffffffffffffffffff1602179055508073ffffffffffffffffffffffffffffffffffffffff16600260009054906101000a900473ffffffffffffffffffffffffffffffffffffffff1673ffffffffffffffffffffffffffffffffffffffff167fed8889f560326eb138920d842192f0eb3dd22b4f139c87a2c57538e05bae127860405160405180910390a350565b600080fd5b600073ffffffffffffffffffffffffffffffffffffffff82169050919050565b60006200061382620005e6565b9050919050565b620006258162000606565b81146200063157600080fd5b50565b60008151905062000645816200061a565b92915050565b6000819050919050565b62000660816200064b565b81146200066c57600080fd5b50565b600081519050620006808162000655565b92915050565b60006200069382620005e6565b9050919050565b620006a58162000686565b8114620006b157600080fd5b50565b600081519050620006c5816200069a565b92915050565b6000819050919050565b620006e081620006cb565b8114620006ec57600080fd5b50565b6000815190506200070081620006d5565b92915050565b600080600080600080600060e0888a031215620007285762000727620005e1565b5b6000620007388a828b0162000634565b97505060206200074b8a828b016200066f565b96505060406200075e8a828b016200066f565b9550506060620007718a828b016200066f565b9450506080620007848a828b01620006b4565b93505060a0620007978a828b016200066f565b92505060c0620007aa8a828b01620006ef565b91505092959891949750929550565b600082825260208201905092915050565b7f43616e6e6f7420736574206f776e657220746f207a65726f0000000000000000600082015250565b600062000802601883620007b9565b91506200080f82620007ca565b602082019050919050565b600060208201905081810360008301526200083581620007f3565b9050919050565b7f4665652077616c6c65742063616e6e6f74206265207a65726f2061646472657360008201527f7300000000000000000000000000000000000000000000000000000000000000602082015250565b60006200089a602183620007b9565b9150620008a7826200083c565b604082019050919050565b60006020820190508181036000830152620008cd816200088b565b9050919050565b7f4665652070657263656e746167652063616e6e6f74206578636565642031303060008201527f303020626173697320706f696e74732028313030252900000000000000000000602082015250565b600062000932603683620007b9565b91506200093f82620008d4565b604082019050919050565b60006020820190508181036000830152620009658162000923565b9050919050565b7f4d696e207761676572206d7573742062652067726561746572207468616e2030600082015250565b6000620009a4602083620007b9565b9150620009b1826200096c565b602082019050919050565b60006020820190508181036000830152620009d78162000995565b9050919050565b7f4d6178207761676572206d7573742062652067726561746572207468616e206f60008201527f7220657175616c20746f206d696e207761676572000000000000000000000000602082015250565b600062000a3c603483620007b9565b915062000a4982620009de565b604082019050919050565b6000602082019050818103600083015262000a6f8162000a2d565b9050919050565b7f56524620436f6f7264696e61746f7220616464726573732063616e6e6f74206260008201527f65207a65726f0000000000000000000000000000000000000000000000000000602082015250565b600062000ad4602683620007b9565b915062000ae18262000a76565b604082019050919050565b6000602082019050818103600083015262000b078162000ac5565b9050919050565b7f537562736372697074696f6e2049442063616e6e6f74206265207a65726f0000600082015250565b600062000b46601e83620007b9565b915062000b538262000b0e565b602082019050919050565b6000602082019050818103600083015262000b798162000b37565b9050919050565b7f43616e6e6f74207472616e7366657220746f2073656c66000000000000000000600082015250565b600062000bb8601783620007b9565b915062000bc58262000b80565b602082019050919050565b6000602082019050818103600083015262000beb8162000ba9565b9050919050565b60805161331662000c0e60003960006108a301526133166000f3fe60806040526004361061014f5760003560e01c80639ae980a8116100b6578063bb9c3f2b1161006f578063bb9c3f2b14610433578063bd61f0a61461045e578063bfab3db914610487578063d15b48b91461049e578063f25f4b56146104c7578063f2fde38b146104f257610156565b80639ae980a8146103375780639eccacf614610360578063a001ecdd1461038b578063a52ef3fa146103b6578063a792da6b146103e1578063ae06c1b71461040a57610156565b8063638c063711610108578063638c06371461027057806379ba50971461028c5780638456cb59146102a35780638da5cb5b146102ba5780638ea98117146102e557806390d49b9d1461030e57610156565b8063117a5b90146101585780631bb412d61461019d5780631fe543e3146101c85780633f4ba83a146101f157806344e493fa146102085780635c975abb1461024557610156565b3661015657005b005b34801561016457600080fd5b5061017f600480360381019061017a9190611d13565b61051b565b60405161019499989796959493929190611e22565b60405180910390f35b3480156101a957600080fd5b506101b26105bd565b6040516101bf9190611eaf565b60405180910390f35b3480156101d457600080fd5b506101ef60048036038101906101ea9190611f2f565b6105c3565b005b3480156101fd57600080fd5b50610206610689565b005b34801561021457600080fd5b5061022f600480360381019061022a9190611d13565b6106a3565b60405161023c9190611eaf565b60405180910390f35b34801561025157600080fd5b5061025a6106bb565b6040516102679190611f8f565b60405180910390f35b61028a60048036038101906102859190611fcf565b6106d1565b005b34801561029857600080fd5b506102a16109c2565b005b3480156102af57600080fd5b506102b8610b59565b005b3480156102c657600080fd5b506102cf610b73565b6040516102dc9190611ffc565b60405180910390f35b3480156102f157600080fd5b5061030c60048036038101906103079190612043565b610b9d565b005b34801561031a57600080fd5b50610335600480360381019061033091906120ae565b610d7e565b005b34801561034357600080fd5b5061035e60048036038101906103599190611d13565b610e7c565b005b34801561036c57600080fd5b50610375610f4d565b604051610382919061213a565b60405180910390f35b34801561039757600080fd5b506103a0610f73565b6040516103ad9190611eaf565b60405180910390f35b3480156103c257600080fd5b506103cb610f79565b6040516103d89190611eaf565b60405180910390f35b3480156103ed57600080fd5b5061040860048036038101906104039190612207565b610f7f565b005b34801561041657600080fd5b50610431600480360381019061042c9190611d13565b6110ac565b005b34801561043f57600080fd5b5061044861113a565b6040516104559190611eaf565b60405180910390f35b34801561046a57600080fd5b506104856004803603810190610480919061225a565b611140565b005b34801561049357600080fd5b5061049c61128b565b005b3480156104aa57600080fd5b506104c560048036038101906104c09190611d13565b6113a2565b005b3480156104d357600080fd5b506104dc611430565b6040516104e991906122a9565b60405180910390f35b3480156104fe57600080fd5b5061051960048036038101906105149190612043565b611456565b005b600c6020528060005260406000206000915090508060000160009054906101000a900473ffffffffffffffffffffffffffffffffffffffff16908060000160149054906101000a900460ff16908060010154908060020154908060030154908060040160009054906101000a900460ff16908060040160019054906101000a900460ff16908060040160029054906101000a900460ff16908060050154905089565b600b5481565b600460009054906101000a900473ffffffffffffffffffffffffffffffffffffffff1673ffffffffffffffffffffffffffffffffffffffff163373ffffffffffffffffffffffffffffffffffffffff16146106795733600460009054906101000a900473ffffffffffffffffffffffffffffffffffffffff166040517f1cf993f40000000000000000000000000000000000000000000000000000000081526004016106709291906122c4565b60405180910390fd5b61068483838361146a565b505050565b610691611977565b610699611a09565b6106a1611a49565b565b600d6020528060005260406000206000915090505481565b60008060009054906101000a900460ff16905090565b6106d9611aab565b6106e1611aec565b600a54341015610726576040517f08c379a000000000000000000000000000000000000000000000000000000000815260040161071d9061234a565b60405180910390fd5b60095434111561076b576040517f08c379a0000000000000000000000000000000000000000000000000000000008152600401610762906123b6565b60405180910390fd5b60003490506000600b600081548092919061078590612405565b9190505590506000600c60008381526020019081526020016000209050338160000160006101000a81548173ffffffffffffffffffffffffffffffffffffffff021916908373ffffffffffffffffffffffffffffffffffffffff160217905550838160000160146101000a81548160ff0219169083600181111561080c5761080b611d81565b5b021790555082816001018190555060018160040160016101000a81548160ff02191690831515021790555060006040518060c0016040528060065481526020016005548152602001600361ffff168152602001600760009054906101000a900463ffffffff1663ffffffff168152602001600163ffffffff16815260200160405180602001604052806000815250815250905060007f000000000000000000000000000000000000000000000000000000000000000073ffffffffffffffffffffffffffffffffffffffff16639b1c385e836040518263ffffffff1660e01b81526004016108fa91906125b0565b6020604051808303816000875af1158015610919573d6000803e3d6000fd5b505050506040513d601f19601f8201168201806040525081019061093d91906125e7565b905080836005018190555083600d600083815260200190815260200160002081905550803373ffffffffffffffffffffffffffffffffffffffff16857ff997d823f48f374dcf320abcfb4c14d035a288d7cc3e31d98a18d02b41bc56f789896040516109aa929190612614565b60405180910390a450505050506109bf611b32565b50565b600360009054906101000a900473ffffffffffffffffffffffffffffffffffffffff1673ffffffffffffffffffffffffffffffffffffffff163373ffffffffffffffffffffffffffffffffffffffff1614610a52576040517f08c379a0000000000000000000000000000000000000000000000000000000008152600401610a4990612689565b60405180910390fd5b6000600260009054906101000a900473ffffffffffffffffffffffffffffffffffffffff16905033600260006101000a81548173ffffffffffffffffffffffffffffffffffffffff021916908373ffffffffffffffffffffffffffffffffffffffff1602179055506000600360006101000a81548173ffffffffffffffffffffffffffffffffffffffff021916908373ffffffffffffffffffffffffffffffffffffffff1602179055503373ffffffffffffffffffffffffffffffffffffffff168173ffffffffffffffffffffffffffffffffffffffff167f8be0079c531659141344cd1fd0a4f28419497f9722a3daafe3b4186f6b6457e060405160405180910390a350565b610b61611977565b610b69611aab565b610b71611b3b565b565b6000600260009054906101000a900473ffffffffffffffffffffffffffffffffffffffff16905090565b610ba5610b73565b73ffffffffffffffffffffffffffffffffffffffff163373ffffffffffffffffffffffffffffffffffffffff1614158015610c2e5750600460009054906101000a900473ffffffffffffffffffffffffffffffffffffffff1673ffffffffffffffffffffffffffffffffffffffff163373ffffffffffffffffffffffffffffffffffffffff1614155b15610c9d5733610c3c610b73565b600460009054906101000a900473ffffffffffffffffffffffffffffffffffffffff166040517f061db9c1000000000000000000000000000000000000000000000000000000008152600401610c94939291906126a9565b60405180910390fd5b600073ffffffffffffffffffffffffffffffffffffffff168173ffffffffffffffffffffffffffffffffffffffff1603610d03576040517fd92e233d00000000000000000000000000000000000000000000000000000000815260040160405180910390fd5b80600460006101000a81548173ffffffffffffffffffffffffffffffffffffffff021916908373ffffffffffffffffffffffffffffffffffffffff1602179055507fd1a6a14209a385a964d036e404cb5cfb71f4000cdb03c9366292430787261be681604051610d739190611ffc565b60405180910390a150565b610d86611977565b600073ffffffffffffffffffffffffffffffffffffffff168173ffffffffffffffffffffffffffffffffffffffff1603610df5576040517f08c379a0000000000000000000000000000000000000000000000000000000008152600401610dec90612752565b60405180910390fd5b80600760046101000a81548173ffffffffffffffffffffffffffffffffffffffff021916908373ffffffffffffffffffffffffffffffffffffffff1602179055508073ffffffffffffffffffffffffffffffffffffffff167f29acee77dafcfa0143d74a7ea236018f3a6e1fa71e27fc59bbfbc6b8ca8edccd60405160405180910390a250565b610e84611977565b60008111610ec7576040517f08c379a0000000000000000000000000000000000000000000000000000000008152600401610ebe906127be565b60405180910390fd5b806009541015610f0c576040517f08c379a0000000000000000000000000000000000000000000000000000000008152600401610f0390612850565b60405180910390fd5b80600a819055507f6802a03dd8e2f6a4dc2ab8cf753936dc2aeced88bcd60edfa3d49faba6bc1ade81604051610f429190611eaf565b60405180910390a150565b600460009054906101000a900473ffffffffffffffffffffffffffffffffffffffff1681565b60085481565b60095481565b610f87611977565b60008367ffffffffffffffff1603610fd4576040517f08c379a0000000000000000000000000000000000000000000000000000000008152600401610fcb906128bc565b60405180910390fd5b60008163ffffffff161161101d576040517f08c379a00000000000000000000000000000000000000000000000000000000081526004016110149061294e565b60405180910390fd5b8267ffffffffffffffff166005819055508160068190555080600760006101000a81548163ffffffff021916908363ffffffff1602179055507fb7217e99784358ecd33b535f3d43fb8f45c1f26724cba648d2843b3be82b5bb6600554600654600760009054906101000a900463ffffffff1660405161109f9392919061298c565b60405180910390a1505050565b6110b4611977565b6127108111156110f9576040517f08c379a00000000000000000000000000000000000000000000000000000000081526004016110f090612a35565b60405180910390fd5b806008819055507f74516f05eb4bd2461d57aa1e935ee553f86a3e02bfed7759f2f772915de3d9be8160405161112f9190611eaf565b60405180910390a150565b600a5481565b611148611977565b600073ffffffffffffffffffffffffffffffffffffffff168273ffffffffffffffffffffffffffffffffffffffff16036111b7576040517f08c379a00000000000000000000000000000000000000000000000000000000081526004016111ae90612aa1565b60405180910390fd5b600082905060008173ffffffffffffffffffffffffffffffffffffffff1663a9059cbb6111e2610b73565b856040518363ffffffff1660e01b8152600401611200929190612ac1565b6020604051808303816000875af115801561121f573d6000803e3d6000fd5b505050506040513d601f19601f820116820180604052508101906112439190612b16565b905080611285576040517f08c379a000000000000000000000000000000000000000000000000000000000815260040161127c90612b8f565b60405180910390fd5b50505050565b611293611977565b61129b611aec565b6000479050600081116112e3576040517f08c379a00000000000000000000000000000000000000000000000000000000081526004016112da90612bfb565b60405180910390fd5b60006112ed610b73565b73ffffffffffffffffffffffffffffffffffffffff168260405161131090612c4c565b60006040518083038185875af1925050503d806000811461134d576040519150601f19603f3d011682016040523d82523d6000602084013e611352565b606091505b5050905080611396576040517f08c379a000000000000000000000000000000000000000000000000000000000815260040161138d90612cd3565b60405180910390fd5b50506113a0611b32565b565b6113aa611977565b600a548110156113ef576040517f08c379a00000000000000000000000000000000000000000000000000000000081526004016113e690612d65565b60405180910390fd5b806009819055507f2842cf99332cf44653926376c4c0f5d0f91b749469ac9999bb1c6c9d728b1ba8816040516114259190611eaf565b60405180910390a150565b600760049054906101000a900473ffffffffffffffffffffffffffffffffffffffff1681565b61145e611977565b61146781611b9d565b50565b6000600d60008581526020019081526020016000205490506000600c600083815260200190815260200160002090508060040160019054906101000a900460ff166114ea576040517f08c379a00000000000000000000000000000000000000000000000000000000081526004016114e190612dd1565b60405180910390fd5b8060040160029054906101000a900460ff161561153c576040517f08c379a000000000000000000000000000000000000000000000000000000000815260040161153390612e3d565b60405180910390fd5b60008160040160016101000a81548160ff021916908315150217905550600060028585600081811061157157611570612e5d565b5b905060200201356115829190612ebb565b1461158e576001611591565b60005b8160040160006101000a81548160ff021916908360018111156115b7576115b6611d81565b5b02179055506000816001015490506000612710600854836115d89190612eec565b6115e29190612f2e565b905080836002018190555060008360000160149054906101000a900460ff16600181111561161357611612611d81565b5b8460040160009054906101000a900460ff16600181111561163757611636611d81565b5b149050600081156117995760006002856116519190612eec565b9050838161165f9190612f5f565b915081866003018190555083826116769190612f93565b4710156116b8576040517f08c379a00000000000000000000000000000000000000000000000000000000081526004016116af90613039565b60405180910390fd5b60008211156117935760008660000160009054906101000a900473ffffffffffffffffffffffffffffffffffffffff1673ffffffffffffffffffffffffffffffffffffffff168360405161170b90612c4c565b60006040518083038185875af1925050503d8060008114611748576040519150601f19603f3d011682016040523d82523d6000602084013e61174d565b606091505b5050905080611791576040517f08c379a0000000000000000000000000000000000000000000000000000000008152600401611788906130a5565b60405180910390fd5b505b506117e7565b60008560030181905550824710156117e6576040517f08c379a00000000000000000000000000000000000000000000000000000000081526004016117dd90613137565b60405180910390fd5b5b60008311156118c0576000600760049054906101000a900473ffffffffffffffffffffffffffffffffffffffff1673ffffffffffffffffffffffffffffffffffffffff168460405161183890612c4c565b60006040518083038185875af1925050503d8060008114611875576040519150601f19603f3d011682016040523d82523d6000602084013e61187a565b606091505b50509050806118be576040517f08c379a00000000000000000000000000000000000000000000000000000000081526004016118b5906131a3565b60405180910390fd5b505b60018560040160026101000a81548160ff021916908315150217905550888560000160009054906101000a900473ffffffffffffffffffffffffffffffffffffffff1673ffffffffffffffffffffffffffffffffffffffff16877fb9b0d56d8b79fead8cfe0b73d900409c9b889face7f95238017408f22d1d2c978860040160009054906101000a900460ff168960030154888860405161196494939291906131c3565b60405180910390a4505050505050505050565b600260009054906101000a900473ffffffffffffffffffffffffffffffffffffffff1673ffffffffffffffffffffffffffffffffffffffff163373ffffffffffffffffffffffffffffffffffffffff1614611a07576040517f08c379a00000000000000000000000000000000000000000000000000000000081526004016119fe90613254565b60405180910390fd5b565b611a116106bb565b611a47576040517f8dfc202b00000000000000000000000000000000000000000000000000000000815260040160405180910390fd5b565b611a51611a09565b60008060006101000a81548160ff0219169083151502179055507f5db9ee0a495bf2e6ff9c91a7834c1ba4fdd244a5e8aa4e537bd38aeae4b073aa611a94611ccb565b604051611aa19190611ffc565b60405180910390a1565b611ab36106bb565b15611aea576040517fd93c066500000000000000000000000000000000000000000000000000000000815260040160405180910390fd5b565b600260015403611b28576040517f3ee5aeb500000000000000000000000000000000000000000000000000000000815260040160405180910390fd5b6002600181905550565b60018081905550565b611b43611aab565b60016000806101000a81548160ff0219169083151502179055507f62e78cea01bee320cd4e420270b5ea74000d11b0c9f74754ebdbfc544b05a258611b86611ccb565b604051611b939190611ffc565b60405180910390a1565b3373ffffffffffffffffffffffffffffffffffffffff168173ffffffffffffffffffffffffffffffffffffffff1603611c0b576040517f08c379a0000000000000000000000000000000000000000000000000000000008152600401611c02906132c0565b60405180910390fd5b80600360006101000a81548173ffffffffffffffffffffffffffffffffffffffff021916908373ffffffffffffffffffffffffffffffffffffffff1602179055508073ffffffffffffffffffffffffffffffffffffffff16600260009054906101000a900473ffffffffffffffffffffffffffffffffffffffff1673ffffffffffffffffffffffffffffffffffffffff167fed8889f560326eb138920d842192f0eb3dd22b4f139c87a2c57538e05bae127860405160405180910390a350565b600033905090565b600080fd5b600080fd5b6000819050919050565b611cf081611cdd565b8114611cfb57600080fd5b50565b600081359050611d0d81611ce7565b92915050565b600060208284031215611d2957611d28611cd3565b5b6000611d3784828501611cfe565b91505092915050565b600073ffffffffffffffffffffffffffffffffffffffff82169050919050565b6000611d6b82611d40565b9050919050565b611d7b81611d60565b82525050565b7f4e487b7100000000000000000000000000000000000000000000000000000000600052602160045260246000fd5b60028110611dc157611dc0611d81565b5b50565b6000819050611dd282611db0565b919050565b6000611de282611dc4565b9050919050565b611df281611dd7565b82525050565b611e0181611cdd565b82525050565b60008115159050919050565b611e1c81611e07565b82525050565b600061012082019050611e38600083018c611d72565b611e45602083018b611de9565b611e52604083018a611df8565b611e5f6060830189611df8565b611e6c6080830188611df8565b611e7960a0830187611de9565b611e8660c0830186611e13565b611e9360e0830185611e13565b611ea1610100830184611df8565b9a9950505050505050505050565b6000602082019050611ec46000830184611df8565b92915050565b600080fd5b600080fd5b600080fd5b60008083601f840112611eef57611eee611eca565b5b8235905067ffffffffffffffff811115611f0c57611f0b611ecf565b5b602083019150836020820283011115611f2857611f27611ed4565b5b9250929050565b600080600060408486031215611f4857611f47611cd3565b5b6000611f5686828701611cfe565b935050602084013567ffffffffffffffff811115611f7757611f76611cd8565b5b611f8386828701611ed9565b92509250509250925092565b6000602082019050611fa46000830184611e13565b92915050565b60028110611fb757600080fd5b50565b600081359050611fc981611faa565b92915050565b600060208284031215611fe557611fe4611cd3565b5b6000611ff384828501611fba565b91505092915050565b60006020820190506120116000830184611d72565b92915050565b61202081611d60565b811461202b57600080fd5b50565b60008135905061203d81612017565b92915050565b60006020828403121561205957612058611cd3565b5b60006120678482850161202e565b91505092915050565b600061207b82611d40565b9050919050565b61208b81612070565b811461209657600080fd5b50565b6000813590506120a881612082565b92915050565b6000602082840312156120c4576120c3611cd3565b5b60006120d284828501612099565b91505092915050565b6000819050919050565b60006121006120fb6120f684611d40565b6120db565b611d40565b9050919050565b6000612112826120e5565b9050919050565b600061212482612107565b9050919050565b61213481612119565b82525050565b600060208201905061214f600083018461212b565b92915050565b600067ffffffffffffffff82169050919050565b61217281612155565b811461217d57600080fd5b50565b60008135905061218f81612169565b92915050565b6000819050919050565b6121a881612195565b81146121b357600080fd5b50565b6000813590506121c58161219f565b92915050565b600063ffffffff82169050919050565b6121e4816121cb565b81146121ef57600080fd5b50565b600081359050612201816121db565b92915050565b6000806000606084860312156122205761221f611cd3565b5b600061222e86828701612180565b935050602061223f868287016121b6565b9250506040612250868287016121f2565b9150509250925092565b6000806040838503121561227157612270611cd3565b5b600061227f8582860161202e565b925050602061229085828601611cfe565b9150509250929050565b6122a381612070565b82525050565b60006020820190506122be600083018461229a565b92915050565b60006040820190506122d96000830185611d72565b6122e66020830184611d72565b9392505050565b600082825260208201905092915050565b7f57616765722069732062656c6f77206d696e696d756d206c696d697400000000600082015250565b6000612334601c836122ed565b915061233f826122fe565b602082019050919050565b6000602082019050818103600083015261236381612327565b9050919050565b7f57616765722069732061626f7665206d6178696d756d206c696d697400000000600082015250565b60006123a0601c836122ed565b91506123ab8261236a565b602082019050919050565b600060208201905081810360008301526123cf81612393565b9050919050565b7f4e487b7100000000000000000000000000000000000000000000000000000000600052601160045260246000fd5b600061241082611cdd565b91507fffffffffffffffffffffffffffffffffffffffffffffffffffffffffffffffff8203612442576124416123d6565b5b600182019050919050565b61245681612195565b82525050565b61246581611cdd565b82525050565b600061ffff82169050919050565b6124828161246b565b82525050565b612491816121cb565b82525050565b600081519050919050565b600082825260208201905092915050565b60005b838110156124d15780820151818401526020810190506124b6565b60008484015250505050565b6000601f19601f8301169050919050565b60006124f982612497565b61250381856124a2565b93506125138185602086016124b3565b61251c816124dd565b840191505092915050565b600060c08301600083015161253f600086018261244d565b506020830151612552602086018261245c565b5060408301516125656040860182612479565b5060608301516125786060860182612488565b50608083015161258b6080860182612488565b5060a083015184820360a08601526125a382826124ee565b9150508091505092915050565b600060208201905081810360008301526125ca8184612527565b905092915050565b6000815190506125e181611ce7565b92915050565b6000602082840312156125fd576125fc611cd3565b5b600061260b848285016125d2565b91505092915050565b60006040820190506126296000830185611de9565b6126366020830184611df8565b9392505050565b7f4d7573742062652070726f706f736564206f776e657200000000000000000000600082015250565b60006126736016836122ed565b915061267e8261263d565b602082019050919050565b600060208201905081810360008301526126a281612666565b9050919050565b60006060820190506126be6000830186611d72565b6126cb6020830185611d72565b6126d86040830184611d72565b949350505050565b7f4e6577206665652077616c6c65742063616e6e6f74206265207a65726f20616460008201527f6472657373000000000000000000000000000000000000000000000000000000602082015250565b600061273c6025836122ed565b9150612747826126e0565b604082019050919050565b6000602082019050818103600083015261276b8161272f565b9050919050565b7f4d696e207761676572206d7573742062652067726561746572207468616e2030600082015250565b60006127a86020836122ed565b91506127b382612772565b602082019050919050565b600060208201905081810360008301526127d78161279b565b9050919050565b7f4d6178207761676572206d7573742062652067726561746572207468616e206f60008201527f7220657175616c20746f206e6577206d696e2077616765720000000000000000602082015250565b600061283a6038836122ed565b9150612845826127de565b604082019050919050565b600060208201905081810360008301526128698161282d565b9050919050565b7f537562736372697074696f6e2049442063616e6e6f74206265207a65726f0000600082015250565b60006128a6601e836122ed565b91506128b182612870565b602082019050919050565b600060208201905081810360008301526128d581612899565b9050919050565b7f43616c6c6261636b20676173206c696d6974206d75737420626520677265617460008201527f6572207468616e20300000000000000000000000000000000000000000000000602082015250565b60006129386029836122ed565b9150612943826128dc565b604082019050919050565b600060208201905081810360008301526129678161292b565b9050919050565b61297781612195565b82525050565b612986816121cb565b82525050565b60006060820190506129a16000830186611df8565b6129ae602083018561296e565b6129bb604083018461297d565b949350505050565b7f4665652070657263656e746167652063616e6e6f74206578636565642031303060008201527f303020626173697320706f696e74732028313030252900000000000000000000602082015250565b6000612a1f6036836122ed565b9150612a2a826129c3565b604082019050919050565b60006020820190508181036000830152612a4e81612a12565b9050919050565b7f546f6b656e20616464726573732063616e6e6f74206265207a65726f00000000600082015250565b6000612a8b601c836122ed565b9150612a9682612a55565b602082019050919050565b60006020820190508181036000830152612aba81612a7e565b9050919050565b6000604082019050612ad66000830185611d72565b612ae36020830184611df8565b9392505050565b612af381611e07565b8114612afe57600080fd5b50565b600081519050612b1081612aea565b92915050565b600060208284031215612b2c57612b2b611cd3565b5b6000612b3a84828501612b01565b91505092915050565b7f455243323020746f6b656e207769746864726177616c206661696c6564000000600082015250565b6000612b79601d836122ed565b9150612b8482612b43565b602082019050919050565b60006020820190508181036000830152612ba881612b6c565b9050919050565b7f4e6f2062616c616e636520746f20776974686472617700000000000000000000600082015250565b6000612be56016836122ed565b9150612bf082612baf565b602082019050919050565b60006020820190508181036000830152612c1481612bd8565b9050919050565b600081905092915050565b50565b6000612c36600083612c1b565b9150612c4182612c26565b600082019050919050565b6000612c5782612c29565b9150819050919050565b7f436f6e7472616374204554482062616c616e6365207769746864726177616c2060008201527f6661696c65640000000000000000000000000000000000000000000000000000602082015250565b6000612cbd6026836122ed565b9150612cc882612c61565b604082019050919050565b60006020820190508181036000830152612cec81612cb0565b9050919050565b7f4d6178207761676572206d7573742062652067726561746572207468616e206f60008201527f7220657175616c20746f206d696e207761676572000000000000000000000000602082015250565b6000612d4f6034836122ed565b9150612d5a82612cf3565b604082019050919050565b60006020820190508181036000830152612d7e81612d42565b9050919050565b7f47616d65206e6f7420696e207265717565737465642073746174650000000000600082015250565b6000612dbb601b836122ed565b9150612dc682612d85565b602082019050919050565b60006020820190508181036000830152612dea81612dae565b9050919050565b7f47616d6520616c726561647920736574746c6564000000000000000000000000600082015250565b6000612e276014836122ed565b9150612e3282612df1565b602082019050919050565b60006020820190508181036000830152612e5681612e1a565b9050919050565b7f4e487b7100000000000000000000000000000000000000000000000000000000600052603260045260246000fd5b7f4e487b7100000000000000000000000000000000000000000000000000000000600052601260045260246000fd5b6000612ec682611cdd565b9150612ed183611cdd565b925082612ee157612ee0612e8c565b5b828206905092915050565b6000612ef782611cdd565b9150612f0283611cdd565b9250828202612f1081611cdd565b91508282048414831517612f2757612f266123d6565b5b5092915050565b6000612f3982611cdd565b9150612f4483611cdd565b925082612f5457612f53612e8c565b5b828204905092915050565b6000612f6a82611cdd565b9150612f7583611cdd565b9250828203905081811115612f8d57612f8c6123d6565b5b92915050565b6000612f9e82611cdd565b9150612fa983611cdd565b9250828201905080821115612fc157612fc06123d6565b5b92915050565b7f436f6e74726163742068617320696e73756666696369656e742062616c616e6360008201527f6520666f722077696e207061796f757420616e64206665650000000000000000602082015250565b60006130236038836122ed565b915061302e82612fc7565b604082019050919050565b6000602082019050818103600083015261305281613016565b9050919050565b7f506c61796572207061796f7574207472616e73666572206661696c6564000000600082015250565b600061308f601d836122ed565b915061309a82613059565b602082019050919050565b600060208201905081810360008301526130be81613082565b9050919050565b7f436f6e74726163742068617320696e73756666696369656e742062616c616e6360008201527f6520666f7220666565207472616e73666572206f6e206c6f7373000000000000602082015250565b6000613121603a836122ed565b915061312c826130c5565b604082019050919050565b6000602082019050818103600083015261315081613114565b9050919050565b7f466565207472616e7366657220746f2066656557616c6c6574206661696c6564600082015250565b600061318d6020836122ed565b915061319882613157565b602082019050919050565b600060208201905081810360008301526131bc81613180565b9050919050565b60006080820190506131d86000830187611de9565b6131e56020830186611df8565b6131f26040830185611df8565b6131ff6060830184611e13565b95945050505050565b7f4f6e6c792063616c6c61626c65206279206f776e657200000000000000000000600082015250565b600061323e6016836122ed565b915061324982613208565b602082019050919050565b6000602082019050818103600083015261326d81613231565b9050919050565b7f43616e6e6f74207472616e7366657220746f2073656c66000000000000000000600082015250565b60006132aa6017836122ed565b91506132b582613274565b602082019050919050565b600060208201905081810360008301526132d98161329d565b905091905056fea2646970667358221220eedb724fb00978f7b5d7239d87b87050fe1ae84319c0b9c148c5af1d62d3e22964736f6c63430008180033",
  "linkReferences": {},
  "deployedLinkReferences": {}
}